{
  "_format": "hh-sol-artifact-1",
  "contractName": "KatsuraOjisanBK",
  "sourceName": "contracts/KatsuraOjisanBK.sol",
  "abi": [
    {
      "inputs": [],
      "stateMutability": "nonpayable",
      "type": "constructor"
    },
    {
      "anonymous": false,
      "inputs": [
        {
          "indexed": true,
          "internalType": "address",
          "name": "owner",
          "type": "address"
        },
        {
          "indexed": true,
          "internalType": "address",
          "name": "approved",
          "type": "address"
        },
        {
          "indexed": true,
          "internalType": "uint256",
          "name": "tokenId",
          "type": "uint256"
        }
      ],
      "name": "Approval",
      "type": "event"
    },
    {
      "anonymous": false,
      "inputs": [
        {
          "indexed": true,
          "internalType": "address",
          "name": "owner",
          "type": "address"
        },
        {
          "indexed": true,
          "internalType": "address",
          "name": "operator",
          "type": "address"
        },
        {
          "indexed": false,
          "internalType": "bool",
          "name": "approved",
          "type": "bool"
        }
      ],
      "name": "ApprovalForAll",
      "type": "event"
    },
    {
      "anonymous": false,
      "inputs": [
        {
          "indexed": true,
          "internalType": "address",
          "name": "previousOwner",
          "type": "address"
        },
        {
          "indexed": true,
          "internalType": "address",
          "name": "newOwner",
          "type": "address"
        }
      ],
      "name": "OwnershipTransferred",
      "type": "event"
    },
    {
      "anonymous": false,
      "inputs": [
        {
          "indexed": true,
          "internalType": "address",
          "name": "from",
          "type": "address"
        },
        {
          "indexed": true,
          "internalType": "address",
          "name": "to",
          "type": "address"
        },
        {
          "indexed": true,
          "internalType": "uint256",
          "name": "tokenId",
          "type": "uint256"
        }
      ],
      "name": "Transfer",
      "type": "event"
    },
    {
      "inputs": [
        {
          "internalType": "address",
          "name": "to",
          "type": "address"
        },
        {
          "internalType": "uint256",
          "name": "tokenId",
          "type": "uint256"
        }
      ],
      "name": "approve",
      "outputs": [],
      "stateMutability": "nonpayable",
      "type": "function"
    },
    {
      "inputs": [],
      "name": "attributeAddress",
      "outputs": [
        {
          "internalType": "address",
          "name": "",
          "type": "address"
        }
      ],
      "stateMutability": "view",
      "type": "function"
    },
    {
      "inputs": [],
      "name": "attributeContract",
      "outputs": [
        {
          "internalType": "contract IKatsuraOjisanAttribute",
          "name": "",
          "type": "address"
        }
      ],
      "stateMutability": "view",
      "type": "function"
    },
    {
      "inputs": [
        {
          "internalType": "address",
          "name": "owner",
          "type": "address"
        }
      ],
      "name": "balanceOf",
      "outputs": [
        {
          "internalType": "uint256",
          "name": "",
          "type": "uint256"
        }
      ],
      "stateMutability": "view",
      "type": "function"
    },
    {
      "inputs": [
        {
          "internalType": "uint256",
          "name": "tokenId",
          "type": "uint256"
        }
      ],
      "name": "getApproved",
      "outputs": [
        {
          "internalType": "address",
          "name": "",
          "type": "address"
        }
      ],
      "stateMutability": "view",
      "type": "function"
    },
    {
      "inputs": [
        {
          "internalType": "address",
          "name": "owner",
          "type": "address"
        },
        {
          "internalType": "address",
          "name": "operator",
          "type": "address"
        }
      ],
      "name": "isApprovedForAll",
      "outputs": [
        {
          "internalType": "bool",
          "name": "",
          "type": "bool"
        }
      ],
      "stateMutability": "view",
      "type": "function"
    },
    {
      "inputs": [],
      "name": "isPublicSale",
      "outputs": [
        {
          "internalType": "bool",
          "name": "",
          "type": "bool"
        }
      ],
      "stateMutability": "view",
      "type": "function"
    },
    {
      "inputs": [],
      "name": "isWhitelistSale",
      "outputs": [
        {
          "internalType": "bool",
          "name": "",
          "type": "bool"
        }
      ],
      "stateMutability": "view",
      "type": "function"
    },
    {
      "inputs": [
        {
          "internalType": "address",
          "name": "_address",
          "type": "address"
        },
        {
          "internalType": "bytes32[]",
          "name": "_proof",
          "type": "bytes32[]"
        }
      ],
      "name": "isWhitelisted",
      "outputs": [
        {
          "internalType": "bool",
          "name": "",
          "type": "bool"
        }
      ],
      "stateMutability": "view",
      "type": "function"
    },
    {
      "inputs": [],
      "name": "maxMintPerTX",
      "outputs": [
        {
          "internalType": "uint256",
          "name": "",
          "type": "uint256"
        }
      ],
      "stateMutability": "view",
      "type": "function"
    },
    {
      "inputs": [],
      "name": "maxMintsPerPS",
      "outputs": [
        {
          "internalType": "uint256",
          "name": "",
          "type": "uint256"
        }
      ],
      "stateMutability": "view",
      "type": "function"
    },
    {
      "inputs": [],
      "name": "maxMintsPerWL",
      "outputs": [
        {
          "internalType": "uint256",
          "name": "",
          "type": "uint256"
        }
      ],
      "stateMutability": "view",
      "type": "function"
    },
    {
      "inputs": [],
      "name": "maxSupply",
      "outputs": [
        {
          "internalType": "uint256",
          "name": "",
          "type": "uint256"
        }
      ],
      "stateMutability": "view",
      "type": "function"
    },
    {
      "inputs": [],
      "name": "merkleRoot",
      "outputs": [
        {
          "internalType": "bytes32",
          "name": "",
          "type": "bytes32"
        }
      ],
      "stateMutability": "view",
      "type": "function"
    },
    {
      "inputs": [],
      "name": "name",
      "outputs": [
        {
          "internalType": "string",
          "name": "",
          "type": "string"
        }
      ],
      "stateMutability": "view",
      "type": "function"
    },
    {
      "inputs": [],
      "name": "notRevealURI",
      "outputs": [
        {
          "internalType": "string",
          "name": "",
          "type": "string"
        }
      ],
      "stateMutability": "view",
      "type": "function"
    },
    {
      "inputs": [],
      "name": "owner",
      "outputs": [
        {
          "internalType": "address",
          "name": "",
          "type": "address"
        }
      ],
      "stateMutability": "view",
      "type": "function"
    },
    {
      "inputs": [
        {
          "internalType": "uint256",
          "name": "_mintAmount",
          "type": "uint256"
        },
        {
          "internalType": "address",
          "name": "_address",
          "type": "address"
        }
      ],
      "name": "ownerMint",
      "outputs": [],
      "stateMutability": "nonpayable",
      "type": "function"
    },
    {
      "inputs": [
        {
          "internalType": "uint256",
          "name": "tokenId",
          "type": "uint256"
        }
      ],
      "name": "ownerOf",
      "outputs": [
        {
          "internalType": "address",
          "name": "",
          "type": "address"
        }
      ],
      "stateMutability": "view",
      "type": "function"
    },
    {
      "inputs": [
        {
          "internalType": "address",
          "name": "",
          "type": "address"
        }
      ],
      "name": "psMinted",
      "outputs": [
        {
          "internalType": "uint256",
          "name": "",
          "type": "uint256"
        }
      ],
      "stateMutability": "view",
      "type": "function"
    },
    {
      "inputs": [
        {
          "internalType": "uint256",
          "name": "_mintAmount",
          "type": "uint256"
        }
      ],
      "name": "publicSaleMint",
      "outputs": [],
      "stateMutability": "nonpayable",
      "type": "function"
    },
    {
      "inputs": [],
      "name": "renounceOwnership",
      "outputs": [],
      "stateMutability": "nonpayable",
      "type": "function"
    },
    {
      "inputs": [],
      "name": "revealNFT",
      "outputs": [],
      "stateMutability": "nonpayable",
      "type": "function"
    },
    {
      "inputs": [],
      "name": "revealURI",
      "outputs": [
        {
          "internalType": "string",
          "name": "",
          "type": "string"
        }
      ],
      "stateMutability": "view",
      "type": "function"
    },
    {
      "inputs": [],
      "name": "revealed",
      "outputs": [
        {
          "internalType": "bool",
          "name": "",
          "type": "bool"
        }
      ],
      "stateMutability": "view",
      "type": "function"
    },
    {
      "inputs": [
        {
          "internalType": "address",
          "name": "from",
          "type": "address"
        },
        {
          "internalType": "address",
          "name": "to",
          "type": "address"
        },
        {
          "internalType": "uint256",
          "name": "tokenId",
          "type": "uint256"
        }
      ],
      "name": "safeTransferFrom",
      "outputs": [],
      "stateMutability": "nonpayable",
      "type": "function"
    },
    {
      "inputs": [
        {
          "internalType": "address",
          "name": "from",
          "type": "address"
        },
        {
          "internalType": "address",
          "name": "to",
          "type": "address"
        },
        {
          "internalType": "uint256",
          "name": "tokenId",
          "type": "uint256"
        },
        {
          "internalType": "bytes",
          "name": "data",
          "type": "bytes"
        }
      ],
      "name": "safeTransferFrom",
      "outputs": [],
      "stateMutability": "nonpayable",
      "type": "function"
    },
    {
      "inputs": [
        {
          "internalType": "address",
          "name": "operator",
          "type": "address"
        },
        {
          "internalType": "bool",
          "name": "approved",
          "type": "bool"
        }
      ],
      "name": "setApprovalForAll",
      "outputs": [],
      "stateMutability": "nonpayable",
      "type": "function"
    },
    {
      "inputs": [
        {
          "internalType": "address",
          "name": "_address",
          "type": "address"
        }
      ],
      "name": "setAttributeAddress",
      "outputs": [],
      "stateMutability": "nonpayable",
      "type": "function"
    },
    {
      "inputs": [
        {
          "internalType": "bytes32",
          "name": "_merkleRoot",
          "type": "bytes32"
        }
      ],
      "name": "setMerkleRoot",
      "outputs": [],
      "stateMutability": "nonpayable",
      "type": "function"
    },
    {
      "inputs": [
        {
          "internalType": "string",
          "name": "_uri",
          "type": "string"
        }
      ],
      "name": "setNotRevealURI",
      "outputs": [],
      "stateMutability": "nonpayable",
      "type": "function"
    },
    {
      "inputs": [
        {
          "internalType": "bool",
          "name": "_enable",
          "type": "bool"
        }
      ],
      "name": "setPublicSale",
      "outputs": [],
      "stateMutability": "nonpayable",
      "type": "function"
    },
    {
      "inputs": [
        {
          "internalType": "string",
          "name": "_uri",
          "type": "string"
        }
      ],
      "name": "setRevealURI",
      "outputs": [],
      "stateMutability": "nonpayable",
      "type": "function"
    },
    {
      "inputs": [
        {
          "internalType": "bool",
          "name": "_enable",
          "type": "bool"
        }
      ],
      "name": "setWhitelistSale",
      "outputs": [],
      "stateMutability": "nonpayable",
      "type": "function"
    },
    {
      "inputs": [
        {
          "internalType": "bytes4",
          "name": "interfaceId",
          "type": "bytes4"
        }
      ],
      "name": "supportsInterface",
      "outputs": [
        {
          "internalType": "bool",
          "name": "",
          "type": "bool"
        }
      ],
      "stateMutability": "view",
      "type": "function"
    },
    {
      "inputs": [],
      "name": "symbol",
      "outputs": [
        {
          "internalType": "string",
          "name": "",
          "type": "string"
        }
      ],
      "stateMutability": "view",
      "type": "function"
    },
    {
      "inputs": [
        {
          "internalType": "uint256",
          "name": "index",
          "type": "uint256"
        }
      ],
      "name": "tokenByIndex",
      "outputs": [
        {
          "internalType": "uint256",
          "name": "",
          "type": "uint256"
        }
      ],
      "stateMutability": "view",
      "type": "function"
    },
    {
      "inputs": [
        {
          "internalType": "address",
          "name": "owner",
          "type": "address"
        },
        {
          "internalType": "uint256",
          "name": "index",
          "type": "uint256"
        }
      ],
      "name": "tokenOfOwnerByIndex",
      "outputs": [
        {
          "internalType": "uint256",
          "name": "",
          "type": "uint256"
        }
      ],
      "stateMutability": "view",
      "type": "function"
    },
    {
      "inputs": [
        {
          "internalType": "uint256",
          "name": "_tokenId",
          "type": "uint256"
        }
      ],
      "name": "tokenURI",
      "outputs": [
        {
          "internalType": "string",
          "name": "",
          "type": "string"
        }
      ],
      "stateMutability": "view",
      "type": "function"
    },
    {
      "inputs": [],
      "name": "totalSupply",
      "outputs": [
        {
          "internalType": "uint256",
          "name": "",
          "type": "uint256"
        }
      ],
      "stateMutability": "view",
      "type": "function"
    },
    {
      "inputs": [
        {
          "internalType": "address",
          "name": "from",
          "type": "address"
        },
        {
          "internalType": "address",
          "name": "to",
          "type": "address"
        },
        {
          "internalType": "uint256",
          "name": "tokenId",
          "type": "uint256"
        }
      ],
      "name": "transferFrom",
      "outputs": [],
      "stateMutability": "nonpayable",
      "type": "function"
    },
    {
      "inputs": [
        {
          "internalType": "address",
          "name": "newOwner",
          "type": "address"
        }
      ],
      "name": "transferOwnership",
      "outputs": [],
      "stateMutability": "nonpayable",
      "type": "function"
    },
    {
      "inputs": [
        {
          "internalType": "uint256",
          "name": "_mintAmount",
          "type": "uint256"
        },
        {
          "internalType": "bytes32[]",
          "name": "_proof",
          "type": "bytes32[]"
        }
      ],
      "name": "whitelistMint",
      "outputs": [],
      "stateMutability": "nonpayable",
      "type": "function"
    },
    {
      "inputs": [
        {
          "internalType": "address",
          "name": "",
          "type": "address"
        }
      ],
      "name": "wlsMinted",
      "outputs": [
        {
          "internalType": "uint256",
          "name": "",
          "type": "uint256"
        }
      ],
      "stateMutability": "view",
      "type": "function"
    }
  ],
  "bytecode": "0x60806040526040518060600160405280603581526020016200543b60359139600f9080519060200190620000359291906200023e565b506104576010556005601155600560125560056013556000601460006101000a81548160ff0219169083151502179055506000601460016101000a81548160ff0219169083151502179055506000601460026101000a81548160ff021916908315150217905550348015620000a957600080fd5b506040518060400160405280600e81526020017f4b617473757261204f6a6973616e0000000000000000000000000000000000008152506040518060400160405280600381526020017f4b4f4a000000000000000000000000000000000000000000000000000000000081525081600090805190602001906200012e9291906200023e565b508060019080519060200190620001479291906200023e565b5050506200016a6200015e6200017060201b60201c565b6200017860201b60201c565b62000353565b600033905090565b6000600a60009054906101000a900473ffffffffffffffffffffffffffffffffffffffff16905081600a60006101000a81548173ffffffffffffffffffffffffffffffffffffffff021916908373ffffffffffffffffffffffffffffffffffffffff1602179055508173ffffffffffffffffffffffffffffffffffffffff168173ffffffffffffffffffffffffffffffffffffffff167f8be0079c531659141344cd1fd0a4f28419497f9722a3daafe3b4186f6b6457e060405160405180910390a35050565b8280546200024c90620002ee565b90600052602060002090601f016020900481019282620002705760008555620002bc565b82601f106200028b57805160ff1916838001178555620002bc565b82800160010185558215620002bc579182015b82811115620002bb5782518255916020019190600101906200029e565b5b509050620002cb9190620002cf565b5090565b5b80821115620002ea576000816000905550600101620002d0565b5090565b600060028204905060018216806200030757607f821691505b602082108114156200031e576200031d62000324565b5b50919050565b7f4e487b7100000000000000000000000000000000000000000000000000000000600052602260045260246000fd5b6150d880620003636000396000f3fe608060405234801561001057600080fd5b50600436106102745760003560e01c80636ba9c9ec11610151578063b3ab66b0116100c3578063d021aa5011610087578063d021aa5014610761578063d2cab0561461077f578063d52c57e01461079b578063d5abeb01146107b7578063e985e9c5146107d5578063f2fde38b1461080557610274565b8063b3ab66b0146106bf578063b88d4fde146106db578063c1f2eeef146106f7578063c87b56dd14610715578063ca7ce3ec1461074557610274565b8063942958f411610115578063942958f4146105fd57806395d89b411461062d5780639970cc291461064b578063a22cb46514610669578063a5a865dc14610685578063a811a37b146106a357610274565b80636ba9c9ec1461056b57806370a0823114610589578063715018a6146105b95780637cb64759146105c35780638da5cb5b146105df57610274565b80632eb4a7ab116101ea57806351830227116101ae5780635183022714610497578063553f241e146104b55780635a23dd99146104d35780635aca1bb6146105035780635accac991461051f5780636352211e1461053b57610274565b80632eb4a7ab146103cd5780632f745c59146103eb57806342842e0e1461041b57806342bfa3d2146104375780634f6ccce71461046757610274565b80631455b1e21161023c5780631455b1e21461031d578063160fba561461033b57806318160ddd146103595780631a09cfe21461037757806323b872dd14610395578063259d36e6146103b157610274565b806301ffc9a71461027957806304b4bba9146102a957806306fdde03146102b3578063081812fc146102d1578063095ea7b314610301575b600080fd5b610293600480360381019061028e919061375d565b610821565b6040516102a091906140ca565b60405180910390f35b6102b161089b565b005b6102bb6108c0565b6040516102c8919061411b565b60405180910390f35b6102eb60048036038101906102e69190613800565b610952565b6040516102f89190614063565b60405180910390f35b61031b6004803603810190610316919061367a565b610998565b005b610325610ab0565b60405161033291906140ca565b60405180910390f35b610343610ac3565b604051610350919061411b565b60405180910390f35b610361610b51565b60405161036e91906143bd565b60405180910390f35b61037f610b5e565b60405161038c91906143bd565b60405180910390f35b6103af60048036038101906103aa9190613504565b610b64565b005b6103cb60048036038101906103c69190613497565b610bc4565b005b6103d5610c51565b6040516103e291906140e5565b60405180910390f35b6104056004803603810190610400919061367a565b610c57565b60405161041291906143bd565b60405180910390f35b61043560048036038101906104309190613504565b610cfc565b005b610451600480360381019061044c9190613497565b610d1c565b60405161045e91906143bd565b60405180910390f35b610481600480360381019061047c9190613800565b610d34565b60405161048e91906143bd565b60405180910390f35b61049f610da5565b6040516104ac91906140ca565b60405180910390f35b6104bd610db8565b6040516104ca91906143bd565b60405180910390f35b6104ed60048036038101906104e891906135da565b610dbe565b6040516104fa91906140ca565b60405180910390f35b61051d60048036038101906105189190613703565b610e3d565b005b610539600480360381019061053491906137b7565b610e62565b005b61055560048036038101906105509190613800565b610e84565b6040516105629190614063565b60405180910390f35b610573610f36565b6040516105809190614100565b60405180910390f35b6105a3600480360381019061059e9190613497565b610f5c565b6040516105b091906143bd565b60405180910390f35b6105c1611014565b005b6105dd60048036038101906105d89190613730565b611028565b005b6105e761103a565b6040516105f49190614063565b60405180910390f35b61061760048036038101906106129190613497565b611064565b60405161062491906143bd565b60405180910390f35b61063561107c565b604051610642919061411b565b60405180910390f35b61065361110e565b60405161066091906143bd565b60405180910390f35b610683600480360381019061067e919061363a565b611114565b005b61068d61112a565b60405161069a91906140ca565b60405180910390f35b6106bd60048036038101906106b891906137b7565b61113d565b005b6106d960048036038101906106d49190613800565b61115f565b005b6106f560048036038101906106f09190613557565b611349565b005b6106ff6113ab565b60405161070c9190614063565b60405180910390f35b61072f600480360381019061072a9190613800565b6113d1565b60405161073c919061411b565b60405180910390f35b61075f600480360381019061075a9190613703565b611450565b005b610769611475565b604051610776919061411b565b60405180910390f35b6107996004803603810190610794919061386d565b611503565b005b6107b560048036038101906107b0919061382d565b611739565b005b6107bf611830565b6040516107cc91906143bd565b60405180910390f35b6107ef60048036038101906107ea91906134c4565b611836565b6040516107fc91906140ca565b60405180910390f35b61081f600480360381019061081a9190613497565b6118ca565b005b60007f780e9d63000000000000000000000000000000000000000000000000000000007bffffffffffffffffffffffffffffffffffffffffffffffffffffffff1916827bffffffffffffffffffffffffffffffffffffffffffffffffffffffff1916148061089457506108938261194e565b5b9050919050565b6108a3611a30565b6001601460006101000a81548160ff021916908315150217905550565b6060600080546108cf906146fb565b80601f01602080910402602001604051908101604052809291908181526020018280546108fb906146fb565b80156109485780601f1061091d57610100808354040283529160200191610948565b820191906000526020600020905b81548152906001019060200180831161092b57829003601f168201915b5050505050905090565b600061095d82611aae565b6004600083815260200190815260200160002060009054906101000a900473ffffffffffffffffffffffffffffffffffffffff169050919050565b60006109a382610e84565b90508073ffffffffffffffffffffffffffffffffffffffff168373ffffffffffffffffffffffffffffffffffffffff161415610a14576040517f08c379a0000000000000000000000000000000000000000000000000000000008152600401610a0b9061435d565b60405180910390fd5b8073ffffffffffffffffffffffffffffffffffffffff16610a33611af9565b73ffffffffffffffffffffffffffffffffffffffff161480610a625750610a6181610a5c611af9565b611836565b5b610aa1576040517f08c379a0000000000000000000000000000000000000000000000000000000008152600401610a98906142bd565b60405180910390fd5b610aab8383611b01565b505050565b601460019054906101000a900460ff1681565b600e8054610ad0906146fb565b80601f0160208091040260200160405190810160405280929190818152602001828054610afc906146fb565b8015610b495780601f10610b1e57610100808354040283529160200191610b49565b820191906000526020600020905b815481529060010190602001808311610b2c57829003601f168201915b505050505081565b6000600880549050905090565b60135481565b610b75610b6f611af9565b82611bba565b610bb4576040517f08c379a0000000000000000000000000000000000000000000000000000000008152600401610bab9061439d565b60405180910390fd5b610bbf838383611c4f565b505050565b610bcc611a30565b80600d60006101000a81548173ffffffffffffffffffffffffffffffffffffffff021916908373ffffffffffffffffffffffffffffffffffffffff16021790555080600c60006101000a81548173ffffffffffffffffffffffffffffffffffffffff021916908373ffffffffffffffffffffffffffffffffffffffff16021790555050565b600b5481565b6000610c6283610f5c565b8210610ca3576040517f08c379a0000000000000000000000000000000000000000000000000000000008152600401610c9a9061413d565b60405180910390fd5b600660008473ffffffffffffffffffffffffffffffffffffffff1673ffffffffffffffffffffffffffffffffffffffff168152602001908152602001600020600083815260200190815260200160002054905092915050565b610d1783838360405180602001604052806000815250611349565b505050565b60166020528060005260406000206000915090505481565b6000610d3e610b51565b8210610d7f576040517f08c379a0000000000000000000000000000000000000000000000000000000008152600401610d769061437d565b60405180910390fd5b60088281548110610d9357610d926148e2565b5b90600052602060002001549050919050565b601460009054906101000a900460ff1681565b60115481565b6000610e34838380806020026020016040519081016040528093929190818152602001838360200280828437600081840152601f19601f82011690508083019250505050505050600b5486604051602001610e199190613e8e565b60405160208183030381529060405280519060200120611eb6565b90509392505050565b610e45611a30565b80601460026101000a81548160ff02191690831515021790555050565b610e6a611a30565b80600f9080519060200190610e80929190613114565b5050565b6000806002600084815260200190815260200160002060009054906101000a900473ffffffffffffffffffffffffffffffffffffffff169050600073ffffffffffffffffffffffffffffffffffffffff168173ffffffffffffffffffffffffffffffffffffffff161415610f2d576040517f08c379a0000000000000000000000000000000000000000000000000000000008152600401610f249061433d565b60405180910390fd5b80915050919050565b600d60009054906101000a900473ffffffffffffffffffffffffffffffffffffffff1681565b60008073ffffffffffffffffffffffffffffffffffffffff168273ffffffffffffffffffffffffffffffffffffffff161415610fcd576040517f08c379a0000000000000000000000000000000000000000000000000000000008152600401610fc49061427d565b60405180910390fd5b600360008373ffffffffffffffffffffffffffffffffffffffff1673ffffffffffffffffffffffffffffffffffffffff168152602001908152602001600020549050919050565b61101c611a30565b6110266000611ecd565b565b611030611a30565b80600b8190555050565b6000600a60009054906101000a900473ffffffffffffffffffffffffffffffffffffffff16905090565b60156020528060005260406000206000915090505481565b60606001805461108b906146fb565b80601f01602080910402602001604051908101604052809291908181526020018280546110b7906146fb565b80156111045780601f106110d957610100808354040283529160200191611104565b820191906000526020600020905b8154815290600101906020018083116110e757829003601f168201915b5050505050905090565b60125481565b61112661111f611af9565b8383611f93565b5050565b601460029054906101000a900460ff1681565b611145611a30565b80600e908051906020019061115b929190613114565b5050565b60008111801561117157506011548111155b6111b0576040517f08c379a00000000000000000000000000000000000000000000000000000000081526004016111a7906141fd565b60405180910390fd5b601460029054906101000a900460ff166111ff576040517f08c379a00000000000000000000000000000000000000000000000000000000081526004016111f69061429d565b60405180910390fd5b6000611209610b51565b9050601054828261121a91906144e3565b11158015611274575060135482601560003373ffffffffffffffffffffffffffffffffffffffff1673ffffffffffffffffffffffffffffffffffffffff1681526020019081526020016000205461127191906144e3565b11155b6112b3576040517f08c379a00000000000000000000000000000000000000000000000000000000081526004016112aa906141bd565b60405180910390fd5b6000600190505b82811161134457600081836112cf91906144e3565b9050601560003373ffffffffffffffffffffffffffffffffffffffff1673ffffffffffffffffffffffffffffffffffffffff16815260200190815260200160002060008154809291906113219061475e565b91905055506113303382612100565b50808061133c9061475e565b9150506112ba565b505050565b61135a611354611af9565b83611bba565b611399576040517f08c379a00000000000000000000000000000000000000000000000000000000081526004016113909061439d565b60405180910390fd5b6113a58484848461211e565b50505050565b600c60009054906101000a900473ffffffffffffffffffffffffffffffffffffffff1681565b60606113dc8261217a565b61141b576040517f08c379a0000000000000000000000000000000000000000000000000000000008152600401611412906142fd565b60405180910390fd5b601460009054906101000a900460ff1661143f57611438826121e6565b905061144b565b61144882612293565b90505b919050565b611458611a30565b80601460016101000a81548160ff02191690831515021790555050565b600f8054611482906146fb565b80601f01602080910402602001604051908101604052809291908181526020018280546114ae906146fb565b80156114fb5780601f106114d0576101008083540402835291602001916114fb565b820191906000526020600020905b8154815290600101906020018083116114de57829003601f168201915b505050505081565b60008311801561151557506011548311155b611554576040517f08c379a000000000000000000000000000000000000000000000000000000000815260040161154b906141fd565b60405180910390fd5b601460019054906101000a900460ff166115a3576040517f08c379a000000000000000000000000000000000000000000000000000000000815260040161159a9061429d565b60405180910390fd5b6115ae338383610dbe565b6115ed576040517f08c379a00000000000000000000000000000000000000000000000000000000081526004016115e49061425d565b60405180910390fd5b60006115f7610b51565b9050601054848261160891906144e3565b11158015611662575060125484601660003373ffffffffffffffffffffffffffffffffffffffff1673ffffffffffffffffffffffffffffffffffffffff1681526020019081526020016000205461165f91906144e3565b11155b6116a1576040517f08c379a0000000000000000000000000000000000000000000000000000000008152600401611698906141bd565b60405180910390fd5b6000600190505b84811161173257600081836116bd91906144e3565b9050601660003373ffffffffffffffffffffffffffffffffffffffff1673ffffffffffffffffffffffffffffffffffffffff168152602001908152602001600020600081548092919061170f9061475e565b919050555061171e3382612100565b50808061172a9061475e565b9150506116a8565b5050505050565b611741611a30565b60008211801561175357506011548211155b611792576040517f08c379a0000000000000000000000000000000000000000000000000000000008152600401611789906141fd565b60405180910390fd5b600061179c610b51565b905060105481846117ad91906144e3565b11156117ee576040517f08c379a00000000000000000000000000000000000000000000000000000000081526004016117e5906141bd565b60405180910390fd5b6000600190505b83811161182a576000818361180a91906144e3565b90506118168482612100565b5080806118229061475e565b9150506117f5565b50505050565b60105481565b6000600560008473ffffffffffffffffffffffffffffffffffffffff1673ffffffffffffffffffffffffffffffffffffffff16815260200190815260200160002060008373ffffffffffffffffffffffffffffffffffffffff1673ffffffffffffffffffffffffffffffffffffffff16815260200190815260200160002060009054906101000a900460ff16905092915050565b6118d2611a30565b600073ffffffffffffffffffffffffffffffffffffffff168173ffffffffffffffffffffffffffffffffffffffff161415611942576040517f08c379a00000000000000000000000000000000000000000000000000000000081526004016119399061417d565b60405180910390fd5b61194b81611ecd565b50565b60007f80ac58cd000000000000000000000000000000000000000000000000000000007bffffffffffffffffffffffffffffffffffffffffffffffffffffffff1916827bffffffffffffffffffffffffffffffffffffffffffffffffffffffff19161480611a1957507f5b5e139f000000000000000000000000000000000000000000000000000000007bffffffffffffffffffffffffffffffffffffffffffffffffffffffff1916827bffffffffffffffffffffffffffffffffffffffffffffffffffffffff1916145b80611a295750611a2882612519565b5b9050919050565b611a38611af9565b73ffffffffffffffffffffffffffffffffffffffff16611a5661103a565b73ffffffffffffffffffffffffffffffffffffffff1614611aac576040517f08c379a0000000000000000000000000000000000000000000000000000000008152600401611aa39061431d565b60405180910390fd5b565b611ab78161217a565b611af6576040517f08c379a0000000000000000000000000000000000000000000000000000000008152600401611aed9061433d565b60405180910390fd5b50565b600033905090565b816004600083815260200190815260200160002060006101000a81548173ffffffffffffffffffffffffffffffffffffffff021916908373ffffffffffffffffffffffffffffffffffffffff160217905550808273ffffffffffffffffffffffffffffffffffffffff16611b7483610e84565b73ffffffffffffffffffffffffffffffffffffffff167f8c5be1e5ebec7d5bd14f71427d1e84f3dd0314c0f7b2291e5b200ac8c7c3b92560405160405180910390a45050565b600080611bc683610e84565b90508073ffffffffffffffffffffffffffffffffffffffff168473ffffffffffffffffffffffffffffffffffffffff161480611c085750611c078185611836565b5b80611c4657508373ffffffffffffffffffffffffffffffffffffffff16611c2e84610952565b73ffffffffffffffffffffffffffffffffffffffff16145b91505092915050565b8273ffffffffffffffffffffffffffffffffffffffff16611c6f82610e84565b73ffffffffffffffffffffffffffffffffffffffff1614611cc5576040517f08c379a0000000000000000000000000000000000000000000000000000000008152600401611cbc9061419d565b60405180910390fd5b600073ffffffffffffffffffffffffffffffffffffffff168273ffffffffffffffffffffffffffffffffffffffff161415611d35576040517f08c379a0000000000000000000000000000000000000000000000000000000008152600401611d2c9061421d565b60405180910390fd5b611d40838383612583565b611d4b600082611b01565b6001600360008573ffffffffffffffffffffffffffffffffffffffff1673ffffffffffffffffffffffffffffffffffffffff1681526020019081526020016000206000828254611d9b91906145c4565b925050819055506001600360008473ffffffffffffffffffffffffffffffffffffffff1673ffffffffffffffffffffffffffffffffffffffff1681526020019081526020016000206000828254611df291906144e3565b92505081905550816002600083815260200190815260200160002060006101000a81548173ffffffffffffffffffffffffffffffffffffffff021916908373ffffffffffffffffffffffffffffffffffffffff160217905550808273ffffffffffffffffffffffffffffffffffffffff168473ffffffffffffffffffffffffffffffffffffffff167fddf252ad1be2c89b69c2b068fc378daa952ba7f163c4a11628f55a4df523b3ef60405160405180910390a4611eb1838383612697565b505050565b600082611ec3858461269c565b1490509392505050565b6000600a60009054906101000a900473ffffffffffffffffffffffffffffffffffffffff16905081600a60006101000a81548173ffffffffffffffffffffffffffffffffffffffff021916908373ffffffffffffffffffffffffffffffffffffffff1602179055508173ffffffffffffffffffffffffffffffffffffffff168173ffffffffffffffffffffffffffffffffffffffff167f8be0079c531659141344cd1fd0a4f28419497f9722a3daafe3b4186f6b6457e060405160405180910390a35050565b8173ffffffffffffffffffffffffffffffffffffffff168373ffffffffffffffffffffffffffffffffffffffff161415612002576040517f08c379a0000000000000000000000000000000000000000000000000000000008152600401611ff99061423d565b60405180910390fd5b80600560008573ffffffffffffffffffffffffffffffffffffffff1673ffffffffffffffffffffffffffffffffffffffff16815260200190815260200160002060008473ffffffffffffffffffffffffffffffffffffffff1673ffffffffffffffffffffffffffffffffffffffff16815260200190815260200160002060006101000a81548160ff0219169083151502179055508173ffffffffffffffffffffffffffffffffffffffff168373ffffffffffffffffffffffffffffffffffffffff167f17307eab39ab6107e8899845ad3d59bd9653f200f220920489ca2b5937696c31836040516120f391906140ca565b60405180910390a3505050565b61211a8282604051806020016040528060008152506126f2565b5050565b612129848484611c4f565b6121358484848461274d565b612174576040517f08c379a000000000000000000000000000000000000000000000000000000000815260040161216b9061415d565b60405180910390fd5b50505050565b60008073ffffffffffffffffffffffffffffffffffffffff166002600084815260200190815260200160002060009054906101000a900473ffffffffffffffffffffffffffffffffffffffff1673ffffffffffffffffffffffffffffffffffffffff1614159050919050565b606060006121f3836128e4565b90506000816040516020016122089190614041565b604051602081830303815290604052905060008260405160200161222c9190614041565b604051602081830303815290604052905061226a8282600f60405160200161225693929190613fc2565b604051602081830303815290604052612a45565b60405160200161227a919061401f565b6040516020818303038152906040529350505050919050565b606060006122a0836128e4565b90506000816040516020016122b59190614041565b60405160208183030381529060405290506000600e836040516020016122dc929190613f1e565b604051602081830303815290604052905060006040518060400160405280600181526020017f5b0000000000000000000000000000000000000000000000000000000000000081525090506000600d60009054906101000a900473ffffffffffffffffffffffffffffffffffffffff1673ffffffffffffffffffffffffffffffffffffffff16634378a6e3886040518263ffffffff1660e01b815260040161238491906143bd565b60006040518083038186803b15801561239c57600080fd5b505afa1580156123b0573d6000803e3d6000fd5b505050506040513d6000823e3d601f19601f820116820180604052508101906123d991906136ba565b905060005b81518160ff16101561249d57600182516123f891906145c4565b8160ff1614156124485782828260ff1681518110612419576124186148e2565b5b6020026020010151604051602001612432929190613ea9565b604051602081830303815290604052925061248a565b82828260ff168151811061245f5761245e6148e2565b5b6020026020010151604051602001612478929190613ecd565b60405160208183030381529060405292505b8080612495906147a7565b9150506123de565b50816040516020016124af9190613efc565b60405160208183030381529060405291506124ee848585856040516020016124da9493929190613f4d565b604051602081830303815290604052612a45565b6040516020016124fe919061401f565b60405160208183030381529060405295505050505050919050565b60007f01ffc9a7000000000000000000000000000000000000000000000000000000007bffffffffffffffffffffffffffffffffffffffffffffffffffffffff1916827bffffffffffffffffffffffffffffffffffffffffffffffffffffffff1916149050919050565b61258e838383612bca565b600073ffffffffffffffffffffffffffffffffffffffff168373ffffffffffffffffffffffffffffffffffffffff1614156125d1576125cc81612bcf565b612610565b8173ffffffffffffffffffffffffffffffffffffffff168373ffffffffffffffffffffffffffffffffffffffff161461260f5761260e8382612c18565b5b5b600073ffffffffffffffffffffffffffffffffffffffff168273ffffffffffffffffffffffffffffffffffffffff1614156126535761264e81612d85565b612692565b8273ffffffffffffffffffffffffffffffffffffffff168273ffffffffffffffffffffffffffffffffffffffff1614612691576126908282612e56565b5b5b505050565b505050565b60008082905060005b84518110156126e7576126d2828683815181106126c5576126c46148e2565b5b6020026020010151612ed5565b915080806126df9061475e565b9150506126a5565b508091505092915050565b6126fc8383612f00565b612709600084848461274d565b612748576040517f08c379a000000000000000000000000000000000000000000000000000000000815260040161273f9061415d565b60405180910390fd5b505050565b600061276e8473ffffffffffffffffffffffffffffffffffffffff166130da565b156128d7578373ffffffffffffffffffffffffffffffffffffffff1663150b7a02612797611af9565b8786866040518563ffffffff1660e01b81526004016127b9949392919061407e565b602060405180830381600087803b1580156127d357600080fd5b505af192505050801561280457506040513d601f19601f82011682018060405250810190612801919061378a565b60015b612887573d8060008114612834576040519150601f19603f3d011682016040523d82523d6000602084013e612839565b606091505b5060008151141561287f576040517f08c379a00000000000000000000000000000000000000000000000000000000081526004016128769061415d565b60405180910390fd5b805181602001fd5b63150b7a0260e01b7bffffffffffffffffffffffffffffffffffffffffffffffffffffffff1916817bffffffffffffffffffffffffffffffffffffffffffffffffffffffff1916149150506128dc565b600190505b949350505050565b6060600082141561292c576040518060400160405280600181526020017f30000000000000000000000000000000000000000000000000000000000000008152509050612a40565b600082905060005b6000821461295e5780806129479061475e565b915050600a826129579190614539565b9150612934565b60008167ffffffffffffffff81111561297a57612979614911565b5b6040519080825280601f01601f1916602001820160405280156129ac5781602001600182028036833780820191505090505b5090505b60008514612a39576001826129c591906145c4565b9150600a856129d491906147f5565b60306129e091906144e3565b60f81b8183815181106129f6576129f56148e2565b5b60200101907effffffffffffffffffffffffffffffffffffffffffffffffffffffffffffff1916908160001a905350600a85612a329190614539565b94506129b0565b8093505050505b919050565b6060600082511415612a6857604051806020016040528060008152509050612bc5565b60006040518060600160405280604081526020016150636040913990506000600360028551612a9791906144e3565b612aa19190614539565b6004612aad919061456a565b90506000602082612abe91906144e3565b67ffffffffffffffff811115612ad757612ad6614911565b5b6040519080825280601f01601f191660200182016040528015612b095781602001600182028036833780820191505090505b509050818152600183018586518101602084015b81831015612b84576003830192508251603f8160121c1685015160f81b8252600182019150603f81600c1c1685015160f81b8252600182019150603f8160061c1685015160f81b8252600182019150603f811685015160f81b825260018201915050612b1d565b600389510660018114612b9e5760028114612bae57612bb9565b613d3d60f01b6002830352612bb9565b603d60f81b60018303525b50505050508093505050505b919050565b505050565b6008805490506009600083815260200190815260200160002081905550600881908060018154018082558091505060019003906000526020600020016000909190919091505550565b60006001612c2584610f5c565b612c2f91906145c4565b9050600060076000848152602001908152602001600020549050818114612d14576000600660008673ffffffffffffffffffffffffffffffffffffffff1673ffffffffffffffffffffffffffffffffffffffff168152602001908152602001600020600084815260200190815260200160002054905080600660008773ffffffffffffffffffffffffffffffffffffffff1673ffffffffffffffffffffffffffffffffffffffff168152602001908152602001600020600084815260200190815260200160002081905550816007600083815260200190815260200160002081905550505b6007600084815260200190815260200160002060009055600660008573ffffffffffffffffffffffffffffffffffffffff1673ffffffffffffffffffffffffffffffffffffffff16815260200190815260200160002060008381526020019081526020016000206000905550505050565b60006001600880549050612d9991906145c4565b9050600060096000848152602001908152602001600020549050600060088381548110612dc957612dc86148e2565b5b906000526020600020015490508060088381548110612deb57612dea6148e2565b5b906000526020600020018190555081600960008381526020019081526020016000208190555060096000858152602001908152602001600020600090556008805480612e3a57612e396148b3565b5b6001900381819060005260206000200160009055905550505050565b6000612e6183610f5c565b905081600660008573ffffffffffffffffffffffffffffffffffffffff1673ffffffffffffffffffffffffffffffffffffffff168152602001908152602001600020600083815260200190815260200160002081905550806007600084815260200190815260200160002081905550505050565b6000818310612eed57612ee882846130fd565b612ef8565b612ef783836130fd565b5b905092915050565b600073ffffffffffffffffffffffffffffffffffffffff168273ffffffffffffffffffffffffffffffffffffffff161415612f70576040517f08c379a0000000000000000000000000000000000000000000000000000000008152600401612f67906142dd565b60405180910390fd5b612f798161217a565b15612fb9576040517f08c379a0000000000000000000000000000000000000000000000000000000008152600401612fb0906141dd565b60405180910390fd5b612fc560008383612583565b6001600360008473ffffffffffffffffffffffffffffffffffffffff1673ffffffffffffffffffffffffffffffffffffffff168152602001908152602001600020600082825461301591906144e3565b92505081905550816002600083815260200190815260200160002060006101000a81548173ffffffffffffffffffffffffffffffffffffffff021916908373ffffffffffffffffffffffffffffffffffffffff160217905550808273ffffffffffffffffffffffffffffffffffffffff16600073ffffffffffffffffffffffffffffffffffffffff167fddf252ad1be2c89b69c2b068fc378daa952ba7f163c4a11628f55a4df523b3ef60405160405180910390a46130d660008383612697565b5050565b6000808273ffffffffffffffffffffffffffffffffffffffff163b119050919050565b600082600052816020526040600020905092915050565b828054613120906146fb565b90600052602060002090601f0160209004810192826131425760008555613189565b82601f1061315b57805160ff1916838001178555613189565b82800160010185558215613189579182015b8281111561318857825182559160200191906001019061316d565b5b509050613196919061319a565b5090565b5b808211156131b357600081600090555060010161319b565b5090565b60006131ca6131c5846143fd565b6143d8565b905080838252602082019050828560208602820111156131ed576131ec61494a565b5b60005b8581101561323b57815167ffffffffffffffff81111561321357613212614945565b5b8086016132208982613454565b855260208501945060208401935050506001810190506131f0565b5050509392505050565b600061325861325384614429565b6143d8565b9050828152602081018484840111156132745761327361494f565b5b61327f8482856146b9565b509392505050565b600061329a6132958461445a565b6143d8565b9050828152602081018484840111156132b6576132b561494f565b5b6132c18482856146b9565b509392505050565b60006132dc6132d78461445a565b6143d8565b9050828152602081018484840111156132f8576132f761494f565b5b6133038482856146c8565b509392505050565b60008135905061331a81614fef565b92915050565b60008083601f84011261333657613335614945565b5b8235905067ffffffffffffffff81111561335357613352614940565b5b60208301915083602082028301111561336f5761336e61494a565b5b9250929050565b600082601f83011261338b5761338a614945565b5b815161339b8482602086016131b7565b91505092915050565b6000813590506133b381615006565b92915050565b6000813590506133c88161501d565b92915050565b6000813590506133dd81615034565b92915050565b6000815190506133f281615034565b92915050565b600082601f83011261340d5761340c614945565b5b813561341d848260208601613245565b91505092915050565b600082601f83011261343b5761343a614945565b5b813561344b848260208601613287565b91505092915050565b600082601f83011261346957613468614945565b5b81516134798482602086016132c9565b91505092915050565b6000813590506134918161504b565b92915050565b6000602082840312156134ad576134ac614959565b5b60006134bb8482850161330b565b91505092915050565b600080604083850312156134db576134da614959565b5b60006134e98582860161330b565b92505060206134fa8582860161330b565b9150509250929050565b60008060006060848603121561351d5761351c614959565b5b600061352b8682870161330b565b935050602061353c8682870161330b565b925050604061354d86828701613482565b9150509250925092565b6000806000806080858703121561357157613570614959565b5b600061357f8782880161330b565b94505060206135908782880161330b565b93505060406135a187828801613482565b925050606085013567ffffffffffffffff8111156135c2576135c1614954565b5b6135ce878288016133f8565b91505092959194509250565b6000806000604084860312156135f3576135f2614959565b5b60006136018682870161330b565b935050602084013567ffffffffffffffff81111561362257613621614954565b5b61362e86828701613320565b92509250509250925092565b6000806040838503121561365157613650614959565b5b600061365f8582860161330b565b9250506020613670858286016133a4565b9150509250929050565b6000806040838503121561369157613690614959565b5b600061369f8582860161330b565b92505060206136b085828601613482565b9150509250929050565b6000602082840312156136d0576136cf614959565b5b600082015167ffffffffffffffff8111156136ee576136ed614954565b5b6136fa84828501613376565b91505092915050565b60006020828403121561371957613718614959565b5b6000613727848285016133a4565b91505092915050565b60006020828403121561374657613745614959565b5b6000613754848285016133b9565b91505092915050565b60006020828403121561377357613772614959565b5b6000613781848285016133ce565b91505092915050565b6000602082840312156137a05761379f614959565b5b60006137ae848285016133e3565b91505092915050565b6000602082840312156137cd576137cc614959565b5b600082013567ffffffffffffffff8111156137eb576137ea614954565b5b6137f784828501613426565b91505092915050565b60006020828403121561381657613815614959565b5b600061382484828501613482565b91505092915050565b6000806040838503121561384457613843614959565b5b600061385285828601613482565b92505060206138638582860161330b565b9150509250929050565b60008060006040848603121561388657613885614959565b5b600061389486828701613482565b935050602084013567ffffffffffffffff8111156138b5576138b4614954565b5b6138c186828701613320565b92509250509250925092565b6138d6816145f8565b82525050565b6138ed6138e8826145f8565b6147d1565b82525050565b6138fc8161460a565b82525050565b61390b81614616565b82525050565b600061391c826144a0565b61392681856144b6565b93506139368185602086016146c8565b61393f8161495e565b840191505092915050565b61395381614683565b82525050565b6000613964826144ab565b61396e81856144c7565b935061397e8185602086016146c8565b6139878161495e565b840191505092915050565b600061399d826144ab565b6139a781856144d8565b93506139b78185602086016146c8565b80840191505092915050565b600081546139d0816146fb565b6139da81866144d8565b945060018216600081146139f55760018114613a0657613a39565b60ff19831686528186019350613a39565b613a0f8561448b565b60005b83811015613a3157815481890152600182019150602081019050613a12565b838801955050505b50505092915050565b6000613a4f6009836144d8565b9150613a5a8261497c565b600982019050919050565b6000613a72602b836144c7565b9150613a7d826149a5565b604082019050919050565b6000613a956032836144c7565b9150613aa0826149f4565b604082019050919050565b6000613ab86026836144c7565b9150613ac382614a43565b604082019050919050565b6000613adb6025836144c7565b9150613ae682614a92565b604082019050919050565b6000613afe600e836144c7565b9150613b0982614ae1565b602082019050919050565b6000613b21601c836144c7565b9150613b2c82614b0a565b602082019050919050565b6000613b44600f836144d8565b9150613b4f82614b33565b600f82019050919050565b6000613b676004836144d8565b9150613b7282614b5c565b600482019050919050565b6000613b8a6001836144d8565b9150613b9582614b85565b600182019050919050565b6000613bad600e836144c7565b9150613bb882614bae565b602082019050919050565b6000613bd06024836144c7565b9150613bdb82614bd7565b604082019050919050565b6000613bf36019836144c7565b9150613bfe82614c26565b602082019050919050565b6000613c166010836144c7565b9150613c2182614c4f565b602082019050919050565b6000613c396029836144c7565b9150613c4482614c78565b604082019050919050565b6000613c5c6008836144c7565b9150613c6782614cc7565b602082019050919050565b6000613c7f6002836144d8565b9150613c8a82614cf0565b600282019050919050565b6000613ca2603e836144c7565b9150613cad82614d19565b604082019050919050565b6000613cc56020836144c7565b9150613cd082614d68565b602082019050919050565b6000613ce8600d836144d8565b9150613cf382614d91565b600d82019050919050565b6000613d0b6001836144d8565b9150613d1682614dba565b600182019050919050565b6000613d2e6011836144c7565b9150613d3982614de3565b602082019050919050565b6000613d516012836144d8565b9150613d5c82614e0c565b601282019050919050565b6000613d746020836144c7565b9150613d7f82614e35565b602082019050919050565b6000613d976018836144c7565b9150613da282614e5e565b602082019050919050565b6000613dba6001836144d8565b9150613dc582614e87565b600182019050919050565b6000613ddd6021836144c7565b9150613de882614eb0565b604082019050919050565b6000613e00601d836144d8565b9150613e0b82614eff565b601d82019050919050565b6000613e236010836144d8565b9150613e2e82614f28565b601082019050919050565b6000613e46602c836144c7565b9150613e5182614f51565b604082019050919050565b6000613e69602e836144c7565b9150613e7482614fa0565b604082019050919050565b613e888161466c565b82525050565b6000613e9a82846138dc565b60148201915081905092915050565b6000613eb58285613992565b9150613ec18284613992565b91508190509392505050565b6000613ed98285613992565b9150613ee58284613992565b9150613ef082613b7d565b91508190509392505050565b6000613f088284613992565b9150613f1382613dad565b915081905092915050565b6000613f2a82856139c3565b9150613f368284613992565b9150613f4182613b5a565b91508190509392505050565b6000613f5882613a42565b9150613f648287613992565b9150613f6f82613d44565b9150613f7b8286613992565b9150613f8682613cdb565b9150613f928285613992565b9150613f9d82613b37565b9150613fa98284613992565b9150613fb482613cfe565b915081905095945050505050565b6000613fcd82613a42565b9150613fd98286613992565b9150613fe482613d44565b9150613ff08285613992565b9150613ffb82613cdb565b915061400782846139c3565b915061401282613c72565b9150819050949350505050565b600061402a82613df3565b91506140368284613992565b915081905092915050565b600061404c82613e16565b91506140588284613992565b915081905092915050565b600060208201905061407860008301846138cd565b92915050565b600060808201905061409360008301876138cd565b6140a060208301866138cd565b6140ad6040830185613e7f565b81810360608301526140bf8184613911565b905095945050505050565b60006020820190506140df60008301846138f3565b92915050565b60006020820190506140fa6000830184613902565b92915050565b6000602082019050614115600083018461394a565b92915050565b600060208201905081810360008301526141358184613959565b905092915050565b6000602082019050818103600083015261415681613a65565b9050919050565b6000602082019050818103600083015261417681613a88565b9050919050565b6000602082019050818103600083015261419681613aab565b9050919050565b600060208201905081810360008301526141b681613ace565b9050919050565b600060208201905081810360008301526141d681613af1565b9050919050565b600060208201905081810360008301526141f681613b14565b9050919050565b6000602082019050818103600083015261421681613ba0565b9050919050565b6000602082019050818103600083015261423681613bc3565b9050919050565b6000602082019050818103600083015261425681613be6565b9050919050565b6000602082019050818103600083015261427681613c09565b9050919050565b6000602082019050818103600083015261429681613c2c565b9050919050565b600060208201905081810360008301526142b681613c4f565b9050919050565b600060208201905081810360008301526142d681613c95565b9050919050565b600060208201905081810360008301526142f681613cb8565b9050919050565b6000602082019050818103600083015261431681613d21565b9050919050565b6000602082019050818103600083015261433681613d67565b9050919050565b6000602082019050818103600083015261435681613d8a565b9050919050565b6000602082019050818103600083015261437681613dd0565b9050919050565b6000602082019050818103600083015261439681613e39565b9050919050565b600060208201905081810360008301526143b681613e5c565b9050919050565b60006020820190506143d26000830184613e7f565b92915050565b60006143e26143f3565b90506143ee828261472d565b919050565b6000604051905090565b600067ffffffffffffffff82111561441857614417614911565b5b602082029050602081019050919050565b600067ffffffffffffffff82111561444457614443614911565b5b61444d8261495e565b9050602081019050919050565b600067ffffffffffffffff82111561447557614474614911565b5b61447e8261495e565b9050602081019050919050565b60008190508160005260206000209050919050565b600081519050919050565b600081519050919050565b600082825260208201905092915050565b600082825260208201905092915050565b600081905092915050565b60006144ee8261466c565b91506144f98361466c565b9250827fffffffffffffffffffffffffffffffffffffffffffffffffffffffffffffffff0382111561452e5761452d614826565b5b828201905092915050565b60006145448261466c565b915061454f8361466c565b92508261455f5761455e614855565b5b828204905092915050565b60006145758261466c565b91506145808361466c565b9250817fffffffffffffffffffffffffffffffffffffffffffffffffffffffffffffffff04831182151516156145b9576145b8614826565b5b828202905092915050565b60006145cf8261466c565b91506145da8361466c565b9250828210156145ed576145ec614826565b5b828203905092915050565b60006146038261464c565b9050919050565b60008115159050919050565b6000819050919050565b60007fffffffff0000000000000000000000000000000000000000000000000000000082169050919050565b600073ffffffffffffffffffffffffffffffffffffffff82169050919050565b6000819050919050565b600060ff82169050919050565b600061468e82614695565b9050919050565b60006146a0826146a7565b9050919050565b60006146b28261464c565b9050919050565b82818337600083830152505050565b60005b838110156146e65780820151818401526020810190506146cb565b838111156146f5576000848401525b50505050565b6000600282049050600182168061471357607f821691505b6020821081141561472757614726614884565b5b50919050565b6147368261495e565b810181811067ffffffffffffffff8211171561475557614754614911565b5b80604052505050565b60006147698261466c565b91507fffffffffffffffffffffffffffffffffffffffffffffffffffffffffffffffff82141561479c5761479b614826565b5b600182019050919050565b60006147b282614676565b915060ff8214156147c6576147c5614826565b5b600182019050919050565b60006147dc826147e3565b9050919050565b60006147ee8261496f565b9050919050565b60006148008261466c565b915061480b8361466c565b92508261481b5761481a614855565b5b828206905092915050565b7f4e487b7100000000000000000000000000000000000000000000000000000000600052601160045260246000fd5b7f4e487b7100000000000000000000000000000000000000000000000000000000600052601260045260246000fd5b7f4e487b7100000000000000000000000000000000000000000000000000000000600052602260045260246000fd5b7f4e487b7100000000000000000000000000000000000000000000000000000000600052603160045260246000fd5b7f4e487b7100000000000000000000000000000000000000000000000000000000600052603260045260246000fd5b7f4e487b7100000000000000000000000000000000000000000000000000000000600052604160045260246000fd5b600080fd5b600080fd5b600080fd5b600080fd5b600080fd5b600080fd5b6000601f19601f8301169050919050565b60008160601b9050919050565b7f7b226e616d65223a220000000000000000000000000000000000000000000000600082015250565b7f455243373231456e756d657261626c653a206f776e657220696e646578206f7560008201527f74206f6620626f756e6473000000000000000000000000000000000000000000602082015250565b7f4552433732313a207472616e7366657220746f206e6f6e20455243373231526560008201527f63656976657220696d706c656d656e7465720000000000000000000000000000602082015250565b7f4f776e61626c653a206e6577206f776e657220697320746865207a65726f206160008201527f6464726573730000000000000000000000000000000000000000000000000000602082015250565b7f4552433732313a207472616e736665722066726f6d20696e636f72726563742060008201527f6f776e6572000000000000000000000000000000000000000000000000000000602082015250565b7f6c696d6974206578636565646564000000000000000000000000000000000000600082015250565b7f4552433732313a20746f6b656e20616c7265616479206d696e74656400000000600082015250565b7f222c2261747472696275746573223a0000000000000000000000000000000000600082015250565b7f2e706e6700000000000000000000000000000000000000000000000000000000600082015250565b7f2c00000000000000000000000000000000000000000000000000000000000000600082015250565b7f696e76616c696420616d6f756e74000000000000000000000000000000000000600082015250565b7f4552433732313a207472616e7366657220746f20746865207a65726f2061646460008201527f7265737300000000000000000000000000000000000000000000000000000000602082015250565b7f4552433732313a20617070726f766520746f2063616c6c657200000000000000600082015250565b7f4e6f7420696e2077686974656c69737400000000000000000000000000000000600082015250565b7f4552433732313a2061646472657373207a65726f206973206e6f74206120766160008201527f6c6964206f776e65720000000000000000000000000000000000000000000000602082015250565b7f6e6f74206c697665000000000000000000000000000000000000000000000000600082015250565b7f227d000000000000000000000000000000000000000000000000000000000000600082015250565b7f4552433732313a20617070726f76652063616c6c6572206973206e6f7420746f60008201527f6b656e206f776e6572206e6f7220617070726f76656420666f7220616c6c0000602082015250565b7f4552433732313a206d696e7420746f20746865207a65726f2061646472657373600082015250565b7f222c2022696d616765223a202200000000000000000000000000000000000000600082015250565b7f7d00000000000000000000000000000000000000000000000000000000000000600082015250565b7f6e6f6e6578697374656e7420746f6b656e000000000000000000000000000000600082015250565b7f222c20226465736372697074696f6e223a220000000000000000000000000000600082015250565b7f4f776e61626c653a2063616c6c6572206973206e6f7420746865206f776e6572600082015250565b7f4552433732313a20696e76616c696420746f6b656e2049440000000000000000600082015250565b7f5d00000000000000000000000000000000000000000000000000000000000000600082015250565b7f4552433732313a20617070726f76616c20746f2063757272656e74206f776e6560008201527f7200000000000000000000000000000000000000000000000000000000000000602082015250565b7f646174613a6170706c69636174696f6e2f6a736f6e3b6261736536342c000000600082015250565b7f4b617473757261204f6a6973616e202300000000000000000000000000000000600082015250565b7f455243373231456e756d657261626c653a20676c6f62616c20696e646578206f60008201527f7574206f6620626f756e64730000000000000000000000000000000000000000602082015250565b7f4552433732313a2063616c6c6572206973206e6f7420746f6b656e206f776e6560008201527f72206e6f7220617070726f766564000000000000000000000000000000000000602082015250565b614ff8816145f8565b811461500357600080fd5b50565b61500f8161460a565b811461501a57600080fd5b50565b61502681614616565b811461503157600080fd5b50565b61503d81614620565b811461504857600080fd5b50565b6150548161466c565b811461505f57600080fd5b5056fe4142434445464748494a4b4c4d4e4f505152535455565758595a6162636465666768696a6b6c6d6e6f707172737475767778797a303132333435363738392b2fa2646970667358221220fdc2e70451ed8b332acbcdbd5eeafab58217e57e73676591d4cc995c4b638ff664736f6c63430008070033697066733a2f2f516d62464d6b65314b58716e5979424257784237344e34633553426e4a4d5641694d4e5263477536783141775148",
  "linkReferences": {},
  "deployedLinkReferences": {}
}