{
  "_format": "hh-sol-artifact-1",
  "contractName": "KatsuraOjisanAttribute",
  "sourceName": "contracts/KatsuraOjisanAttribute.sol",
  "abi": [
    {
      "anonymous": false,
      "inputs": [
        {
          "indexed": true,
          "internalType": "address",
          "name": "previousOwner",
          "type": "address"
        },
        {
          "indexed": true,
          "internalType": "address",
          "name": "newOwner",
          "type": "address"
        }
      ],
      "name": "OwnershipTransferred",
      "type": "event"
    },
    {
      "inputs": [
        {
          "internalType": "uint256",
          "name": "_token",
          "type": "uint256"
        },
        {
          "internalType": "string[]",
          "name": "_attribute",
          "type": "string[]"
        }
      ],
      "name": "addAttributes",
      "outputs": [],
      "stateMutability": "nonpayable",
      "type": "function"
    },
    {
      "inputs": [
        {
          "internalType": "uint256",
          "name": "_token",
          "type": "uint256"
        }
      ],
      "name": "getAttributes",
      "outputs": [
        {
          "internalType": "string[]",
          "name": "",
          "type": "string[]"
        }
      ],
      "stateMutability": "view",
      "type": "function"
    },
    {
      "inputs": [],
      "name": "isKatsuraOjisanAttribute",
      "outputs": [
        {
          "internalType": "bool",
          "name": "",
          "type": "bool"
        }
      ],
      "stateMutability": "view",
      "type": "function"
    },
    {
      "inputs": [],
      "name": "owner",
      "outputs": [
        {
          "internalType": "address",
          "name": "",
          "type": "address"
        }
      ],
      "stateMutability": "view",
      "type": "function"
    },
    {
      "inputs": [],
      "name": "renounceOwnership",
      "outputs": [],
      "stateMutability": "nonpayable",
      "type": "function"
    },
    {
      "inputs": [
        {
          "internalType": "address",
          "name": "newOwner",
          "type": "address"
        }
      ],
      "name": "transferOwnership",
      "outputs": [],
      "stateMutability": "nonpayable",
      "type": "function"
    }
  ],
  "bytecode": "0x60806040526001600060146101000a81548160ff02191690831515021790555034801561002b57600080fd5b5061004861003d61004d60201b60201c565b61005560201b60201c565b610119565b600033905090565b60008060009054906101000a900473ffffffffffffffffffffffffffffffffffffffff169050816000806101000a81548173ffffffffffffffffffffffffffffffffffffffff021916908373ffffffffffffffffffffffffffffffffffffffff1602179055508173ffffffffffffffffffffffffffffffffffffffff168173ffffffffffffffffffffffffffffffffffffffff167f8be0079c531659141344cd1fd0a4f28419497f9722a3daafe3b4186f6b6457e060405160405180910390a35050565b610c9b806101286000396000f3fe608060405234801561001057600080fd5b50600436106100625760003560e01c80634378a6e3146100675780636c15186614610097578063715018a6146100b35780638da5cb5b146100bd57806393c38bea146100db578063f2fde38b146100f9575b600080fd5b610081600480360381019061007c91906106c0565b610115565b60405161008e919061088e565b60405180910390f35b6100b160048036038101906100ac91906106ed565b610201565b005b6100bb610312565b005b6100c5610326565b6040516100d29190610873565b60405180910390f35b6100e361034f565b6040516100f091906108b0565b60405180910390f35b610113600480360381019061010e9190610693565b610362565b005b606060016000838152602001908152602001600020805480602002602001604051908101604052809291908181526020016000905b828210156101f657838290600052602060002001805461016990610a4f565b80601f016020809104026020016040519081016040528092919081815260200182805461019590610a4f565b80156101e25780601f106101b7576101008083540402835291602001916101e2565b820191906000526020600020905b8154815290600101906020018083116101c557829003601f168201915b50505050508152602001906001019061014a565b505050509050919050565b6102096103e6565b600060016000858152602001908152602001600020905060008180549050905060005b81811015610276578280548061024557610244610b28565b5b6001900381819060005260206000200160006102619190610530565b9055808061026e90610a81565b91505061022c565b5060005b8484905081101561030a57600160008781526020019081526020016000208585838181106102ab576102aa610b57565b5b90506020028101906102bd919061090b565b909180600181540180825580915050600190039060005260206000200160009091929091929091929091925091906102f6929190610570565b50808061030290610a81565b91505061027a565b505050505050565b61031a6103e6565b6103246000610464565b565b60008060009054906101000a900473ffffffffffffffffffffffffffffffffffffffff16905090565b600060149054906101000a900460ff1681565b61036a6103e6565b600073ffffffffffffffffffffffffffffffffffffffff168173ffffffffffffffffffffffffffffffffffffffff1614156103da576040517f08c379a00000000000000000000000000000000000000000000000000000000081526004016103d1906108cb565b60405180910390fd5b6103e381610464565b50565b6103ee610528565b73ffffffffffffffffffffffffffffffffffffffff1661040c610326565b73ffffffffffffffffffffffffffffffffffffffff1614610462576040517f08c379a0000000000000000000000000000000000000000000000000000000008152600401610459906108eb565b60405180910390fd5b565b60008060009054906101000a900473ffffffffffffffffffffffffffffffffffffffff169050816000806101000a81548173ffffffffffffffffffffffffffffffffffffffff021916908373ffffffffffffffffffffffffffffffffffffffff1602179055508173ffffffffffffffffffffffffffffffffffffffff168173ffffffffffffffffffffffffffffffffffffffff167f8be0079c531659141344cd1fd0a4f28419497f9722a3daafe3b4186f6b6457e060405160405180910390a35050565b600033905090565b50805461053c90610a4f565b6000825580601f1061054e575061056d565b601f01602090049060005260206000209081019061056c91906105f6565b5b50565b82805461057c90610a4f565b90600052602060002090601f01602090048101928261059e57600085556105e5565b82601f106105b757803560ff19168380011785556105e5565b828001600101855582156105e5579182015b828111156105e45782358255916020019190600101906105c9565b5b5090506105f291906105f6565b5090565b5b8082111561060f5760008160009055506001016105f7565b5090565b60008135905061062281610c37565b92915050565b60008083601f84011261063e5761063d610b8b565b5b8235905067ffffffffffffffff81111561065b5761065a610b86565b5b60208301915083602082028301111561067757610676610b9a565b5b9250929050565b60008135905061068d81610c4e565b92915050565b6000602082840312156106a9576106a8610ba9565b5b60006106b784828501610613565b91505092915050565b6000602082840312156106d6576106d5610ba9565b5b60006106e48482850161067e565b91505092915050565b60008060006040848603121561070657610705610ba9565b5b60006107148682870161067e565b935050602084013567ffffffffffffffff81111561073557610734610ba4565b5b61074186828701610628565b92509250509250925092565b600061075983836107f4565b905092915050565b61076a816109d4565b82525050565b600061077b8261097e565b61078581856109a1565b9350836020820285016107978561096e565b8060005b858110156107d357848403895281516107b4858261074d565b94506107bf83610994565b925060208a0199505060018101905061079b565b50829750879550505050505092915050565b6107ee816109e6565b82525050565b60006107ff82610989565b61080981856109b2565b9350610819818560208601610a1c565b61082281610bae565b840191505092915050565b600061083a6026836109c3565b915061084582610bbf565b604082019050919050565b600061085d6020836109c3565b915061086882610c0e565b602082019050919050565b60006020820190506108886000830184610761565b92915050565b600060208201905081810360008301526108a88184610770565b905092915050565b60006020820190506108c560008301846107e5565b92915050565b600060208201905081810360008301526108e48161082d565b9050919050565b6000602082019050818103600083015261090481610850565b9050919050565b6000808335600160200384360303811261092857610927610b95565b5b80840192508235915067ffffffffffffffff82111561094a57610949610b90565b5b60208301925060018202360383131561096657610965610b9f565b5b509250929050565b6000819050602082019050919050565b600081519050919050565b600081519050919050565b6000602082019050919050565b600082825260208201905092915050565b600082825260208201905092915050565b600082825260208201905092915050565b60006109df826109f2565b9050919050565b60008115159050919050565b600073ffffffffffffffffffffffffffffffffffffffff82169050919050565b6000819050919050565b60005b83811015610a3a578082015181840152602081019050610a1f565b83811115610a49576000848401525b50505050565b60006002820490506001821680610a6757607f821691505b60208210811415610a7b57610a7a610af9565b5b50919050565b6000610a8c82610a12565b91507fffffffffffffffffffffffffffffffffffffffffffffffffffffffffffffffff821415610abf57610abe610aca565b5b600182019050919050565b7f4e487b7100000000000000000000000000000000000000000000000000000000600052601160045260246000fd5b7f4e487b7100000000000000000000000000000000000000000000000000000000600052602260045260246000fd5b7f4e487b7100000000000000000000000000000000000000000000000000000000600052603160045260246000fd5b7f4e487b7100000000000000000000000000000000000000000000000000000000600052603260045260246000fd5b600080fd5b600080fd5b600080fd5b600080fd5b600080fd5b600080fd5b600080fd5b600080fd5b6000601f19601f8301169050919050565b7f4f776e61626c653a206e6577206f776e657220697320746865207a65726f206160008201527f6464726573730000000000000000000000000000000000000000000000000000602082015250565b7f4f776e61626c653a2063616c6c6572206973206e6f7420746865206f776e6572600082015250565b610c40816109d4565b8114610c4b57600080fd5b50565b610c5781610a12565b8114610c6257600080fd5b5056fea26469706673582212207fea6f4701d0f6068d95e6a20574e84e888578c912894eac722022c03b39448464736f6c63430008070033",
  "linkReferences": {},
  "deployedLinkReferences": {}
}