{
  "_format": "hh-sol-artifact-1",
  "contractName": "KatsuraOjisanExtraCondition",
  "sourceName": "contracts/KatsuraOjisanExtraCondition.sol",
  "abi": [
    {
      "anonymous": false,
      "inputs": [
        {
          "indexed": true,
          "internalType": "address",
          "name": "previousOwner",
          "type": "address"
        },
        {
          "indexed": true,
          "internalType": "address",
          "name": "newOwner",
          "type": "address"
        }
      ],
      "name": "OwnershipTransferred",
      "type": "event"
    },
    {
      "inputs": [
        {
          "internalType": "address",
          "name": "_address",
          "type": "address"
        }
      ],
      "name": "EventCondition",
      "outputs": [
        {
          "internalType": "bool",
          "name": "",
          "type": "bool"
        }
      ],
      "stateMutability": "view",
      "type": "function"
    },
    {
      "inputs": [
        {
          "internalType": "address",
          "name": "_address",
          "type": "address"
        }
      ],
      "name": "SetContract",
      "outputs": [],
      "stateMutability": "nonpayable",
      "type": "function"
    },
    {
      "inputs": [],
      "name": "katsuraOjisanContract",
      "outputs": [
        {
          "internalType": "contract IKatsuraOjisan",
          "name": "",
          "type": "address"
        }
      ],
      "stateMutability": "view",
      "type": "function"
    },
    {
      "inputs": [],
      "name": "owner",
      "outputs": [
        {
          "internalType": "address",
          "name": "",
          "type": "address"
        }
      ],
      "stateMutability": "view",
      "type": "function"
    },
    {
      "inputs": [],
      "name": "renounceOwnership",
      "outputs": [],
      "stateMutability": "nonpayable",
      "type": "function"
    },
    {
      "inputs": [
        {
          "internalType": "address",
          "name": "newOwner",
          "type": "address"
        }
      ],
      "name": "transferOwnership",
      "outputs": [],
      "stateMutability": "nonpayable",
      "type": "function"
    }
  ],
  "bytecode": "0x608060405234801561001057600080fd5b5061002d61002261003260201b60201c565b61003a60201b60201c565b6100fe565b600033905090565b60008060009054906101000a900473ffffffffffffffffffffffffffffffffffffffff169050816000806101000a81548173ffffffffffffffffffffffffffffffffffffffff021916908373ffffffffffffffffffffffffffffffffffffffff1602179055508173ffffffffffffffffffffffffffffffffffffffff168173ffffffffffffffffffffffffffffffffffffffff167f8be0079c531659141344cd1fd0a4f28419497f9722a3daafe3b4186f6b6457e060405160405180910390a35050565b6107408061010d6000396000f3fe608060405234801561001057600080fd5b50600436106100625760003560e01c80633bc12d6014610067578063715018a614610085578063774697fe1461008f5780638da5cb5b146100bf578063d2aadb3c146100dd578063f2fde38b146100f9575b600080fd5b61006f610115565b60405161007c9190610575565b60405180910390f35b61008d61013b565b005b6100a960048036038101906100a49190610472565b61014f565b6040516100b6919061055a565b60405180910390f35b6100c7610205565b6040516100d4919061053f565b60405180910390f35b6100f760048036038101906100f29190610472565b61022e565b005b610113600480360381019061010e9190610472565b61027a565b005b600160009054906101000a900473ffffffffffffffffffffffffffffffffffffffff1681565b6101436102fe565b61014d600061037c565b565b600080600160009054906101000a900473ffffffffffffffffffffffffffffffffffffffff1673ffffffffffffffffffffffffffffffffffffffff166370a08231846040518263ffffffff1660e01b81526004016101ad919061053f565b60206040518083038186803b1580156101c557600080fd5b505afa1580156101d9573d6000803e3d6000fd5b505050506040513d601f19601f820116820180604052508101906101fd919061049f565b119050919050565b60008060009054906101000a900473ffffffffffffffffffffffffffffffffffffffff16905090565b6102366102fe565b80600160006101000a81548173ffffffffffffffffffffffffffffffffffffffff021916908373ffffffffffffffffffffffffffffffffffffffff16021790555050565b6102826102fe565b600073ffffffffffffffffffffffffffffffffffffffff168173ffffffffffffffffffffffffffffffffffffffff1614156102f2576040517f08c379a00000000000000000000000000000000000000000000000000000000081526004016102e990610590565b60405180910390fd5b6102fb8161037c565b50565b610306610440565b73ffffffffffffffffffffffffffffffffffffffff16610324610205565b73ffffffffffffffffffffffffffffffffffffffff161461037a576040517f08c379a0000000000000000000000000000000000000000000000000000000008152600401610371906105b0565b60405180910390fd5b565b60008060009054906101000a900473ffffffffffffffffffffffffffffffffffffffff169050816000806101000a81548173ffffffffffffffffffffffffffffffffffffffff021916908373ffffffffffffffffffffffffffffffffffffffff1602179055508173ffffffffffffffffffffffffffffffffffffffff168173ffffffffffffffffffffffffffffffffffffffff167f8be0079c531659141344cd1fd0a4f28419497f9722a3daafe3b4186f6b6457e060405160405180910390a35050565b600033905090565b600081359050610457816106dc565b92915050565b60008151905061046c816106f3565b92915050565b6000602082840312156104885761048761065f565b5b600061049684828501610448565b91505092915050565b6000602082840312156104b5576104b461065f565b5b60006104c38482850161045d565b91505092915050565b6104d5816105e1565b82525050565b6104e4816105f3565b82525050565b6104f381610629565b82525050565b60006105066026836105d0565b915061051182610664565b604082019050919050565b60006105296020836105d0565b9150610534826106b3565b602082019050919050565b600060208201905061055460008301846104cc565b92915050565b600060208201905061056f60008301846104db565b92915050565b600060208201905061058a60008301846104ea565b92915050565b600060208201905081810360008301526105a9816104f9565b9050919050565b600060208201905081810360008301526105c98161051c565b9050919050565b600082825260208201905092915050565b60006105ec826105ff565b9050919050565b60008115159050919050565b600073ffffffffffffffffffffffffffffffffffffffff82169050919050565b6000819050919050565b60006106348261063b565b9050919050565b60006106468261064d565b9050919050565b6000610658826105ff565b9050919050565b600080fd5b7f4f776e61626c653a206e6577206f776e657220697320746865207a65726f206160008201527f6464726573730000000000000000000000000000000000000000000000000000602082015250565b7f4f776e61626c653a2063616c6c6572206973206e6f7420746865206f776e6572600082015250565b6106e5816105e1565b81146106f057600080fd5b50565b6106fc8161061f565b811461070757600080fd5b5056fea2646970667358221220cef384458a38fc907363d82d2309be10ac1fe66f1dfd7ec0f88b71fd2274c02464736f6c63430008070033",
  "linkReferences": {},
  "deployedLinkReferences": {}
}