{
  "_format": "hh-sol-artifact-1",
  "contractName": "Greeter",
  "sourceName": "contracts/Greeter.sol",
  "abi": [
    {
      "inputs": [],
      "name": "greet",
      "outputs": [
        {
          "internalType": "string",
          "name": "",
          "type": "string"
        }
      ],
      "stateMutability": "view",
      "type": "function"
    },
    {
      "inputs": [
        {
          "internalType": "string",
          "name": "_greeting",
          "type": "string"
        }
      ],
      "name": "setGreeting",
      "outputs": [],
      "stateMutability": "nonpayable",
      "type": "function"
    }
  ],
  "bytecode": "0x60806040526040518060400160405280600581526020017f68656c6c6f0000000000000000000000000000000000000000000000000000008152506000908051906020019061004f929190610062565b5034801561005c57600080fd5b50610166565b82805461006e90610105565b90600052602060002090601f01602090048101928261009057600085556100d7565b82601f106100a957805160ff19168380011785556100d7565b828001600101855582156100d7579182015b828111156100d65782518255916020019190600101906100bb565b5b5090506100e491906100e8565b5090565b5b808211156101015760008160009055506001016100e9565b5090565b6000600282049050600182168061011d57607f821691505b6020821081141561013157610130610137565b5b50919050565b7f4e487b7100000000000000000000000000000000000000000000000000000000600052602260045260246000fd5b61068c806101756000396000f3fe608060405234801561001057600080fd5b50600436106100365760003560e01c8063a41368621461003b578063cfae321714610057575b600080fd5b610055600480360381019061005091906103a9565b610075565b005b61005f61013c565b60405161006c919061042b565b60405180910390f35b610122604051806060016040528060238152602001610634602391396000805461009e9061054d565b80601f01602080910402602001604051908101604052809291908181526020018280546100ca9061054d565b80156101175780601f106100ec57610100808354040283529160200191610117565b820191906000526020600020905b8154815290600101906020018083116100fa57829003601f168201915b5050505050836101ce565b8060009080519060200190610138929190610296565b5050565b60606000805461014b9061054d565b80601f01602080910402602001604051908101604052809291908181526020018280546101779061054d565b80156101c45780601f10610199576101008083540402835291602001916101c4565b820191906000526020600020905b8154815290600101906020018083116101a757829003601f168201915b5050505050905090565b6102688383836040516024016101e69392919061044d565b6040516020818303038152906040527f2ced7cef000000000000000000000000000000000000000000000000000000007bffffffffffffffffffffffffffffffffffffffffffffffffffffffff19166020820180517bffffffffffffffffffffffffffffffffffffffffffffffffffffffff838183161783525050505061026d565b505050565b60008151905060006a636f6e736f6c652e6c6f679050602083016000808483855afa5050505050565b8280546102a29061054d565b90600052602060002090601f0160209004810192826102c4576000855561030b565b82601f106102dd57805160ff191683800117855561030b565b8280016001018555821561030b579182015b8281111561030a5782518255916020019190600101906102ef565b5b509050610318919061031c565b5090565b5b8082111561033557600081600090555060010161031d565b5090565b600061034c610347846104be565b610499565b90508281526020810184848401111561036857610367610613565b5b61037384828561050b565b509392505050565b600082601f8301126103905761038f61060e565b5b81356103a0848260208601610339565b91505092915050565b6000602082840312156103bf576103be61061d565b5b600082013567ffffffffffffffff8111156103dd576103dc610618565b5b6103e98482850161037b565b91505092915050565b60006103fd826104ef565b61040781856104fa565b935061041781856020860161051a565b61042081610622565b840191505092915050565b6000602082019050818103600083015261044581846103f2565b905092915050565b6000606082019050818103600083015261046781866103f2565b9050818103602083015261047b81856103f2565b9050818103604083015261048f81846103f2565b9050949350505050565b60006104a36104b4565b90506104af828261057f565b919050565b6000604051905090565b600067ffffffffffffffff8211156104d9576104d86105df565b5b6104e282610622565b9050602081019050919050565b600081519050919050565b600082825260208201905092915050565b82818337600083830152505050565b60005b8381101561053857808201518184015260208101905061051d565b83811115610547576000848401525b50505050565b6000600282049050600182168061056557607f821691505b60208210811415610579576105786105b0565b5b50919050565b61058882610622565b810181811067ffffffffffffffff821117156105a7576105a66105df565b5b80604052505050565b7f4e487b7100000000000000000000000000000000000000000000000000000000600052602260045260246000fd5b7f4e487b7100000000000000000000000000000000000000000000000000000000600052604160045260246000fd5b600080fd5b600080fd5b600080fd5b600080fd5b6000601f19601f830116905091905056fe4368616e67696e67206772656574696e672066726f6d202725732720746f2027257327a2646970667358221220b9fb77b95139c6d9e98a530934a865005c3c80bcd4ef2dfc1fc76044dc32020d64736f6c63430008070033",
  "linkReferences": {},
  "deployedLinkReferences": {}
}