{
  "_format": "hh-sol-artifact-1",
  "contractName": "KatsuraOjisanExtra",
  "sourceName": "contracts/KatsuraOjisanExtra.sol",
  "abi": [
    {
      "inputs": [],
      "stateMutability": "nonpayable",
      "type": "constructor"
    },
    {
      "anonymous": false,
      "inputs": [
        {
          "indexed": true,
          "internalType": "address",
          "name": "owner",
          "type": "address"
        },
        {
          "indexed": true,
          "internalType": "address",
          "name": "approved",
          "type": "address"
        },
        {
          "indexed": true,
          "internalType": "uint256",
          "name": "tokenId",
          "type": "uint256"
        }
      ],
      "name": "Approval",
      "type": "event"
    },
    {
      "anonymous": false,
      "inputs": [
        {
          "indexed": true,
          "internalType": "address",
          "name": "owner",
          "type": "address"
        },
        {
          "indexed": true,
          "internalType": "address",
          "name": "operator",
          "type": "address"
        },
        {
          "indexed": false,
          "internalType": "bool",
          "name": "approved",
          "type": "bool"
        }
      ],
      "name": "ApprovalForAll",
      "type": "event"
    },
    {
      "anonymous": false,
      "inputs": [
        {
          "indexed": true,
          "internalType": "address",
          "name": "previousOwner",
          "type": "address"
        },
        {
          "indexed": true,
          "internalType": "address",
          "name": "newOwner",
          "type": "address"
        }
      ],
      "name": "OwnershipTransferred",
      "type": "event"
    },
    {
      "anonymous": false,
      "inputs": [
        {
          "indexed": true,
          "internalType": "address",
          "name": "from",
          "type": "address"
        },
        {
          "indexed": true,
          "internalType": "address",
          "name": "to",
          "type": "address"
        },
        {
          "indexed": true,
          "internalType": "uint256",
          "name": "tokenId",
          "type": "uint256"
        }
      ],
      "name": "Transfer",
      "type": "event"
    },
    {
      "inputs": [
        {
          "internalType": "uint256",
          "name": "_eventId",
          "type": "uint256"
        },
        {
          "internalType": "uint256",
          "name": "_token",
          "type": "uint256"
        },
        {
          "internalType": "uint256",
          "name": "_count",
          "type": "uint256"
        }
      ],
      "name": "AddCollection",
      "outputs": [],
      "stateMutability": "nonpayable",
      "type": "function"
    },
    {
      "inputs": [
        {
          "internalType": "uint256",
          "name": "_eventId",
          "type": "uint256"
        }
      ],
      "name": "RemoveCollection",
      "outputs": [],
      "stateMutability": "nonpayable",
      "type": "function"
    },
    {
      "inputs": [
        {
          "internalType": "uint256",
          "name": "_eventId",
          "type": "uint256"
        },
        {
          "internalType": "bool",
          "name": "_isActive",
          "type": "bool"
        }
      ],
      "name": "activeEvent",
      "outputs": [],
      "stateMutability": "nonpayable",
      "type": "function"
    },
    {
      "inputs": [
        {
          "internalType": "uint256",
          "name": "_eventId",
          "type": "uint256"
        },
        {
          "internalType": "uint256",
          "name": "_maxSupply",
          "type": "uint256"
        },
        {
          "internalType": "uint256",
          "name": "_maxMintsPerAddress",
          "type": "uint256"
        },
        {
          "internalType": "string",
          "name": "_uri",
          "type": "string"
        },
        {
          "internalType": "address",
          "name": "_conditionContract",
          "type": "address"
        },
        {
          "internalType": "bool",
          "name": "_isSame",
          "type": "bool"
        },
        {
          "internalType": "bool",
          "name": "_isRandom",
          "type": "bool"
        }
      ],
      "name": "addEvent",
      "outputs": [],
      "stateMutability": "nonpayable",
      "type": "function"
    },
    {
      "inputs": [
        {
          "internalType": "address",
          "name": "to",
          "type": "address"
        },
        {
          "internalType": "uint256",
          "name": "tokenId",
          "type": "uint256"
        }
      ],
      "name": "approve",
      "outputs": [],
      "stateMutability": "nonpayable",
      "type": "function"
    },
    {
      "inputs": [
        {
          "internalType": "address",
          "name": "owner",
          "type": "address"
        }
      ],
      "name": "balanceOf",
      "outputs": [
        {
          "internalType": "uint256",
          "name": "",
          "type": "uint256"
        }
      ],
      "stateMutability": "view",
      "type": "function"
    },
    {
      "inputs": [
        {
          "internalType": "uint256",
          "name": "",
          "type": "uint256"
        },
        {
          "internalType": "uint256",
          "name": "",
          "type": "uint256"
        }
      ],
      "name": "collections",
      "outputs": [
        {
          "internalType": "uint256",
          "name": "",
          "type": "uint256"
        }
      ],
      "stateMutability": "view",
      "type": "function"
    },
    {
      "inputs": [
        {
          "internalType": "uint256",
          "name": "_eventId",
          "type": "uint256"
        },
        {
          "internalType": "address",
          "name": "_address",
          "type": "address"
        }
      ],
      "name": "conditionCheck",
      "outputs": [
        {
          "internalType": "bool",
          "name": "",
          "type": "bool"
        }
      ],
      "stateMutability": "view",
      "type": "function"
    },
    {
      "inputs": [
        {
          "internalType": "uint256",
          "name": "_eventId",
          "type": "uint256"
        },
        {
          "internalType": "uint256",
          "name": "_mintAmount",
          "type": "uint256"
        }
      ],
      "name": "eventCheck",
      "outputs": [
        {
          "internalType": "bool",
          "name": "",
          "type": "bool"
        }
      ],
      "stateMutability": "view",
      "type": "function"
    },
    {
      "inputs": [
        {
          "internalType": "uint256",
          "name": "",
          "type": "uint256"
        }
      ],
      "name": "events",
      "outputs": [
        {
          "internalType": "uint256",
          "name": "maxSupply",
          "type": "uint256"
        },
        {
          "internalType": "uint256",
          "name": "supply",
          "type": "uint256"
        },
        {
          "internalType": "uint256",
          "name": "maxMintsPerAddress",
          "type": "uint256"
        },
        {
          "internalType": "bool",
          "name": "isActive",
          "type": "bool"
        },
        {
          "internalType": "bool",
          "name": "isSame",
          "type": "bool"
        },
        {
          "internalType": "bool",
          "name": "isRandom",
          "type": "bool"
        },
        {
          "internalType": "string",
          "name": "uri",
          "type": "string"
        },
        {
          "internalType": "address",
          "name": "conditionContract",
          "type": "address"
        }
      ],
      "stateMutability": "view",
      "type": "function"
    },
    {
      "inputs": [
        {
          "internalType": "uint256",
          "name": "tokenId",
          "type": "uint256"
        }
      ],
      "name": "getApproved",
      "outputs": [
        {
          "internalType": "address",
          "name": "",
          "type": "address"
        }
      ],
      "stateMutability": "view",
      "type": "function"
    },
    {
      "inputs": [
        {
          "internalType": "uint256",
          "name": "_eventId",
          "type": "uint256"
        },
        {
          "internalType": "address",
          "name": "_address",
          "type": "address"
        }
      ],
      "name": "getEventBalance",
      "outputs": [
        {
          "internalType": "uint256",
          "name": "",
          "type": "uint256"
        }
      ],
      "stateMutability": "view",
      "type": "function"
    },
    {
      "inputs": [
        {
          "internalType": "address",
          "name": "owner",
          "type": "address"
        },
        {
          "internalType": "address",
          "name": "operator",
          "type": "address"
        }
      ],
      "name": "isApprovedForAll",
      "outputs": [
        {
          "internalType": "bool",
          "name": "",
          "type": "bool"
        }
      ],
      "stateMutability": "view",
      "type": "function"
    },
    {
      "inputs": [],
      "name": "maxMintPerTX",
      "outputs": [
        {
          "internalType": "uint256",
          "name": "",
          "type": "uint256"
        }
      ],
      "stateMutability": "view",
      "type": "function"
    },
    {
      "inputs": [
        {
          "internalType": "uint256",
          "name": "_eventId",
          "type": "uint256"
        },
        {
          "internalType": "uint256",
          "name": "_mintAmount",
          "type": "uint256"
        }
      ],
      "name": "mintKatsuraOjisanExtra",
      "outputs": [],
      "stateMutability": "nonpayable",
      "type": "function"
    },
    {
      "inputs": [],
      "name": "name",
      "outputs": [
        {
          "internalType": "string",
          "name": "",
          "type": "string"
        }
      ],
      "stateMutability": "view",
      "type": "function"
    },
    {
      "inputs": [],
      "name": "owner",
      "outputs": [
        {
          "internalType": "address",
          "name": "",
          "type": "address"
        }
      ],
      "stateMutability": "view",
      "type": "function"
    },
    {
      "inputs": [
        {
          "internalType": "uint256",
          "name": "tokenId",
          "type": "uint256"
        }
      ],
      "name": "ownerOf",
      "outputs": [
        {
          "internalType": "address",
          "name": "",
          "type": "address"
        }
      ],
      "stateMutability": "view",
      "type": "function"
    },
    {
      "inputs": [
        {
          "internalType": "uint256",
          "name": "",
          "type": "uint256"
        }
      ],
      "name": "realTokens",
      "outputs": [
        {
          "internalType": "uint256",
          "name": "",
          "type": "uint256"
        }
      ],
      "stateMutability": "view",
      "type": "function"
    },
    {
      "inputs": [],
      "name": "renounceOwnership",
      "outputs": [],
      "stateMutability": "nonpayable",
      "type": "function"
    },
    {
      "inputs": [
        {
          "internalType": "address",
          "name": "from",
          "type": "address"
        },
        {
          "internalType": "address",
          "name": "to",
          "type": "address"
        },
        {
          "internalType": "uint256",
          "name": "tokenId",
          "type": "uint256"
        }
      ],
      "name": "safeTransferFrom",
      "outputs": [],
      "stateMutability": "nonpayable",
      "type": "function"
    },
    {
      "inputs": [
        {
          "internalType": "address",
          "name": "from",
          "type": "address"
        },
        {
          "internalType": "address",
          "name": "to",
          "type": "address"
        },
        {
          "internalType": "uint256",
          "name": "tokenId",
          "type": "uint256"
        },
        {
          "internalType": "bytes",
          "name": "data",
          "type": "bytes"
        }
      ],
      "name": "safeTransferFrom",
      "outputs": [],
      "stateMutability": "nonpayable",
      "type": "function"
    },
    {
      "inputs": [
        {
          "internalType": "address",
          "name": "operator",
          "type": "address"
        },
        {
          "internalType": "bool",
          "name": "approved",
          "type": "bool"
        }
      ],
      "name": "setApprovalForAll",
      "outputs": [],
      "stateMutability": "nonpayable",
      "type": "function"
    },
    {
      "inputs": [
        {
          "internalType": "bytes4",
          "name": "interfaceId",
          "type": "bytes4"
        }
      ],
      "name": "supportsInterface",
      "outputs": [
        {
          "internalType": "bool",
          "name": "",
          "type": "bool"
        }
      ],
      "stateMutability": "view",
      "type": "function"
    },
    {
      "inputs": [],
      "name": "symbol",
      "outputs": [
        {
          "internalType": "string",
          "name": "",
          "type": "string"
        }
      ],
      "stateMutability": "view",
      "type": "function"
    },
    {
      "inputs": [
        {
          "internalType": "uint256",
          "name": "index",
          "type": "uint256"
        }
      ],
      "name": "tokenByIndex",
      "outputs": [
        {
          "internalType": "uint256",
          "name": "",
          "type": "uint256"
        }
      ],
      "stateMutability": "view",
      "type": "function"
    },
    {
      "inputs": [
        {
          "internalType": "address",
          "name": "owner",
          "type": "address"
        },
        {
          "internalType": "uint256",
          "name": "index",
          "type": "uint256"
        }
      ],
      "name": "tokenOfOwnerByIndex",
      "outputs": [
        {
          "internalType": "uint256",
          "name": "",
          "type": "uint256"
        }
      ],
      "stateMutability": "view",
      "type": "function"
    },
    {
      "inputs": [
        {
          "internalType": "uint256",
          "name": "",
          "type": "uint256"
        }
      ],
      "name": "tokenTypes",
      "outputs": [
        {
          "internalType": "uint256",
          "name": "",
          "type": "uint256"
        }
      ],
      "stateMutability": "view",
      "type": "function"
    },
    {
      "inputs": [
        {
          "internalType": "uint256",
          "name": "_tokenId",
          "type": "uint256"
        }
      ],
      "name": "tokenURI",
      "outputs": [
        {
          "internalType": "string",
          "name": "",
          "type": "string"
        }
      ],
      "stateMutability": "view",
      "type": "function"
    },
    {
      "inputs": [],
      "name": "totalSupply",
      "outputs": [
        {
          "internalType": "uint256",
          "name": "",
          "type": "uint256"
        }
      ],
      "stateMutability": "view",
      "type": "function"
    },
    {
      "inputs": [
        {
          "internalType": "address",
          "name": "from",
          "type": "address"
        },
        {
          "internalType": "address",
          "name": "to",
          "type": "address"
        },
        {
          "internalType": "uint256",
          "name": "tokenId",
          "type": "uint256"
        }
      ],
      "name": "transferFrom",
      "outputs": [],
      "stateMutability": "nonpayable",
      "type": "function"
    },
    {
      "inputs": [
        {
          "internalType": "address",
          "name": "newOwner",
          "type": "address"
        }
      ],
      "name": "transferOwnership",
      "outputs": [],
      "stateMutability": "nonpayable",
      "type": "function"
    }
  ],
  "bytecode": "0x60806040526005600f553480156200001657600080fd5b506040518060400160405280601481526020017f4b617473757261204f6a6973616e2045787472610000000000000000000000008152506040518060400160405280600381526020017f4b4f58000000000000000000000000000000000000000000000000000000000081525081600090805190602001906200009b929190620001ab565b508060019080519060200190620000b4929190620001ab565b505050620000d7620000cb620000dd60201b60201c565b620000e560201b60201c565b620002c0565b600033905090565b6000600a60009054906101000a900473ffffffffffffffffffffffffffffffffffffffff16905081600a60006101000a81548173ffffffffffffffffffffffffffffffffffffffff021916908373ffffffffffffffffffffffffffffffffffffffff1602179055508173ffffffffffffffffffffffffffffffffffffffff168173ffffffffffffffffffffffffffffffffffffffff167f8be0079c531659141344cd1fd0a4f28419497f9722a3daafe3b4186f6b6457e060405160405180910390a35050565b828054620001b9906200025b565b90600052602060002090601f016020900481019282620001dd576000855562000229565b82601f10620001f857805160ff191683800117855562000229565b8280016001018555821562000229579182015b82811115620002285782518255916020019190600101906200020b565b5b5090506200023891906200023c565b5090565b5b80821115620002575760008160009055506001016200023d565b5090565b600060028204905060018216806200027457607f821691505b602082108114156200028b576200028a62000291565b5b50919050565b7f4e487b7100000000000000000000000000000000000000000000000000000000600052602260045260246000fd5b61439780620002d06000396000f3fe608060405234801561001057600080fd5b50600436106101f05760003560e01c806370a082311161010f578063c18de7fc116100a2578063db06942f11610071578063db06942f14610608578063e985e9c514610638578063f2fde38b14610668578063f432f4ce14610684576101f0565b8063c18de7fc14610570578063c61dafbe146105a0578063c7430868146105bc578063c87b56dd146105d8576101f0565b80638ff9b86a116100de5780638ff9b86a146104ea57806395d89b411461051a578063a22cb46514610538578063b88d4fde14610554576101f0565b806370a0823114610462578063715018a6146104925780637697c5121461049c5780638da5cb5b146104cc576101f0565b80631b9c61d01161018757806342842e0e1161015657806342842e0e146103c85780634f6ccce7146103e4578063553f241e146104145780636352211e14610432576101f0565b80631b9c61d01461031c57806323b872dd1461034c5780632f745c591461036857806333f6832a14610398576101f0565b8063095ea7b3116101c3578063095ea7b31461028f5780630b791430146102ab57806310fff722146102e257806318160ddd146102fe576101f0565b806301ffc9a7146101f5578063040a56051461022557806306fdde0314610241578063081812fc1461025f575b600080fd5b61020f600480360381019061020a9190612ec4565b6106a0565b60405161021c919061364f565b60405180910390f35b61023f600480360381019061023a9190612f8b565b61071a565b005b61024961075a565b604051610256919061366a565b60405180910390f35b61027960048036038101906102749190612f1e565b6107ec565b60405161028691906135e8565b60405180910390f35b6102a960048036038101906102a49190612e57565b610832565b005b6102c560048036038101906102c09190612f1e565b61094a565b6040516102d9989796959493929190613927565b60405180910390f35b6102fc60048036038101906102f7919061305e565b610a61565b005b610306610b95565b604051610313919061390c565b60405180910390f35b61033660048036038101906103319190612f4b565b610ba2565b604051610343919061364f565b60405180910390f35b61036660048036038101906103619190612d41565b610c76565b005b610382600480360381019061037d9190612e57565b610cd6565b60405161038f919061390c565b60405180910390f35b6103b260048036038101906103ad9190612f1e565b610d7b565b6040516103bf919061390c565b60405180910390f35b6103e260048036038101906103dd9190612d41565b610d93565b005b6103fe60048036038101906103f99190612f1e565b610db3565b60405161040b919061390c565b60405180910390f35b61041c610e24565b604051610429919061390c565b60405180910390f35b61044c60048036038101906104479190612f1e565b610e2a565b60405161045991906135e8565b60405180910390f35b61047c60048036038101906104779190612cd4565b610edc565b604051610489919061390c565b60405180910390f35b61049a610f94565b005b6104b660048036038101906104b19190612fcb565b610fa8565b6040516104c3919061390c565b60405180910390f35b6104d4610fd9565b6040516104e191906135e8565b60405180910390f35b61050460048036038101906104ff9190612f4b565b611003565b604051610511919061390c565b60405180910390f35b610522611066565b60405161052f919061366a565b60405180910390f35b610552600480360381019061054d9190612e17565b6110f8565b005b61056e60048036038101906105699190612d94565b61110e565b005b61058a60048036038101906105859190612f1e565b611170565b604051610597919061390c565b60405180910390f35b6105ba60048036038101906105b59190612f1e565b611188565b005b6105d660048036038101906105d1919061300b565b6111b2565b005b6105f260048036038101906105ed9190612f1e565b611218565b6040516105ff919061366a565b60405180910390f35b610622600480360381019061061d9190612fcb565b611388565b60405161062f919061364f565b60405180910390f35b610652600480360381019061064d9190612d01565b611436565b60405161065f919061364f565b60405180910390f35b610682600480360381019061067d9190612cd4565b6114ca565b005b61069e60048036038101906106999190612fcb565b61154e565b005b60007f780e9d63000000000000000000000000000000000000000000000000000000007bffffffffffffffffffffffffffffffffffffffffffffffffffffffff1916827bffffffffffffffffffffffffffffffffffffffffffffffffffffffff1916148061071357506107128261186d565b5b9050919050565b61072261194f565b6000600b60008481526020019081526020016000209050818160030160006101000a81548160ff021916908315150217905550505050565b60606000805461076990613bcb565b80601f016020809104026020016040519081016040528092919081815260200182805461079590613bcb565b80156107e25780601f106107b7576101008083540402835291602001916107e2565b820191906000526020600020905b8154815290600101906020018083116107c557829003601f168201915b5050505050905090565b60006107f7826119cd565b6004600083815260200190815260200160002060009054906101000a900473ffffffffffffffffffffffffffffffffffffffff169050919050565b600061083d82610e2a565b90508073ffffffffffffffffffffffffffffffffffffffff168373ffffffffffffffffffffffffffffffffffffffff1614156108ae576040517f08c379a00000000000000000000000000000000000000000000000000000000081526004016108a59061386c565b60405180910390fd5b8073ffffffffffffffffffffffffffffffffffffffff166108cd611a18565b73ffffffffffffffffffffffffffffffffffffffff1614806108fc57506108fb816108f6611a18565b611436565b5b61093b576040517f08c379a0000000000000000000000000000000000000000000000000000000008152600401610932906137cc565b60405180910390fd5b6109458383611a20565b505050565b600b6020528060005260406000206000915090508060000154908060010154908060020154908060030160009054906101000a900460ff16908060030160019054906101000a900460ff16908060030160029054906101000a900460ff16908060040180546109b890613bcb565b80601f01602080910402602001604051908101604052809291908181526020018280546109e490613bcb565b8015610a315780601f10610a0657610100808354040283529160200191610a31565b820191906000526020600020905b815481529060010190602001808311610a1457829003601f168201915b5050505050908060050160009054906101000a900473ffffffffffffffffffffffffffffffffffffffff16905088565b610a6961194f565b81158015610a745750805b15610ad257600e6000898152602001908152602001600020805490508714610ad1576040517f08c379a0000000000000000000000000000000000000000000000000000000008152600401610ac89061388c565b60405180910390fd5b5b6000600b60008a815260200190815260200160002090508781600001819055508681600201819055508585826004019190610b0e929190612acc565b50838160050160006101000a81548173ffffffffffffffffffffffffffffffffffffffff021916908373ffffffffffffffffffffffffffffffffffffffff160217905550828160030160016101000a81548160ff021916908315150217905550818160030160026101000a81548160ff021916908315150217905550505050505050505050565b6000600880549050905090565b600080600b6000858152602001908152602001600020905060008160050160009054906101000a900473ffffffffffffffffffffffffffffffffffffffff1690508073ffffffffffffffffffffffffffffffffffffffff1663774697fe856040518263ffffffff1660e01b8152600401610c1c91906135e8565b60206040518083038186803b158015610c3457600080fd5b505afa158015610c48573d6000803e3d6000fd5b505050506040513d601f19601f82011682018060405250810190610c6c9190612e97565b9250505092915050565b610c87610c81611a18565b82611ad9565b610cc6576040517f08c379a0000000000000000000000000000000000000000000000000000000008152600401610cbd906138ec565b60405180910390fd5b610cd1838383611b6e565b505050565b6000610ce183610edc565b8210610d22576040517f08c379a0000000000000000000000000000000000000000000000000000000008152600401610d19906136ac565b60405180910390fd5b600660008473ffffffffffffffffffffffffffffffffffffffff1673ffffffffffffffffffffffffffffffffffffffff168152602001908152602001600020600083815260200190815260200160002054905092915050565b600d6020528060005260406000206000915090505481565b610dae8383836040518060200160405280600081525061110e565b505050565b6000610dbd610b95565b8210610dfe576040517f08c379a0000000000000000000000000000000000000000000000000000000008152600401610df5906138ac565b60405180910390fd5b60088281548110610e1257610e11613d92565b5b90600052602060002001549050919050565b600f5481565b6000806002600084815260200190815260200160002060009054906101000a900473ffffffffffffffffffffffffffffffffffffffff169050600073ffffffffffffffffffffffffffffffffffffffff168173ffffffffffffffffffffffffffffffffffffffff161415610ed3576040517f08c379a0000000000000000000000000000000000000000000000000000000008152600401610eca9061384c565b60405180910390fd5b80915050919050565b60008073ffffffffffffffffffffffffffffffffffffffff168273ffffffffffffffffffffffffffffffffffffffff161415610f4d576040517f08c379a0000000000000000000000000000000000000000000000000000000008152600401610f44906137ac565b60405180910390fd5b600360008373ffffffffffffffffffffffffffffffffffffffff1673ffffffffffffffffffffffffffffffffffffffff168152602001908152602001600020549050919050565b610f9c61194f565b610fa66000611dd5565b565b600e6020528160005260406000208181548110610fc457600080fd5b90600052602060002001600091509150505481565b6000600a60009054906101000a900473ffffffffffffffffffffffffffffffffffffffff16905090565b600080600b600085815260200190815260200160002090508060060160008473ffffffffffffffffffffffffffffffffffffffff1673ffffffffffffffffffffffffffffffffffffffff1681526020019081526020016000205491505092915050565b60606001805461107590613bcb565b80601f01602080910402602001604051908101604052809291908181526020018280546110a190613bcb565b80156110ee5780601f106110c3576101008083540402835291602001916110ee565b820191906000526020600020905b8154815290600101906020018083116110d157829003601f168201915b5050505050905090565b61110a611103611a18565b8383611e9b565b5050565b61111f611119611a18565b83611ad9565b61115e576040517f08c379a0000000000000000000000000000000000000000000000000000000008152600401611155906138ec565b60405180910390fd5b61116a84848484612008565b50505050565b600c6020528060005260406000206000915090505481565b61119061194f565b600e600082815260200190815260200160002060006111af9190612b52565b50565b6111ba61194f565b60005b8181101561121257600e6000858152602001908152602001600020839080600181540180825580915050600190039060005260206000200160009091909190915055808061120a90613c2e565b9150506111bd565b50505050565b606061122382612064565b611262576040517f08c379a00000000000000000000000000000000000000000000000000000000081526004016112599061380c565b60405180910390fd5b6000611280600c6000858152602001908152602001600020546120d0565b90506000600b6000600d600087815260200190815260200160002054815260200190815260200160002090508060030160019054906101000a900460ff1615611359578060040180546112d290613bcb565b80601f01602080910402602001604051908101604052809291908181526020018280546112fe90613bcb565b801561134b5780601f106113205761010080835404028352916020019161134b565b820191906000526020600020905b81548152906001019060200180831161132e57829003601f168201915b505050505092505050611383565b806004018260405160200161136f92919061357c565b604051602081830303815290604052925050505b919050565b600080600b600085815260200190815260200160002090508060030160009054906101000a900460ff1680156113d1575080600001548382600101546113ce9190613a5a565b11155b801561142d57508060020154838260060160003373ffffffffffffffffffffffffffffffffffffffff1673ffffffffffffffffffffffffffffffffffffffff1681526020019081526020016000205461142a9190613a5a565b11155b91505092915050565b6000600560008473ffffffffffffffffffffffffffffffffffffffff1673ffffffffffffffffffffffffffffffffffffffff16815260200190815260200160002060008373ffffffffffffffffffffffffffffffffffffffff1673ffffffffffffffffffffffffffffffffffffffff16815260200190815260200160002060009054906101000a900460ff16905092915050565b6114d261194f565b600073ffffffffffffffffffffffffffffffffffffffff168173ffffffffffffffffffffffffffffffffffffffff161415611542576040517f08c379a0000000000000000000000000000000000000000000000000000000008152600401611539906136ec565b60405180910390fd5b61154b81611dd5565b50565b6000811180156115605750600f548111155b61159f576040517f08c379a00000000000000000000000000000000000000000000000000000000081526004016115969061374c565b60405180910390fd5b6115a98282611388565b6115e8576040517f08c379a00000000000000000000000000000000000000000000000000000000081526004016115df9061368c565b60405180910390fd5b6115f28233610ba2565b611631576040517f08c379a0000000000000000000000000000000000000000000000000000000008152600401611628906138cc565b60405180910390fd5b6000600b6000848152602001908152602001600020905060008160010154611657610b95565b6116619190613a5a565b90506000600e600086815260200190815260200160002090506000600190505b84811161186557600081846116969190613a5a565b90508460010160008154809291906116ad90613c2e565b91905055508460060160003373ffffffffffffffffffffffffffffffffffffffff1673ffffffffffffffffffffffffffffffffffffffff168152602001908152602001600020600081548092919061170490613c2e565b919050555086600d6000838152602001908152602001600020819055508460030160029054906101000a900460ff161561182a5760008380549050423384604051602001611754939291906135ab565b6040516020818303038152906040528051906020012060001c6117779190613ca5565b905083818154811061178c5761178b613d92565b5b9060005260206000200154600c60008481526020019081526020016000208190555083600185805490506117c09190613ae1565b815481106117d1576117d0613d92565b5b90600052602060002001548482815481106117ef576117ee613d92565b5b90600052602060002001819055508380548061180e5761180d613d63565b5b6001900381819060005260206000200160009055905550611847565b8460010154600c6000838152602001908152602001600020819055505b6118513382612231565b50808061185d90613c2e565b915050611681565b505050505050565b60007f80ac58cd000000000000000000000000000000000000000000000000000000007bffffffffffffffffffffffffffffffffffffffffffffffffffffffff1916827bffffffffffffffffffffffffffffffffffffffffffffffffffffffff1916148061193857507f5b5e139f000000000000000000000000000000000000000000000000000000007bffffffffffffffffffffffffffffffffffffffffffffffffffffffff1916827bffffffffffffffffffffffffffffffffffffffffffffffffffffffff1916145b8061194857506119478261224f565b5b9050919050565b611957611a18565b73ffffffffffffffffffffffffffffffffffffffff16611975610fd9565b73ffffffffffffffffffffffffffffffffffffffff16146119cb576040517f08c379a00000000000000000000000000000000000000000000000000000000081526004016119c29061382c565b60405180910390fd5b565b6119d681612064565b611a15576040517f08c379a0000000000000000000000000000000000000000000000000000000008152600401611a0c9061384c565b60405180910390fd5b50565b600033905090565b816004600083815260200190815260200160002060006101000a81548173ffffffffffffffffffffffffffffffffffffffff021916908373ffffffffffffffffffffffffffffffffffffffff160217905550808273ffffffffffffffffffffffffffffffffffffffff16611a9383610e2a565b73ffffffffffffffffffffffffffffffffffffffff167f8c5be1e5ebec7d5bd14f71427d1e84f3dd0314c0f7b2291e5b200ac8c7c3b92560405160405180910390a45050565b600080611ae583610e2a565b90508073ffffffffffffffffffffffffffffffffffffffff168473ffffffffffffffffffffffffffffffffffffffff161480611b275750611b268185611436565b5b80611b6557508373ffffffffffffffffffffffffffffffffffffffff16611b4d846107ec565b73ffffffffffffffffffffffffffffffffffffffff16145b91505092915050565b8273ffffffffffffffffffffffffffffffffffffffff16611b8e82610e2a565b73ffffffffffffffffffffffffffffffffffffffff1614611be4576040517f08c379a0000000000000000000000000000000000000000000000000000000008152600401611bdb9061370c565b60405180910390fd5b600073ffffffffffffffffffffffffffffffffffffffff168273ffffffffffffffffffffffffffffffffffffffff161415611c54576040517f08c379a0000000000000000000000000000000000000000000000000000000008152600401611c4b9061376c565b60405180910390fd5b611c5f8383836122b9565b611c6a600082611a20565b6001600360008573ffffffffffffffffffffffffffffffffffffffff1673ffffffffffffffffffffffffffffffffffffffff1681526020019081526020016000206000828254611cba9190613ae1565b925050819055506001600360008473ffffffffffffffffffffffffffffffffffffffff1673ffffffffffffffffffffffffffffffffffffffff1681526020019081526020016000206000828254611d119190613a5a565b92505081905550816002600083815260200190815260200160002060006101000a81548173ffffffffffffffffffffffffffffffffffffffff021916908373ffffffffffffffffffffffffffffffffffffffff160217905550808273ffffffffffffffffffffffffffffffffffffffff168473ffffffffffffffffffffffffffffffffffffffff167fddf252ad1be2c89b69c2b068fc378daa952ba7f163c4a11628f55a4df523b3ef60405160405180910390a4611dd08383836123cd565b505050565b6000600a60009054906101000a900473ffffffffffffffffffffffffffffffffffffffff16905081600a60006101000a81548173ffffffffffffffffffffffffffffffffffffffff021916908373ffffffffffffffffffffffffffffffffffffffff1602179055508173ffffffffffffffffffffffffffffffffffffffff168173ffffffffffffffffffffffffffffffffffffffff167f8be0079c531659141344cd1fd0a4f28419497f9722a3daafe3b4186f6b6457e060405160405180910390a35050565b8173ffffffffffffffffffffffffffffffffffffffff168373ffffffffffffffffffffffffffffffffffffffff161415611f0a576040517f08c379a0000000000000000000000000000000000000000000000000000000008152600401611f019061378c565b60405180910390fd5b80600560008573ffffffffffffffffffffffffffffffffffffffff1673ffffffffffffffffffffffffffffffffffffffff16815260200190815260200160002060008473ffffffffffffffffffffffffffffffffffffffff1673ffffffffffffffffffffffffffffffffffffffff16815260200190815260200160002060006101000a81548160ff0219169083151502179055508173ffffffffffffffffffffffffffffffffffffffff168373ffffffffffffffffffffffffffffffffffffffff167f17307eab39ab6107e8899845ad3d59bd9653f200f220920489ca2b5937696c3183604051611ffb919061364f565b60405180910390a3505050565b612013848484611b6e565b61201f848484846123d2565b61205e576040517f08c379a0000000000000000000000000000000000000000000000000000000008152600401612055906136cc565b60405180910390fd5b50505050565b60008073ffffffffffffffffffffffffffffffffffffffff166002600084815260200190815260200160002060009054906101000a900473ffffffffffffffffffffffffffffffffffffffff1673ffffffffffffffffffffffffffffffffffffffff1614159050919050565b60606000821415612118576040518060400160405280600181526020017f3000000000000000000000000000000000000000000000000000000000000000815250905061222c565b600082905060005b6000821461214a57808061213390613c2e565b915050600a826121439190613ab0565b9150612120565b60008167ffffffffffffffff81111561216657612165613dc1565b5b6040519080825280601f01601f1916602001820160405280156121985781602001600182028036833780820191505090505b5090505b60008514612225576001826121b19190613ae1565b9150600a856121c09190613ca5565b60306121cc9190613a5a565b60f81b8183815181106121e2576121e1613d92565b5b60200101907effffffffffffffffffffffffffffffffffffffffffffffffffffffffffffff1916908160001a905350600a8561221e9190613ab0565b945061219c565b8093505050505b919050565b61224b828260405180602001604052806000815250612569565b5050565b60007f01ffc9a7000000000000000000000000000000000000000000000000000000007bffffffffffffffffffffffffffffffffffffffffffffffffffffffff1916827bffffffffffffffffffffffffffffffffffffffffffffffffffffffff1916149050919050565b6122c48383836125c4565b600073ffffffffffffffffffffffffffffffffffffffff168373ffffffffffffffffffffffffffffffffffffffff16141561230757612302816125c9565b612346565b8173ffffffffffffffffffffffffffffffffffffffff168373ffffffffffffffffffffffffffffffffffffffff1614612345576123448382612612565b5b5b600073ffffffffffffffffffffffffffffffffffffffff168273ffffffffffffffffffffffffffffffffffffffff161415612389576123848161277f565b6123c8565b8273ffffffffffffffffffffffffffffffffffffffff168273ffffffffffffffffffffffffffffffffffffffff16146123c7576123c68282612850565b5b5b505050565b505050565b60006123f38473ffffffffffffffffffffffffffffffffffffffff166128cf565b1561255c578373ffffffffffffffffffffffffffffffffffffffff1663150b7a0261241c611a18565b8786866040518563ffffffff1660e01b815260040161243e9493929190613603565b602060405180830381600087803b15801561245857600080fd5b505af192505050801561248957506040513d601f19601f820116820180604052508101906124869190612ef1565b60015b61250c573d80600081146124b9576040519150601f19603f3d011682016040523d82523d6000602084013e6124be565b606091505b50600081511415612504576040517f08c379a00000000000000000000000000000000000000000000000000000000081526004016124fb906136cc565b60405180910390fd5b805181602001fd5b63150b7a0260e01b7bffffffffffffffffffffffffffffffffffffffffffffffffffffffff1916817bffffffffffffffffffffffffffffffffffffffffffffffffffffffff191614915050612561565b600190505b949350505050565b61257383836128f2565b61258060008484846123d2565b6125bf576040517f08c379a00000000000000000000000000000000000000000000000000000000081526004016125b6906136cc565b60405180910390fd5b505050565b505050565b6008805490506009600083815260200190815260200160002081905550600881908060018154018082558091505060019003906000526020600020016000909190919091505550565b6000600161261f84610edc565b6126299190613ae1565b905060006007600084815260200190815260200160002054905081811461270e576000600660008673ffffffffffffffffffffffffffffffffffffffff1673ffffffffffffffffffffffffffffffffffffffff168152602001908152602001600020600084815260200190815260200160002054905080600660008773ffffffffffffffffffffffffffffffffffffffff1673ffffffffffffffffffffffffffffffffffffffff168152602001908152602001600020600084815260200190815260200160002081905550816007600083815260200190815260200160002081905550505b6007600084815260200190815260200160002060009055600660008573ffffffffffffffffffffffffffffffffffffffff1673ffffffffffffffffffffffffffffffffffffffff16815260200190815260200160002060008381526020019081526020016000206000905550505050565b600060016008805490506127939190613ae1565b90506000600960008481526020019081526020016000205490506000600883815481106127c3576127c2613d92565b5b9060005260206000200154905080600883815481106127e5576127e4613d92565b5b90600052602060002001819055508160096000838152602001908152602001600020819055506009600085815260200190815260200160002060009055600880548061283457612833613d63565b5b6001900381819060005260206000200160009055905550505050565b600061285b83610edc565b905081600660008573ffffffffffffffffffffffffffffffffffffffff1673ffffffffffffffffffffffffffffffffffffffff168152602001908152602001600020600083815260200190815260200160002081905550806007600084815260200190815260200160002081905550505050565b6000808273ffffffffffffffffffffffffffffffffffffffff163b119050919050565b600073ffffffffffffffffffffffffffffffffffffffff168273ffffffffffffffffffffffffffffffffffffffff161415612962576040517f08c379a0000000000000000000000000000000000000000000000000000000008152600401612959906137ec565b60405180910390fd5b61296b81612064565b156129ab576040517f08c379a00000000000000000000000000000000000000000000000000000000081526004016129a29061372c565b60405180910390fd5b6129b7600083836122b9565b6001600360008473ffffffffffffffffffffffffffffffffffffffff1673ffffffffffffffffffffffffffffffffffffffff1681526020019081526020016000206000828254612a079190613a5a565b92505081905550816002600083815260200190815260200160002060006101000a81548173ffffffffffffffffffffffffffffffffffffffff021916908373ffffffffffffffffffffffffffffffffffffffff160217905550808273ffffffffffffffffffffffffffffffffffffffff16600073ffffffffffffffffffffffffffffffffffffffff167fddf252ad1be2c89b69c2b068fc378daa952ba7f163c4a11628f55a4df523b3ef60405160405180910390a4612ac8600083836123cd565b5050565b828054612ad890613bcb565b90600052602060002090601f016020900481019282612afa5760008555612b41565b82601f10612b1357803560ff1916838001178555612b41565b82800160010185558215612b41579182015b82811115612b40578235825591602001919060010190612b25565b5b509050612b4e9190612b73565b5090565b5080546000825590600052602060002090810190612b709190612b73565b50565b5b80821115612b8c576000816000905550600101612b74565b5090565b6000612ba3612b9e846139d1565b6139ac565b905082815260208101848484011115612bbf57612bbe613dff565b5b612bca848285613b89565b509392505050565b600081359050612be181614305565b92915050565b600081359050612bf68161431c565b92915050565b600081519050612c0b8161431c565b92915050565b600081359050612c2081614333565b92915050565b600081519050612c3581614333565b92915050565b600082601f830112612c5057612c4f613df5565b5b8135612c60848260208601612b90565b91505092915050565b60008083601f840112612c7f57612c7e613df5565b5b8235905067ffffffffffffffff811115612c9c57612c9b613df0565b5b602083019150836001820283011115612cb857612cb7613dfa565b5b9250929050565b600081359050612cce8161434a565b92915050565b600060208284031215612cea57612ce9613e09565b5b6000612cf884828501612bd2565b91505092915050565b60008060408385031215612d1857612d17613e09565b5b6000612d2685828601612bd2565b9250506020612d3785828601612bd2565b9150509250929050565b600080600060608486031215612d5a57612d59613e09565b5b6000612d6886828701612bd2565b9350506020612d7986828701612bd2565b9250506040612d8a86828701612cbf565b9150509250925092565b60008060008060808587031215612dae57612dad613e09565b5b6000612dbc87828801612bd2565b9450506020612dcd87828801612bd2565b9350506040612dde87828801612cbf565b925050606085013567ffffffffffffffff811115612dff57612dfe613e04565b5b612e0b87828801612c3b565b91505092959194509250565b60008060408385031215612e2e57612e2d613e09565b5b6000612e3c85828601612bd2565b9250506020612e4d85828601612be7565b9150509250929050565b60008060408385031215612e6e57612e6d613e09565b5b6000612e7c85828601612bd2565b9250506020612e8d85828601612cbf565b9150509250929050565b600060208284031215612ead57612eac613e09565b5b6000612ebb84828501612bfc565b91505092915050565b600060208284031215612eda57612ed9613e09565b5b6000612ee884828501612c11565b91505092915050565b600060208284031215612f0757612f06613e09565b5b6000612f1584828501612c26565b91505092915050565b600060208284031215612f3457612f33613e09565b5b6000612f4284828501612cbf565b91505092915050565b60008060408385031215612f6257612f61613e09565b5b6000612f7085828601612cbf565b9250506020612f8185828601612bd2565b9150509250929050565b60008060408385031215612fa257612fa1613e09565b5b6000612fb085828601612cbf565b9250506020612fc185828601612be7565b9150509250929050565b60008060408385031215612fe257612fe1613e09565b5b6000612ff085828601612cbf565b925050602061300185828601612cbf565b9150509250929050565b60008060006060848603121561302457613023613e09565b5b600061303286828701612cbf565b935050602061304386828701612cbf565b925050604061305486828701612cbf565b9150509250925092565b60008060008060008060008060e0898b03121561307e5761307d613e09565b5b600061308c8b828c01612cbf565b985050602061309d8b828c01612cbf565b97505060406130ae8b828c01612cbf565b965050606089013567ffffffffffffffff8111156130cf576130ce613e04565b5b6130db8b828c01612c69565b955095505060806130ee8b828c01612bd2565b93505060a06130ff8b828c01612be7565b92505060c06131108b828c01612be7565b9150509295985092959890939650565b61312981613b15565b82525050565b61314061313b82613b15565b613c77565b82525050565b61314f81613b27565b82525050565b600061316082613a17565b61316a8185613a2d565b935061317a818560208601613b98565b61318381613e0e565b840191505092915050565b600061319982613a22565b6131a38185613a3e565b93506131b3818560208601613b98565b6131bc81613e0e565b840191505092915050565b60006131d282613a22565b6131dc8185613a4f565b93506131ec818560208601613b98565b80840191505092915050565b6000815461320581613bcb565b61320f8186613a4f565b9450600182166000811461322a576001811461323b5761326e565b60ff1983168652818601935061326e565b61324485613a02565b60005b8381101561326657815481890152600182019150602081019050613247565b838801955050505b50505092915050565b6000613284601283613a3e565b915061328f82613e2c565b602082019050919050565b60006132a7602b83613a3e565b91506132b282613e55565b604082019050919050565b60006132ca603283613a3e565b91506132d582613ea4565b604082019050919050565b60006132ed602683613a3e565b91506132f882613ef3565b604082019050919050565b6000613310602583613a3e565b915061331b82613f42565b604082019050919050565b6000613333601c83613a3e565b915061333e82613f91565b602082019050919050565b6000613356600e83613a3e565b915061336182613fba565b602082019050919050565b6000613379602483613a3e565b915061338482613fe3565b604082019050919050565b600061339c601983613a3e565b91506133a782614032565b602082019050919050565b60006133bf602983613a3e565b91506133ca8261405b565b604082019050919050565b60006133e2603e83613a3e565b91506133ed826140aa565b604082019050919050565b6000613405602083613a3e565b9150613410826140f9565b602082019050919050565b6000613428601183613a3e565b915061343382614122565b602082019050919050565b600061344b600583613a4f565b91506134568261414b565b600582019050919050565b600061346e602083613a3e565b915061347982614174565b602082019050919050565b6000613491601883613a3e565b915061349c8261419d565b602082019050919050565b60006134b4602183613a3e565b91506134bf826141c6565b604082019050919050565b60006134d7601283613a3e565b91506134e282614215565b602082019050919050565b60006134fa602c83613a3e565b91506135058261423e565b604082019050919050565b600061351d601683613a3e565b91506135288261428d565b602082019050919050565b6000613540602e83613a3e565b915061354b826142b6565b604082019050919050565b61355f81613b7f565b82525050565b61357661357182613b7f565b613c9b565b82525050565b600061358882856131f8565b915061359482846131c7565b915061359f8261343e565b91508190509392505050565b60006135b78286613565565b6020820191506135c7828561312f565b6014820191506135d78284613565565b602082019150819050949350505050565b60006020820190506135fd6000830184613120565b92915050565b60006080820190506136186000830187613120565b6136256020830186613120565b6136326040830185613556565b81810360608301526136448184613155565b905095945050505050565b60006020820190506136646000830184613146565b92915050565b60006020820190508181036000830152613684818461318e565b905092915050565b600060208201905081810360008301526136a581613277565b9050919050565b600060208201905081810360008301526136c58161329a565b9050919050565b600060208201905081810360008301526136e5816132bd565b9050919050565b60006020820190508181036000830152613705816132e0565b9050919050565b6000602082019050818103600083015261372581613303565b9050919050565b6000602082019050818103600083015261374581613326565b9050919050565b6000602082019050818103600083015261376581613349565b9050919050565b600060208201905081810360008301526137858161336c565b9050919050565b600060208201905081810360008301526137a58161338f565b9050919050565b600060208201905081810360008301526137c5816133b2565b9050919050565b600060208201905081810360008301526137e5816133d5565b9050919050565b60006020820190508181036000830152613805816133f8565b9050919050565b600060208201905081810360008301526138258161341b565b9050919050565b6000602082019050818103600083015261384581613461565b9050919050565b6000602082019050818103600083015261386581613484565b9050919050565b60006020820190508181036000830152613885816134a7565b9050919050565b600060208201905081810360008301526138a5816134ca565b9050919050565b600060208201905081810360008301526138c5816134ed565b9050919050565b600060208201905081810360008301526138e581613510565b9050919050565b6000602082019050818103600083015261390581613533565b9050919050565b60006020820190506139216000830184613556565b92915050565b60006101008201905061393d600083018b613556565b61394a602083018a613556565b6139576040830189613556565b6139646060830188613146565b6139716080830187613146565b61397e60a0830186613146565b81810360c0830152613990818561318e565b905061399f60e0830184613120565b9998505050505050505050565b60006139b66139c7565b90506139c28282613bfd565b919050565b6000604051905090565b600067ffffffffffffffff8211156139ec576139eb613dc1565b5b6139f582613e0e565b9050602081019050919050565b60008190508160005260206000209050919050565b600081519050919050565b600081519050919050565b600082825260208201905092915050565b600082825260208201905092915050565b600081905092915050565b6000613a6582613b7f565b9150613a7083613b7f565b9250827fffffffffffffffffffffffffffffffffffffffffffffffffffffffffffffffff03821115613aa557613aa4613cd6565b5b828201905092915050565b6000613abb82613b7f565b9150613ac683613b7f565b925082613ad657613ad5613d05565b5b828204905092915050565b6000613aec82613b7f565b9150613af783613b7f565b925082821015613b0a57613b09613cd6565b5b828203905092915050565b6000613b2082613b5f565b9050919050565b60008115159050919050565b60007fffffffff0000000000000000000000000000000000000000000000000000000082169050919050565b600073ffffffffffffffffffffffffffffffffffffffff82169050919050565b6000819050919050565b82818337600083830152505050565b60005b83811015613bb6578082015181840152602081019050613b9b565b83811115613bc5576000848401525b50505050565b60006002820490506001821680613be357607f821691505b60208210811415613bf757613bf6613d34565b5b50919050565b613c0682613e0e565b810181811067ffffffffffffffff82111715613c2557613c24613dc1565b5b80604052505050565b6000613c3982613b7f565b91507fffffffffffffffffffffffffffffffffffffffffffffffffffffffffffffffff821415613c6c57613c6b613cd6565b5b600182019050919050565b6000613c8282613c89565b9050919050565b6000613c9482613e1f565b9050919050565b6000819050919050565b6000613cb082613b7f565b9150613cbb83613b7f565b925082613ccb57613cca613d05565b5b828206905092915050565b7f4e487b7100000000000000000000000000000000000000000000000000000000600052601160045260246000fd5b7f4e487b7100000000000000000000000000000000000000000000000000000000600052601260045260246000fd5b7f4e487b7100000000000000000000000000000000000000000000000000000000600052602260045260246000fd5b7f4e487b7100000000000000000000000000000000000000000000000000000000600052603160045260246000fd5b7f4e487b7100000000000000000000000000000000000000000000000000000000600052603260045260246000fd5b7f4e487b7100000000000000000000000000000000000000000000000000000000600052604160045260246000fd5b600080fd5b600080fd5b600080fd5b600080fd5b600080fd5b600080fd5b6000601f19601f8301169050919050565b60008160601b9050919050565b7f4576656e7420636865636b206661696c65640000000000000000000000000000600082015250565b7f455243373231456e756d657261626c653a206f776e657220696e646578206f7560008201527f74206f6620626f756e6473000000000000000000000000000000000000000000602082015250565b7f4552433732313a207472616e7366657220746f206e6f6e20455243373231526560008201527f63656976657220696d706c656d656e7465720000000000000000000000000000602082015250565b7f4f776e61626c653a206e6577206f776e657220697320746865207a65726f206160008201527f6464726573730000000000000000000000000000000000000000000000000000602082015250565b7f4552433732313a207472616e736665722066726f6d20696e636f72726563742060008201527f6f776e6572000000000000000000000000000000000000000000000000000000602082015250565b7f4552433732313a20746f6b656e20616c7265616479206d696e74656400000000600082015250565b7f696e76616c696420616d6f756e74000000000000000000000000000000000000600082015250565b7f4552433732313a207472616e7366657220746f20746865207a65726f2061646460008201527f7265737300000000000000000000000000000000000000000000000000000000602082015250565b7f4552433732313a20617070726f766520746f2063616c6c657200000000000000600082015250565b7f4552433732313a2061646472657373207a65726f206973206e6f74206120766160008201527f6c6964206f776e65720000000000000000000000000000000000000000000000602082015250565b7f4552433732313a20617070726f76652063616c6c6572206973206e6f7420746f60008201527f6b656e206f776e6572206e6f7220617070726f76656420666f7220616c6c0000602082015250565b7f4552433732313a206d696e7420746f20746865207a65726f2061646472657373600082015250565b7f6e6f6e6578697374656e7420746f6b656e000000000000000000000000000000600082015250565b7f2e6a736f6e000000000000000000000000000000000000000000000000000000600082015250565b7f4f776e61626c653a2063616c6c6572206973206e6f7420746865206f776e6572600082015250565b7f4552433732313a20696e76616c696420746f6b656e2049440000000000000000600082015250565b7f4552433732313a20617070726f76616c20746f2063757272656e74206f776e6560008201527f7200000000000000000000000000000000000000000000000000000000000000602082015250565b7f6e6f74206d61746368207175616e746974790000000000000000000000000000600082015250565b7f455243373231456e756d657261626c653a20676c6f62616c20696e646578206f60008201527f7574206f6620626f756e64730000000000000000000000000000000000000000602082015250565b7f436f6e646974696f6e20636865636b206661696c656400000000000000000000600082015250565b7f4552433732313a2063616c6c6572206973206e6f7420746f6b656e206f776e6560008201527f72206e6f7220617070726f766564000000000000000000000000000000000000602082015250565b61430e81613b15565b811461431957600080fd5b50565b61432581613b27565b811461433057600080fd5b50565b61433c81613b33565b811461434757600080fd5b50565b61435381613b7f565b811461435e57600080fd5b5056fea264697066735822122068a28bd1303270a6cd9711a1fa4caf04a7ef6f67c1327badcb299e31add1fca764736f6c63430008070033",
  "linkReferences": {},
  "deployedLinkReferences": {}
}