{
  "_format": "hh-sol-artifact-1",
  "contractName": "KatsuraOjisanExtra",
  "sourceName": "contracts/KatsuraOjisanExtra.sol",
  "abi": [
    {
      "inputs": [],
      "stateMutability": "nonpayable",
      "type": "constructor"
    },
    {
      "anonymous": false,
      "inputs": [
        {
          "indexed": true,
          "internalType": "address",
          "name": "owner",
          "type": "address"
        },
        {
          "indexed": true,
          "internalType": "address",
          "name": "approved",
          "type": "address"
        },
        {
          "indexed": true,
          "internalType": "uint256",
          "name": "tokenId",
          "type": "uint256"
        }
      ],
      "name": "Approval",
      "type": "event"
    },
    {
      "anonymous": false,
      "inputs": [
        {
          "indexed": true,
          "internalType": "address",
          "name": "owner",
          "type": "address"
        },
        {
          "indexed": true,
          "internalType": "address",
          "name": "operator",
          "type": "address"
        },
        {
          "indexed": false,
          "internalType": "bool",
          "name": "approved",
          "type": "bool"
        }
      ],
      "name": "ApprovalForAll",
      "type": "event"
    },
    {
      "anonymous": false,
      "inputs": [
        {
          "indexed": true,
          "internalType": "address",
          "name": "previousOwner",
          "type": "address"
        },
        {
          "indexed": true,
          "internalType": "address",
          "name": "newOwner",
          "type": "address"
        }
      ],
      "name": "OwnershipTransferred",
      "type": "event"
    },
    {
      "anonymous": false,
      "inputs": [
        {
          "indexed": true,
          "internalType": "address",
          "name": "from",
          "type": "address"
        },
        {
          "indexed": true,
          "internalType": "address",
          "name": "to",
          "type": "address"
        },
        {
          "indexed": true,
          "internalType": "uint256",
          "name": "tokenId",
          "type": "uint256"
        }
      ],
      "name": "Transfer",
      "type": "event"
    },
    {
      "inputs": [
        {
          "internalType": "uint256",
          "name": "_eventId",
          "type": "uint256"
        },
        {
          "internalType": "bool",
          "name": "_isActive",
          "type": "bool"
        }
      ],
      "name": "activeEvent",
      "outputs": [],
      "stateMutability": "nonpayable",
      "type": "function"
    },
    {
      "inputs": [
        {
          "internalType": "uint256",
          "name": "_eventId",
          "type": "uint256"
        },
        {
          "internalType": "uint256",
          "name": "_maxSupply",
          "type": "uint256"
        },
        {
          "internalType": "uint256",
          "name": "_maxMintsPerAddress",
          "type": "uint256"
        },
        {
          "internalType": "string",
          "name": "_uri",
          "type": "string"
        },
        {
          "internalType": "address",
          "name": "_conditionContract",
          "type": "address"
        },
        {
          "internalType": "bool",
          "name": "_isSame",
          "type": "bool"
        }
      ],
      "name": "addEvent",
      "outputs": [],
      "stateMutability": "nonpayable",
      "type": "function"
    },
    {
      "inputs": [
        {
          "internalType": "address",
          "name": "to",
          "type": "address"
        },
        {
          "internalType": "uint256",
          "name": "tokenId",
          "type": "uint256"
        }
      ],
      "name": "approve",
      "outputs": [],
      "stateMutability": "nonpayable",
      "type": "function"
    },
    {
      "inputs": [
        {
          "internalType": "address",
          "name": "owner",
          "type": "address"
        }
      ],
      "name": "balanceOf",
      "outputs": [
        {
          "internalType": "uint256",
          "name": "",
          "type": "uint256"
        }
      ],
      "stateMutability": "view",
      "type": "function"
    },
    {
      "inputs": [
        {
          "internalType": "uint256",
          "name": "_eventId",
          "type": "uint256"
        },
        {
          "internalType": "address",
          "name": "_address",
          "type": "address"
        }
      ],
      "name": "conditionCheck",
      "outputs": [
        {
          "internalType": "bool",
          "name": "",
          "type": "bool"
        }
      ],
      "stateMutability": "view",
      "type": "function"
    },
    {
      "inputs": [
        {
          "internalType": "uint256",
          "name": "_eventId",
          "type": "uint256"
        },
        {
          "internalType": "uint256",
          "name": "_mintAmount",
          "type": "uint256"
        }
      ],
      "name": "eventCheck",
      "outputs": [
        {
          "internalType": "bool",
          "name": "",
          "type": "bool"
        }
      ],
      "stateMutability": "view",
      "type": "function"
    },
    {
      "inputs": [
        {
          "internalType": "uint256",
          "name": "",
          "type": "uint256"
        }
      ],
      "name": "events",
      "outputs": [
        {
          "internalType": "uint256",
          "name": "maxSupply",
          "type": "uint256"
        },
        {
          "internalType": "uint256",
          "name": "supply",
          "type": "uint256"
        },
        {
          "internalType": "uint256",
          "name": "maxMintsPerAddress",
          "type": "uint256"
        },
        {
          "internalType": "bool",
          "name": "isActive",
          "type": "bool"
        },
        {
          "internalType": "bool",
          "name": "isSame",
          "type": "bool"
        },
        {
          "internalType": "string",
          "name": "uri",
          "type": "string"
        },
        {
          "internalType": "address",
          "name": "conditionContract",
          "type": "address"
        }
      ],
      "stateMutability": "view",
      "type": "function"
    },
    {
      "inputs": [
        {
          "internalType": "uint256",
          "name": "tokenId",
          "type": "uint256"
        }
      ],
      "name": "getApproved",
      "outputs": [
        {
          "internalType": "address",
          "name": "",
          "type": "address"
        }
      ],
      "stateMutability": "view",
      "type": "function"
    },
    {
      "inputs": [
        {
          "internalType": "uint256",
          "name": "_eventId",
          "type": "uint256"
        },
        {
          "internalType": "address",
          "name": "_address",
          "type": "address"
        }
      ],
      "name": "getEventBalance",
      "outputs": [
        {
          "internalType": "uint256",
          "name": "",
          "type": "uint256"
        }
      ],
      "stateMutability": "view",
      "type": "function"
    },
    {
      "inputs": [
        {
          "internalType": "address",
          "name": "owner",
          "type": "address"
        },
        {
          "internalType": "address",
          "name": "operator",
          "type": "address"
        }
      ],
      "name": "isApprovedForAll",
      "outputs": [
        {
          "internalType": "bool",
          "name": "",
          "type": "bool"
        }
      ],
      "stateMutability": "view",
      "type": "function"
    },
    {
      "inputs": [
        {
          "internalType": "uint256",
          "name": "_eventId",
          "type": "uint256"
        },
        {
          "internalType": "uint256",
          "name": "_mintAmount",
          "type": "uint256"
        }
      ],
      "name": "mintKatsuraOjisanExtra",
      "outputs": [],
      "stateMutability": "nonpayable",
      "type": "function"
    },
    {
      "inputs": [],
      "name": "name",
      "outputs": [
        {
          "internalType": "string",
          "name": "",
          "type": "string"
        }
      ],
      "stateMutability": "view",
      "type": "function"
    },
    {
      "inputs": [],
      "name": "owner",
      "outputs": [
        {
          "internalType": "address",
          "name": "",
          "type": "address"
        }
      ],
      "stateMutability": "view",
      "type": "function"
    },
    {
      "inputs": [
        {
          "internalType": "uint256",
          "name": "tokenId",
          "type": "uint256"
        }
      ],
      "name": "ownerOf",
      "outputs": [
        {
          "internalType": "address",
          "name": "",
          "type": "address"
        }
      ],
      "stateMutability": "view",
      "type": "function"
    },
    {
      "inputs": [
        {
          "internalType": "uint256",
          "name": "",
          "type": "uint256"
        }
      ],
      "name": "realTokens",
      "outputs": [
        {
          "internalType": "uint256",
          "name": "",
          "type": "uint256"
        }
      ],
      "stateMutability": "view",
      "type": "function"
    },
    {
      "inputs": [],
      "name": "renounceOwnership",
      "outputs": [],
      "stateMutability": "nonpayable",
      "type": "function"
    },
    {
      "inputs": [
        {
          "internalType": "address",
          "name": "from",
          "type": "address"
        },
        {
          "internalType": "address",
          "name": "to",
          "type": "address"
        },
        {
          "internalType": "uint256",
          "name": "tokenId",
          "type": "uint256"
        }
      ],
      "name": "safeTransferFrom",
      "outputs": [],
      "stateMutability": "nonpayable",
      "type": "function"
    },
    {
      "inputs": [
        {
          "internalType": "address",
          "name": "from",
          "type": "address"
        },
        {
          "internalType": "address",
          "name": "to",
          "type": "address"
        },
        {
          "internalType": "uint256",
          "name": "tokenId",
          "type": "uint256"
        },
        {
          "internalType": "bytes",
          "name": "data",
          "type": "bytes"
        }
      ],
      "name": "safeTransferFrom",
      "outputs": [],
      "stateMutability": "nonpayable",
      "type": "function"
    },
    {
      "inputs": [
        {
          "internalType": "address",
          "name": "operator",
          "type": "address"
        },
        {
          "internalType": "bool",
          "name": "approved",
          "type": "bool"
        }
      ],
      "name": "setApprovalForAll",
      "outputs": [],
      "stateMutability": "nonpayable",
      "type": "function"
    },
    {
      "inputs": [
        {
          "internalType": "bytes4",
          "name": "interfaceId",
          "type": "bytes4"
        }
      ],
      "name": "supportsInterface",
      "outputs": [
        {
          "internalType": "bool",
          "name": "",
          "type": "bool"
        }
      ],
      "stateMutability": "view",
      "type": "function"
    },
    {
      "inputs": [],
      "name": "symbol",
      "outputs": [
        {
          "internalType": "string",
          "name": "",
          "type": "string"
        }
      ],
      "stateMutability": "view",
      "type": "function"
    },
    {
      "inputs": [
        {
          "internalType": "uint256",
          "name": "index",
          "type": "uint256"
        }
      ],
      "name": "tokenByIndex",
      "outputs": [
        {
          "internalType": "uint256",
          "name": "",
          "type": "uint256"
        }
      ],
      "stateMutability": "view",
      "type": "function"
    },
    {
      "inputs": [
        {
          "internalType": "address",
          "name": "owner",
          "type": "address"
        },
        {
          "internalType": "uint256",
          "name": "index",
          "type": "uint256"
        }
      ],
      "name": "tokenOfOwnerByIndex",
      "outputs": [
        {
          "internalType": "uint256",
          "name": "",
          "type": "uint256"
        }
      ],
      "stateMutability": "view",
      "type": "function"
    },
    {
      "inputs": [
        {
          "internalType": "uint256",
          "name": "_tokenId",
          "type": "uint256"
        }
      ],
      "name": "tokenURI",
      "outputs": [
        {
          "internalType": "string",
          "name": "",
          "type": "string"
        }
      ],
      "stateMutability": "view",
      "type": "function"
    },
    {
      "inputs": [
        {
          "internalType": "uint256",
          "name": "",
          "type": "uint256"
        }
      ],
      "name": "tokens",
      "outputs": [
        {
          "internalType": "uint256",
          "name": "",
          "type": "uint256"
        }
      ],
      "stateMutability": "view",
      "type": "function"
    },
    {
      "inputs": [],
      "name": "totalSupply",
      "outputs": [
        {
          "internalType": "uint256",
          "name": "",
          "type": "uint256"
        }
      ],
      "stateMutability": "view",
      "type": "function"
    },
    {
      "inputs": [
        {
          "internalType": "address",
          "name": "from",
          "type": "address"
        },
        {
          "internalType": "address",
          "name": "to",
          "type": "address"
        },
        {
          "internalType": "uint256",
          "name": "tokenId",
          "type": "uint256"
        }
      ],
      "name": "transferFrom",
      "outputs": [],
      "stateMutability": "nonpayable",
      "type": "function"
    },
    {
      "inputs": [
        {
          "internalType": "address",
          "name": "newOwner",
          "type": "address"
        }
      ],
      "name": "transferOwnership",
      "outputs": [],
      "stateMutability": "nonpayable",
      "type": "function"
    }
  ],
  "bytecode": "0x60806040523480156200001157600080fd5b506040518060400160405280601481526020017f4b617473757261204f6a6973616e2045787472610000000000000000000000008152506040518060400160405280600481526020017f4b4f4a4500000000000000000000000000000000000000000000000000000000815250816000908051906020019062000096929190620001a6565b508060019080519060200190620000af929190620001a6565b505050620000d2620000c6620000d860201b60201c565b620000e060201b60201c565b620002bb565b600033905090565b6000600a60009054906101000a900473ffffffffffffffffffffffffffffffffffffffff16905081600a60006101000a81548173ffffffffffffffffffffffffffffffffffffffff021916908373ffffffffffffffffffffffffffffffffffffffff1602179055508173ffffffffffffffffffffffffffffffffffffffff168173ffffffffffffffffffffffffffffffffffffffff167f8be0079c531659141344cd1fd0a4f28419497f9722a3daafe3b4186f6b6457e060405160405180910390a35050565b828054620001b49062000256565b90600052602060002090601f016020900481019282620001d8576000855562000224565b82601f10620001f357805160ff191683800117855562000224565b8280016001018555821562000224579182015b828111156200022357825182559160200191906001019062000206565b5b50905062000233919062000237565b5090565b5b808211156200025257600081600090555060010162000238565b5090565b600060028204905060018216806200026f57607f821691505b602082108114156200028657620002856200028c565b5b50919050565b7f4e487b7100000000000000000000000000000000000000000000000000000000600052602260045260246000fd5b613dfd80620002cb6000396000f3fe608060405234801561001057600080fd5b50600436106101c45760003560e01c80636352211e116100f9578063b88d4fde11610097578063db06942f11610071578063db06942f14610555578063e985e9c514610585578063f2fde38b146105b5578063f432f4ce146105d1576101c4565b8063b88d4fde146104d9578063c18de7fc146104f5578063c87b56dd14610525576101c4565b80638da5cb5b116100d35780638da5cb5b146104515780638ff9b86a1461046f57806395d89b411461049f578063a22cb465146104bd576101c4565b80636352211e146103e757806370a0823114610417578063715018a614610447576101c4565b80631b9c61d01161016657806342842e0e1161014057806342842e0e1461034f5780634530301f1461036b5780634f64b2be146103875780634f6ccce7146103b7576101c4565b80631b9c61d0146102d357806323b872dd146103035780632f745c591461031f576101c4565b8063081812fc116101a2578063081812fc14610233578063095ea7b3146102635780630b7914301461027f57806318160ddd146102b5576101c4565b806301ffc9a7146101c9578063040a5605146101f957806306fdde0314610215575b600080fd5b6101e360048036038101906101de9190612b1d565b6105ed565b6040516101f09190613191565b60405180910390f35b610213600480360381019061020e9190612be4565b610667565b005b61021d6106a7565b60405161022a91906131ac565b60405180910390f35b61024d60048036038101906102489190612b77565b610739565b60405161025a919061312a565b60405180910390f35b61027d60048036038101906102789190612ab0565b61077f565b005b61029960048036038101906102949190612b77565b610897565b6040516102ac9796959493929190613429565b60405180910390f35b6102bd61099b565b6040516102ca919061340e565b60405180910390f35b6102ed60048036038101906102e89190612ba4565b6109a8565b6040516102fa9190613191565b60405180910390f35b61031d6004803603810190610318919061299a565b610a7c565b005b61033960048036038101906103349190612ab0565b610adc565b604051610346919061340e565b60405180910390f35b6103696004803603810190610364919061299a565b610b81565b005b61038560048036038101906103809190612c64565b610ba1565b005b6103a1600480360381019061039c9190612b77565b610c4f565b6040516103ae919061340e565b60405180910390f35b6103d160048036038101906103cc9190612b77565b610c67565b6040516103de919061340e565b60405180910390f35b61040160048036038101906103fc9190612b77565b610cd8565b60405161040e919061312a565b60405180910390f35b610431600480360381019061042c919061292d565b610d8a565b60405161043e919061340e565b60405180910390f35b61044f610e42565b005b610459610e56565b604051610466919061312a565b60405180910390f35b61048960048036038101906104849190612ba4565b610e80565b604051610496919061340e565b60405180910390f35b6104a7610ee3565b6040516104b491906131ac565b60405180910390f35b6104d760048036038101906104d29190612a70565b610f75565b005b6104f360048036038101906104ee91906129ed565b610f8b565b005b61050f600480360381019061050a9190612b77565b610fed565b60405161051c919061340e565b60405180910390f35b61053f600480360381019061053a9190612b77565b611005565b60405161054c91906131ac565b60405180910390f35b61056f600480360381019061056a9190612c24565b611175565b60405161057c9190613191565b60405180910390f35b61059f600480360381019061059a919061295a565b611223565b6040516105ac9190613191565b60405180910390f35b6105cf60048036038101906105ca919061292d565b6112b7565b005b6105eb60048036038101906105e69190612c24565b61133b565b005b60007f780e9d63000000000000000000000000000000000000000000000000000000007bffffffffffffffffffffffffffffffffffffffffffffffffffffffff1916827bffffffffffffffffffffffffffffffffffffffffffffffffffffffff19161480610660575061065f826114e7565b5b9050919050565b61066f6115c9565b6000600b60008481526020019081526020016000209050818160030160006101000a81548160ff021916908315150217905550505050565b6060600080546106b6906136be565b80601f01602080910402602001604051908101604052809291908181526020018280546106e2906136be565b801561072f5780601f106107045761010080835404028352916020019161072f565b820191906000526020600020905b81548152906001019060200180831161071257829003601f168201915b5050505050905090565b600061074482611647565b6004600083815260200190815260200160002060009054906101000a900473ffffffffffffffffffffffffffffffffffffffff169050919050565b600061078a82610cd8565b90508073ffffffffffffffffffffffffffffffffffffffff168373ffffffffffffffffffffffffffffffffffffffff1614156107fb576040517f08c379a00000000000000000000000000000000000000000000000000000000081526004016107f29061338e565b60405180910390fd5b8073ffffffffffffffffffffffffffffffffffffffff1661081a611692565b73ffffffffffffffffffffffffffffffffffffffff161480610849575061084881610843611692565b611223565b5b610888576040517f08c379a000000000000000000000000000000000000000000000000000000000815260040161087f906132ee565b60405180910390fd5b610892838361169a565b505050565b600b6020528060005260406000206000915090508060000154908060010154908060020154908060030160009054906101000a900460ff16908060030160019054906101000a900460ff16908060040180546108f2906136be565b80601f016020809104026020016040519081016040528092919081815260200182805461091e906136be565b801561096b5780601f106109405761010080835404028352916020019161096b565b820191906000526020600020905b81548152906001019060200180831161094e57829003601f168201915b5050505050908060050160009054906101000a900473ffffffffffffffffffffffffffffffffffffffff16905087565b6000600880549050905090565b600080600b6000858152602001908152602001600020905060008160050160009054906101000a900473ffffffffffffffffffffffffffffffffffffffff1690508073ffffffffffffffffffffffffffffffffffffffff1663774697fe856040518263ffffffff1660e01b8152600401610a22919061312a565b60206040518083038186803b158015610a3a57600080fd5b505afa158015610a4e573d6000803e3d6000fd5b505050506040513d601f19601f82011682018060405250810190610a729190612af0565b9250505092915050565b610a8d610a87611692565b82611753565b610acc576040517f08c379a0000000000000000000000000000000000000000000000000000000008152600401610ac3906133ee565b60405180910390fd5b610ad78383836117e8565b505050565b6000610ae783610d8a565b8210610b28576040517f08c379a0000000000000000000000000000000000000000000000000000000008152600401610b1f906131ee565b60405180910390fd5b600660008473ffffffffffffffffffffffffffffffffffffffff1673ffffffffffffffffffffffffffffffffffffffff168152602001908152602001600020600083815260200190815260200160002054905092915050565b610b9c83838360405180602001604052806000815250610f8b565b505050565b610ba96115c9565b6000600b600089815260200190815260200160002090508681600001819055508581600201819055508484826004019190610be5929190612746565b50828160050160006101000a81548173ffffffffffffffffffffffffffffffffffffffff021916908373ffffffffffffffffffffffffffffffffffffffff160217905550818160030160016101000a81548160ff0219169083151502179055505050505050505050565b600c6020528060005260406000206000915090505481565b6000610c7161099b565b8210610cb2576040517f08c379a0000000000000000000000000000000000000000000000000000000008152600401610ca9906133ae565b60405180910390fd5b60088281548110610cc657610cc5613857565b5b90600052602060002001549050919050565b6000806002600084815260200190815260200160002060009054906101000a900473ffffffffffffffffffffffffffffffffffffffff169050600073ffffffffffffffffffffffffffffffffffffffff168173ffffffffffffffffffffffffffffffffffffffff161415610d81576040517f08c379a0000000000000000000000000000000000000000000000000000000008152600401610d789061336e565b60405180910390fd5b80915050919050565b60008073ffffffffffffffffffffffffffffffffffffffff168273ffffffffffffffffffffffffffffffffffffffff161415610dfb576040517f08c379a0000000000000000000000000000000000000000000000000000000008152600401610df2906132ce565b60405180910390fd5b600360008373ffffffffffffffffffffffffffffffffffffffff1673ffffffffffffffffffffffffffffffffffffffff168152602001908152602001600020549050919050565b610e4a6115c9565b610e546000611a4f565b565b6000600a60009054906101000a900473ffffffffffffffffffffffffffffffffffffffff16905090565b600080600b600085815260200190815260200160002090508060060160008473ffffffffffffffffffffffffffffffffffffffff1673ffffffffffffffffffffffffffffffffffffffff1681526020019081526020016000205491505092915050565b606060018054610ef2906136be565b80601f0160208091040260200160405190810160405280929190818152602001828054610f1e906136be565b8015610f6b5780601f10610f4057610100808354040283529160200191610f6b565b820191906000526020600020905b815481529060010190602001808311610f4e57829003601f168201915b5050505050905090565b610f87610f80611692565b8383611b15565b5050565b610f9c610f96611692565b83611753565b610fdb576040517f08c379a0000000000000000000000000000000000000000000000000000000008152600401610fd2906133ee565b60405180910390fd5b610fe784848484611c82565b50505050565b600d6020528060005260406000206000915090505481565b606061101082611cde565b61104f576040517f08c379a00000000000000000000000000000000000000000000000000000000081526004016110469061332e565b60405180910390fd5b600061106d600d600085815260200190815260200160002054611d4a565b90506000600b6000600c600087815260200190815260200160002054815260200190815260200160002090508060030160019054906101000a900460ff1615611146578060040180546110bf906136be565b80601f01602080910402602001604051908101604052809291908181526020018280546110eb906136be565b80156111385780601f1061110d57610100808354040283529160200191611138565b820191906000526020600020905b81548152906001019060200180831161111b57829003601f168201915b505050505092505050611170565b806004018260405160200161115c9291906130fb565b604051602081830303815290604052925050505b919050565b600080600b600085815260200190815260200160002090508060030160009054906101000a900460ff1680156111be575080600001548382600101546111bb919061354d565b11155b801561121a57508060020154838260060160003373ffffffffffffffffffffffffffffffffffffffff1673ffffffffffffffffffffffffffffffffffffffff16815260200190815260200160002054611217919061354d565b11155b91505092915050565b6000600560008473ffffffffffffffffffffffffffffffffffffffff1673ffffffffffffffffffffffffffffffffffffffff16815260200190815260200160002060008373ffffffffffffffffffffffffffffffffffffffff1673ffffffffffffffffffffffffffffffffffffffff16815260200190815260200160002060009054906101000a900460ff16905092915050565b6112bf6115c9565b600073ffffffffffffffffffffffffffffffffffffffff168173ffffffffffffffffffffffffffffffffffffffff16141561132f576040517f08c379a00000000000000000000000000000000000000000000000000000000081526004016113269061322e565b60405180910390fd5b61133881611a4f565b50565b6113458282611175565b611384576040517f08c379a000000000000000000000000000000000000000000000000000000000815260040161137b906131ce565b60405180910390fd5b61138e82336109a8565b6113cd576040517f08c379a00000000000000000000000000000000000000000000000000000000081526004016113c4906133ce565b60405180910390fd5b6000600b60008481526020019081526020016000209050600081600101546113f361099b565b6113fd919061354d565b90506000600190505b8381116114e0576000818361141b919061354d565b905083600101600081548092919061143290613721565b91905055508360060160003373ffffffffffffffffffffffffffffffffffffffff1673ffffffffffffffffffffffffffffffffffffffff168152602001908152602001600020600081548092919061148990613721565b919050555085600c6000838152602001908152602001600020819055508360010154600d6000838152602001908152602001600020819055506114cc3382611eab565b5080806114d890613721565b915050611406565b5050505050565b60007f80ac58cd000000000000000000000000000000000000000000000000000000007bffffffffffffffffffffffffffffffffffffffffffffffffffffffff1916827bffffffffffffffffffffffffffffffffffffffffffffffffffffffff191614806115b257507f5b5e139f000000000000000000000000000000000000000000000000000000007bffffffffffffffffffffffffffffffffffffffffffffffffffffffff1916827bffffffffffffffffffffffffffffffffffffffffffffffffffffffff1916145b806115c257506115c182611ec9565b5b9050919050565b6115d1611692565b73ffffffffffffffffffffffffffffffffffffffff166115ef610e56565b73ffffffffffffffffffffffffffffffffffffffff1614611645576040517f08c379a000000000000000000000000000000000000000000000000000000000815260040161163c9061334e565b60405180910390fd5b565b61165081611cde565b61168f576040517f08c379a00000000000000000000000000000000000000000000000000000000081526004016116869061336e565b60405180910390fd5b50565b600033905090565b816004600083815260200190815260200160002060006101000a81548173ffffffffffffffffffffffffffffffffffffffff021916908373ffffffffffffffffffffffffffffffffffffffff160217905550808273ffffffffffffffffffffffffffffffffffffffff1661170d83610cd8565b73ffffffffffffffffffffffffffffffffffffffff167f8c5be1e5ebec7d5bd14f71427d1e84f3dd0314c0f7b2291e5b200ac8c7c3b92560405160405180910390a45050565b60008061175f83610cd8565b90508073ffffffffffffffffffffffffffffffffffffffff168473ffffffffffffffffffffffffffffffffffffffff1614806117a157506117a08185611223565b5b806117df57508373ffffffffffffffffffffffffffffffffffffffff166117c784610739565b73ffffffffffffffffffffffffffffffffffffffff16145b91505092915050565b8273ffffffffffffffffffffffffffffffffffffffff1661180882610cd8565b73ffffffffffffffffffffffffffffffffffffffff161461185e576040517f08c379a00000000000000000000000000000000000000000000000000000000081526004016118559061324e565b60405180910390fd5b600073ffffffffffffffffffffffffffffffffffffffff168273ffffffffffffffffffffffffffffffffffffffff1614156118ce576040517f08c379a00000000000000000000000000000000000000000000000000000000081526004016118c59061328e565b60405180910390fd5b6118d9838383611f33565b6118e460008261169a565b6001600360008573ffffffffffffffffffffffffffffffffffffffff1673ffffffffffffffffffffffffffffffffffffffff168152602001908152602001600020600082825461193491906135d4565b925050819055506001600360008473ffffffffffffffffffffffffffffffffffffffff1673ffffffffffffffffffffffffffffffffffffffff168152602001908152602001600020600082825461198b919061354d565b92505081905550816002600083815260200190815260200160002060006101000a81548173ffffffffffffffffffffffffffffffffffffffff021916908373ffffffffffffffffffffffffffffffffffffffff160217905550808273ffffffffffffffffffffffffffffffffffffffff168473ffffffffffffffffffffffffffffffffffffffff167fddf252ad1be2c89b69c2b068fc378daa952ba7f163c4a11628f55a4df523b3ef60405160405180910390a4611a4a838383612047565b505050565b6000600a60009054906101000a900473ffffffffffffffffffffffffffffffffffffffff16905081600a60006101000a81548173ffffffffffffffffffffffffffffffffffffffff021916908373ffffffffffffffffffffffffffffffffffffffff1602179055508173ffffffffffffffffffffffffffffffffffffffff168173ffffffffffffffffffffffffffffffffffffffff167f8be0079c531659141344cd1fd0a4f28419497f9722a3daafe3b4186f6b6457e060405160405180910390a35050565b8173ffffffffffffffffffffffffffffffffffffffff168373ffffffffffffffffffffffffffffffffffffffff161415611b84576040517f08c379a0000000000000000000000000000000000000000000000000000000008152600401611b7b906132ae565b60405180910390fd5b80600560008573ffffffffffffffffffffffffffffffffffffffff1673ffffffffffffffffffffffffffffffffffffffff16815260200190815260200160002060008473ffffffffffffffffffffffffffffffffffffffff1673ffffffffffffffffffffffffffffffffffffffff16815260200190815260200160002060006101000a81548160ff0219169083151502179055508173ffffffffffffffffffffffffffffffffffffffff168373ffffffffffffffffffffffffffffffffffffffff167f17307eab39ab6107e8899845ad3d59bd9653f200f220920489ca2b5937696c3183604051611c759190613191565b60405180910390a3505050565b611c8d8484846117e8565b611c998484848461204c565b611cd8576040517f08c379a0000000000000000000000000000000000000000000000000000000008152600401611ccf9061320e565b60405180910390fd5b50505050565b60008073ffffffffffffffffffffffffffffffffffffffff166002600084815260200190815260200160002060009054906101000a900473ffffffffffffffffffffffffffffffffffffffff1673ffffffffffffffffffffffffffffffffffffffff1614159050919050565b60606000821415611d92576040518060400160405280600181526020017f30000000000000000000000000000000000000000000000000000000000000008152509050611ea6565b600082905060005b60008214611dc4578080611dad90613721565b915050600a82611dbd91906135a3565b9150611d9a565b60008167ffffffffffffffff811115611de057611ddf613886565b5b6040519080825280601f01601f191660200182016040528015611e125781602001600182028036833780820191505090505b5090505b60008514611e9f57600182611e2b91906135d4565b9150600a85611e3a919061376a565b6030611e46919061354d565b60f81b818381518110611e5c57611e5b613857565b5b60200101907effffffffffffffffffffffffffffffffffffffffffffffffffffffffffffff1916908160001a905350600a85611e9891906135a3565b9450611e16565b8093505050505b919050565b611ec58282604051806020016040528060008152506121e3565b5050565b60007f01ffc9a7000000000000000000000000000000000000000000000000000000007bffffffffffffffffffffffffffffffffffffffffffffffffffffffff1916827bffffffffffffffffffffffffffffffffffffffffffffffffffffffff1916149050919050565b611f3e83838361223e565b600073ffffffffffffffffffffffffffffffffffffffff168373ffffffffffffffffffffffffffffffffffffffff161415611f8157611f7c81612243565b611fc0565b8173ffffffffffffffffffffffffffffffffffffffff168373ffffffffffffffffffffffffffffffffffffffff1614611fbf57611fbe838261228c565b5b5b600073ffffffffffffffffffffffffffffffffffffffff168273ffffffffffffffffffffffffffffffffffffffff16141561200357611ffe816123f9565b612042565b8273ffffffffffffffffffffffffffffffffffffffff168273ffffffffffffffffffffffffffffffffffffffff16146120415761204082826124ca565b5b5b505050565b505050565b600061206d8473ffffffffffffffffffffffffffffffffffffffff16612549565b156121d6578373ffffffffffffffffffffffffffffffffffffffff1663150b7a02612096611692565b8786866040518563ffffffff1660e01b81526004016120b89493929190613145565b602060405180830381600087803b1580156120d257600080fd5b505af192505050801561210357506040513d601f19601f820116820180604052508101906121009190612b4a565b60015b612186573d8060008114612133576040519150601f19603f3d011682016040523d82523d6000602084013e612138565b606091505b5060008151141561217e576040517f08c379a00000000000000000000000000000000000000000000000000000000081526004016121759061320e565b60405180910390fd5b805181602001fd5b63150b7a0260e01b7bffffffffffffffffffffffffffffffffffffffffffffffffffffffff1916817bffffffffffffffffffffffffffffffffffffffffffffffffffffffff1916149150506121db565b600190505b949350505050565b6121ed838361256c565b6121fa600084848461204c565b612239576040517f08c379a00000000000000000000000000000000000000000000000000000000081526004016122309061320e565b60405180910390fd5b505050565b505050565b6008805490506009600083815260200190815260200160002081905550600881908060018154018082558091505060019003906000526020600020016000909190919091505550565b6000600161229984610d8a565b6122a391906135d4565b9050600060076000848152602001908152602001600020549050818114612388576000600660008673ffffffffffffffffffffffffffffffffffffffff1673ffffffffffffffffffffffffffffffffffffffff168152602001908152602001600020600084815260200190815260200160002054905080600660008773ffffffffffffffffffffffffffffffffffffffff1673ffffffffffffffffffffffffffffffffffffffff168152602001908152602001600020600084815260200190815260200160002081905550816007600083815260200190815260200160002081905550505b6007600084815260200190815260200160002060009055600660008573ffffffffffffffffffffffffffffffffffffffff1673ffffffffffffffffffffffffffffffffffffffff16815260200190815260200160002060008381526020019081526020016000206000905550505050565b6000600160088054905061240d91906135d4565b905060006009600084815260200190815260200160002054905060006008838154811061243d5761243c613857565b5b90600052602060002001549050806008838154811061245f5761245e613857565b5b9060005260206000200181905550816009600083815260200190815260200160002081905550600960008581526020019081526020016000206000905560088054806124ae576124ad613828565b5b6001900381819060005260206000200160009055905550505050565b60006124d583610d8a565b905081600660008573ffffffffffffffffffffffffffffffffffffffff1673ffffffffffffffffffffffffffffffffffffffff168152602001908152602001600020600083815260200190815260200160002081905550806007600084815260200190815260200160002081905550505050565b6000808273ffffffffffffffffffffffffffffffffffffffff163b119050919050565b600073ffffffffffffffffffffffffffffffffffffffff168273ffffffffffffffffffffffffffffffffffffffff1614156125dc576040517f08c379a00000000000000000000000000000000000000000000000000000000081526004016125d39061330e565b60405180910390fd5b6125e581611cde565b15612625576040517f08c379a000000000000000000000000000000000000000000000000000000000815260040161261c9061326e565b60405180910390fd5b61263160008383611f33565b6001600360008473ffffffffffffffffffffffffffffffffffffffff1673ffffffffffffffffffffffffffffffffffffffff1681526020019081526020016000206000828254612681919061354d565b92505081905550816002600083815260200190815260200160002060006101000a81548173ffffffffffffffffffffffffffffffffffffffff021916908373ffffffffffffffffffffffffffffffffffffffff160217905550808273ffffffffffffffffffffffffffffffffffffffff16600073ffffffffffffffffffffffffffffffffffffffff167fddf252ad1be2c89b69c2b068fc378daa952ba7f163c4a11628f55a4df523b3ef60405160405180910390a461274260008383612047565b5050565b828054612752906136be565b90600052602060002090601f01602090048101928261277457600085556127bb565b82601f1061278d57803560ff19168380011785556127bb565b828001600101855582156127bb579182015b828111156127ba57823582559160200191906001019061279f565b5b5090506127c891906127cc565b5090565b5b808211156127e55760008160009055506001016127cd565b5090565b60006127fc6127f7846134c4565b61349f565b905082815260208101848484011115612818576128176138c4565b5b61282384828561367c565b509392505050565b60008135905061283a81613d6b565b92915050565b60008135905061284f81613d82565b92915050565b60008151905061286481613d82565b92915050565b60008135905061287981613d99565b92915050565b60008151905061288e81613d99565b92915050565b600082601f8301126128a9576128a86138ba565b5b81356128b98482602086016127e9565b91505092915050565b60008083601f8401126128d8576128d76138ba565b5b8235905067ffffffffffffffff8111156128f5576128f46138b5565b5b602083019150836001820283011115612911576129106138bf565b5b9250929050565b60008135905061292781613db0565b92915050565b600060208284031215612943576129426138ce565b5b60006129518482850161282b565b91505092915050565b60008060408385031215612971576129706138ce565b5b600061297f8582860161282b565b92505060206129908582860161282b565b9150509250929050565b6000806000606084860312156129b3576129b26138ce565b5b60006129c18682870161282b565b93505060206129d28682870161282b565b92505060406129e386828701612918565b9150509250925092565b60008060008060808587031215612a0757612a066138ce565b5b6000612a158782880161282b565b9450506020612a268782880161282b565b9350506040612a3787828801612918565b925050606085013567ffffffffffffffff811115612a5857612a576138c9565b5b612a6487828801612894565b91505092959194509250565b60008060408385031215612a8757612a866138ce565b5b6000612a958582860161282b565b9250506020612aa685828601612840565b9150509250929050565b60008060408385031215612ac757612ac66138ce565b5b6000612ad58582860161282b565b9250506020612ae685828601612918565b9150509250929050565b600060208284031215612b0657612b056138ce565b5b6000612b1484828501612855565b91505092915050565b600060208284031215612b3357612b326138ce565b5b6000612b418482850161286a565b91505092915050565b600060208284031215612b6057612b5f6138ce565b5b6000612b6e8482850161287f565b91505092915050565b600060208284031215612b8d57612b8c6138ce565b5b6000612b9b84828501612918565b91505092915050565b60008060408385031215612bbb57612bba6138ce565b5b6000612bc985828601612918565b9250506020612bda8582860161282b565b9150509250929050565b60008060408385031215612bfb57612bfa6138ce565b5b6000612c0985828601612918565b9250506020612c1a85828601612840565b9150509250929050565b60008060408385031215612c3b57612c3a6138ce565b5b6000612c4985828601612918565b9250506020612c5a85828601612918565b9150509250929050565b600080600080600080600060c0888a031215612c8357612c826138ce565b5b6000612c918a828b01612918565b9750506020612ca28a828b01612918565b9650506040612cb38a828b01612918565b955050606088013567ffffffffffffffff811115612cd457612cd36138c9565b5b612ce08a828b016128c2565b94509450506080612cf38a828b0161282b565b92505060a0612d048a828b01612840565b91505092959891949750929550565b612d1c81613608565b82525050565b612d2b8161361a565b82525050565b6000612d3c8261350a565b612d468185613520565b9350612d5681856020860161368b565b612d5f816138d3565b840191505092915050565b6000612d7582613515565b612d7f8185613531565b9350612d8f81856020860161368b565b612d98816138d3565b840191505092915050565b6000612dae82613515565b612db88185613542565b9350612dc881856020860161368b565b80840191505092915050565b60008154612de1816136be565b612deb8186613542565b94506001821660008114612e065760018114612e1757612e4a565b60ff19831686528186019350612e4a565b612e20856134f5565b60005b83811015612e4257815481890152600182019150602081019050612e23565b838801955050505b50505092915050565b6000612e60601283613531565b9150612e6b826138e4565b602082019050919050565b6000612e83602b83613531565b9150612e8e8261390d565b604082019050919050565b6000612ea6603283613531565b9150612eb18261395c565b604082019050919050565b6000612ec9602683613531565b9150612ed4826139ab565b604082019050919050565b6000612eec602583613531565b9150612ef7826139fa565b604082019050919050565b6000612f0f601c83613531565b9150612f1a82613a49565b602082019050919050565b6000612f32602483613531565b9150612f3d82613a72565b604082019050919050565b6000612f55601983613531565b9150612f6082613ac1565b602082019050919050565b6000612f78602983613531565b9150612f8382613aea565b604082019050919050565b6000612f9b603e83613531565b9150612fa682613b39565b604082019050919050565b6000612fbe602083613531565b9150612fc982613b88565b602082019050919050565b6000612fe1601183613531565b9150612fec82613bb1565b602082019050919050565b6000613004600583613542565b915061300f82613bda565b600582019050919050565b6000613027602083613531565b915061303282613c03565b602082019050919050565b600061304a601883613531565b915061305582613c2c565b602082019050919050565b600061306d602183613531565b915061307882613c55565b604082019050919050565b6000613090602c83613531565b915061309b82613ca4565b604082019050919050565b60006130b3601683613531565b91506130be82613cf3565b602082019050919050565b60006130d6602e83613531565b91506130e182613d1c565b604082019050919050565b6130f581613672565b82525050565b60006131078285612dd4565b91506131138284612da3565b915061311e82612ff7565b91508190509392505050565b600060208201905061313f6000830184612d13565b92915050565b600060808201905061315a6000830187612d13565b6131676020830186612d13565b61317460408301856130ec565b81810360608301526131868184612d31565b905095945050505050565b60006020820190506131a66000830184612d22565b92915050565b600060208201905081810360008301526131c68184612d6a565b905092915050565b600060208201905081810360008301526131e781612e53565b9050919050565b6000602082019050818103600083015261320781612e76565b9050919050565b6000602082019050818103600083015261322781612e99565b9050919050565b6000602082019050818103600083015261324781612ebc565b9050919050565b6000602082019050818103600083015261326781612edf565b9050919050565b6000602082019050818103600083015261328781612f02565b9050919050565b600060208201905081810360008301526132a781612f25565b9050919050565b600060208201905081810360008301526132c781612f48565b9050919050565b600060208201905081810360008301526132e781612f6b565b9050919050565b6000602082019050818103600083015261330781612f8e565b9050919050565b6000602082019050818103600083015261332781612fb1565b9050919050565b6000602082019050818103600083015261334781612fd4565b9050919050565b600060208201905081810360008301526133678161301a565b9050919050565b600060208201905081810360008301526133878161303d565b9050919050565b600060208201905081810360008301526133a781613060565b9050919050565b600060208201905081810360008301526133c781613083565b9050919050565b600060208201905081810360008301526133e7816130a6565b9050919050565b60006020820190508181036000830152613407816130c9565b9050919050565b600060208201905061342360008301846130ec565b92915050565b600060e08201905061343e600083018a6130ec565b61344b60208301896130ec565b61345860408301886130ec565b6134656060830187612d22565b6134726080830186612d22565b81810360a08301526134848185612d6a565b905061349360c0830184612d13565b98975050505050505050565b60006134a96134ba565b90506134b582826136f0565b919050565b6000604051905090565b600067ffffffffffffffff8211156134df576134de613886565b5b6134e8826138d3565b9050602081019050919050565b60008190508160005260206000209050919050565b600081519050919050565b600081519050919050565b600082825260208201905092915050565b600082825260208201905092915050565b600081905092915050565b600061355882613672565b915061356383613672565b9250827fffffffffffffffffffffffffffffffffffffffffffffffffffffffffffffffff038211156135985761359761379b565b5b828201905092915050565b60006135ae82613672565b91506135b983613672565b9250826135c9576135c86137ca565b5b828204905092915050565b60006135df82613672565b91506135ea83613672565b9250828210156135fd576135fc61379b565b5b828203905092915050565b600061361382613652565b9050919050565b60008115159050919050565b60007fffffffff0000000000000000000000000000000000000000000000000000000082169050919050565b600073ffffffffffffffffffffffffffffffffffffffff82169050919050565b6000819050919050565b82818337600083830152505050565b60005b838110156136a957808201518184015260208101905061368e565b838111156136b8576000848401525b50505050565b600060028204905060018216806136d657607f821691505b602082108114156136ea576136e96137f9565b5b50919050565b6136f9826138d3565b810181811067ffffffffffffffff8211171561371857613717613886565b5b80604052505050565b600061372c82613672565b91507fffffffffffffffffffffffffffffffffffffffffffffffffffffffffffffffff82141561375f5761375e61379b565b5b600182019050919050565b600061377582613672565b915061378083613672565b9250826137905761378f6137ca565b5b828206905092915050565b7f4e487b7100000000000000000000000000000000000000000000000000000000600052601160045260246000fd5b7f4e487b7100000000000000000000000000000000000000000000000000000000600052601260045260246000fd5b7f4e487b7100000000000000000000000000000000000000000000000000000000600052602260045260246000fd5b7f4e487b7100000000000000000000000000000000000000000000000000000000600052603160045260246000fd5b7f4e487b7100000000000000000000000000000000000000000000000000000000600052603260045260246000fd5b7f4e487b7100000000000000000000000000000000000000000000000000000000600052604160045260246000fd5b600080fd5b600080fd5b600080fd5b600080fd5b600080fd5b600080fd5b6000601f19601f8301169050919050565b7f4576656e7420636865636b206661696c65640000000000000000000000000000600082015250565b7f455243373231456e756d657261626c653a206f776e657220696e646578206f7560008201527f74206f6620626f756e6473000000000000000000000000000000000000000000602082015250565b7f4552433732313a207472616e7366657220746f206e6f6e20455243373231526560008201527f63656976657220696d706c656d656e7465720000000000000000000000000000602082015250565b7f4f776e61626c653a206e6577206f776e657220697320746865207a65726f206160008201527f6464726573730000000000000000000000000000000000000000000000000000602082015250565b7f4552433732313a207472616e736665722066726f6d20696e636f72726563742060008201527f6f776e6572000000000000000000000000000000000000000000000000000000602082015250565b7f4552433732313a20746f6b656e20616c7265616479206d696e74656400000000600082015250565b7f4552433732313a207472616e7366657220746f20746865207a65726f2061646460008201527f7265737300000000000000000000000000000000000000000000000000000000602082015250565b7f4552433732313a20617070726f766520746f2063616c6c657200000000000000600082015250565b7f4552433732313a2061646472657373207a65726f206973206e6f74206120766160008201527f6c6964206f776e65720000000000000000000000000000000000000000000000602082015250565b7f4552433732313a20617070726f76652063616c6c6572206973206e6f7420746f60008201527f6b656e206f776e6572206e6f7220617070726f76656420666f7220616c6c0000602082015250565b7f4552433732313a206d696e7420746f20746865207a65726f2061646472657373600082015250565b7f6e6f6e6578697374656e7420746f6b656e000000000000000000000000000000600082015250565b7f2e6a736f6e000000000000000000000000000000000000000000000000000000600082015250565b7f4f776e61626c653a2063616c6c6572206973206e6f7420746865206f776e6572600082015250565b7f4552433732313a20696e76616c696420746f6b656e2049440000000000000000600082015250565b7f4552433732313a20617070726f76616c20746f2063757272656e74206f776e6560008201527f7200000000000000000000000000000000000000000000000000000000000000602082015250565b7f455243373231456e756d657261626c653a20676c6f62616c20696e646578206f60008201527f7574206f6620626f756e64730000000000000000000000000000000000000000602082015250565b7f436f6e646974696f6e20636865636b206661696c656400000000000000000000600082015250565b7f4552433732313a2063616c6c6572206973206e6f7420746f6b656e206f776e6560008201527f72206e6f7220617070726f766564000000000000000000000000000000000000602082015250565b613d7481613608565b8114613d7f57600080fd5b50565b613d8b8161361a565b8114613d9657600080fd5b50565b613da281613626565b8114613dad57600080fd5b50565b613db981613672565b8114613dc457600080fd5b5056fea264697066735822122005fd0453318fee6602adee25b6a1178cdd7a7f0289596638f709f9611deda43d64736f6c63430008070033",
  "linkReferences": {},
  "deployedLinkReferences": {}
}