{
  "_format": "hh-sol-artifact-1",
  "contractName": "KatsuraOjisanExtra",
  "sourceName": "contracts/KatsuraOjisanExtra.sol",
  "abi": [
    {
      "inputs": [],
      "stateMutability": "nonpayable",
      "type": "constructor"
    },
    {
      "anonymous": false,
      "inputs": [
        {
          "indexed": true,
          "internalType": "address",
          "name": "owner",
          "type": "address"
        },
        {
          "indexed": true,
          "internalType": "address",
          "name": "approved",
          "type": "address"
        },
        {
          "indexed": true,
          "internalType": "uint256",
          "name": "tokenId",
          "type": "uint256"
        }
      ],
      "name": "Approval",
      "type": "event"
    },
    {
      "anonymous": false,
      "inputs": [
        {
          "indexed": true,
          "internalType": "address",
          "name": "owner",
          "type": "address"
        },
        {
          "indexed": true,
          "internalType": "address",
          "name": "operator",
          "type": "address"
        },
        {
          "indexed": false,
          "internalType": "bool",
          "name": "approved",
          "type": "bool"
        }
      ],
      "name": "ApprovalForAll",
      "type": "event"
    },
    {
      "anonymous": false,
      "inputs": [
        {
          "indexed": true,
          "internalType": "address",
          "name": "previousOwner",
          "type": "address"
        },
        {
          "indexed": true,
          "internalType": "address",
          "name": "newOwner",
          "type": "address"
        }
      ],
      "name": "OwnershipTransferred",
      "type": "event"
    },
    {
      "anonymous": false,
      "inputs": [
        {
          "indexed": true,
          "internalType": "address",
          "name": "from",
          "type": "address"
        },
        {
          "indexed": true,
          "internalType": "address",
          "name": "to",
          "type": "address"
        },
        {
          "indexed": true,
          "internalType": "uint256",
          "name": "tokenId",
          "type": "uint256"
        }
      ],
      "name": "Transfer",
      "type": "event"
    },
    {
      "inputs": [
        {
          "internalType": "uint256",
          "name": "_eventId",
          "type": "uint256"
        },
        {
          "internalType": "uint256",
          "name": "_token",
          "type": "uint256"
        },
        {
          "internalType": "uint256",
          "name": "_count",
          "type": "uint256"
        }
      ],
      "name": "AddCollection",
      "outputs": [],
      "stateMutability": "nonpayable",
      "type": "function"
    },
    {
      "inputs": [
        {
          "internalType": "uint256",
          "name": "_eventId",
          "type": "uint256"
        }
      ],
      "name": "RemoveCollection",
      "outputs": [],
      "stateMutability": "nonpayable",
      "type": "function"
    },
    {
      "inputs": [
        {
          "internalType": "uint256",
          "name": "_eventId",
          "type": "uint256"
        },
        {
          "internalType": "bool",
          "name": "_isActive",
          "type": "bool"
        }
      ],
      "name": "activeEvent",
      "outputs": [],
      "stateMutability": "nonpayable",
      "type": "function"
    },
    {
      "inputs": [
        {
          "internalType": "uint256",
          "name": "_eventId",
          "type": "uint256"
        },
        {
          "internalType": "uint256",
          "name": "_maxSupply",
          "type": "uint256"
        },
        {
          "internalType": "uint256",
          "name": "_maxMintsPerAddress",
          "type": "uint256"
        },
        {
          "internalType": "string",
          "name": "_uri",
          "type": "string"
        },
        {
          "internalType": "address",
          "name": "_conditionContract",
          "type": "address"
        },
        {
          "internalType": "bool",
          "name": "_isSame",
          "type": "bool"
        },
        {
          "internalType": "bool",
          "name": "_isRandom",
          "type": "bool"
        }
      ],
      "name": "addEvent",
      "outputs": [],
      "stateMutability": "nonpayable",
      "type": "function"
    },
    {
      "inputs": [
        {
          "internalType": "address",
          "name": "to",
          "type": "address"
        },
        {
          "internalType": "uint256",
          "name": "tokenId",
          "type": "uint256"
        }
      ],
      "name": "approve",
      "outputs": [],
      "stateMutability": "nonpayable",
      "type": "function"
    },
    {
      "inputs": [
        {
          "internalType": "address",
          "name": "owner",
          "type": "address"
        }
      ],
      "name": "balanceOf",
      "outputs": [
        {
          "internalType": "uint256",
          "name": "",
          "type": "uint256"
        }
      ],
      "stateMutability": "view",
      "type": "function"
    },
    {
      "inputs": [
        {
          "internalType": "uint256",
          "name": "",
          "type": "uint256"
        },
        {
          "internalType": "uint256",
          "name": "",
          "type": "uint256"
        }
      ],
      "name": "collections",
      "outputs": [
        {
          "internalType": "uint256",
          "name": "",
          "type": "uint256"
        }
      ],
      "stateMutability": "view",
      "type": "function"
    },
    {
      "inputs": [
        {
          "internalType": "uint256",
          "name": "_eventId",
          "type": "uint256"
        },
        {
          "internalType": "address",
          "name": "_address",
          "type": "address"
        }
      ],
      "name": "conditionCheck",
      "outputs": [
        {
          "internalType": "bool",
          "name": "",
          "type": "bool"
        }
      ],
      "stateMutability": "view",
      "type": "function"
    },
    {
      "inputs": [
        {
          "internalType": "uint256",
          "name": "_eventId",
          "type": "uint256"
        },
        {
          "internalType": "uint256",
          "name": "_mintAmount",
          "type": "uint256"
        }
      ],
      "name": "eventCheck",
      "outputs": [
        {
          "internalType": "bool",
          "name": "",
          "type": "bool"
        }
      ],
      "stateMutability": "view",
      "type": "function"
    },
    {
      "inputs": [
        {
          "internalType": "uint256",
          "name": "",
          "type": "uint256"
        }
      ],
      "name": "events",
      "outputs": [
        {
          "internalType": "uint256",
          "name": "maxSupply",
          "type": "uint256"
        },
        {
          "internalType": "uint256",
          "name": "supply",
          "type": "uint256"
        },
        {
          "internalType": "uint256",
          "name": "maxMintsPerAddress",
          "type": "uint256"
        },
        {
          "internalType": "bool",
          "name": "isActive",
          "type": "bool"
        },
        {
          "internalType": "bool",
          "name": "isSame",
          "type": "bool"
        },
        {
          "internalType": "bool",
          "name": "isRandom",
          "type": "bool"
        },
        {
          "internalType": "string",
          "name": "uri",
          "type": "string"
        },
        {
          "internalType": "address",
          "name": "conditionContract",
          "type": "address"
        }
      ],
      "stateMutability": "view",
      "type": "function"
    },
    {
      "inputs": [
        {
          "internalType": "uint256",
          "name": "tokenId",
          "type": "uint256"
        }
      ],
      "name": "getApproved",
      "outputs": [
        {
          "internalType": "address",
          "name": "",
          "type": "address"
        }
      ],
      "stateMutability": "view",
      "type": "function"
    },
    {
      "inputs": [
        {
          "internalType": "uint256",
          "name": "_eventId",
          "type": "uint256"
        },
        {
          "internalType": "address",
          "name": "_address",
          "type": "address"
        }
      ],
      "name": "getEventBalance",
      "outputs": [
        {
          "internalType": "uint256",
          "name": "",
          "type": "uint256"
        }
      ],
      "stateMutability": "view",
      "type": "function"
    },
    {
      "inputs": [
        {
          "internalType": "address",
          "name": "owner",
          "type": "address"
        },
        {
          "internalType": "address",
          "name": "operator",
          "type": "address"
        }
      ],
      "name": "isApprovedForAll",
      "outputs": [
        {
          "internalType": "bool",
          "name": "",
          "type": "bool"
        }
      ],
      "stateMutability": "view",
      "type": "function"
    },
    {
      "inputs": [],
      "name": "maxMintPerTX",
      "outputs": [
        {
          "internalType": "uint256",
          "name": "",
          "type": "uint256"
        }
      ],
      "stateMutability": "view",
      "type": "function"
    },
    {
      "inputs": [
        {
          "internalType": "uint256",
          "name": "_eventId",
          "type": "uint256"
        },
        {
          "internalType": "uint256",
          "name": "_mintAmount",
          "type": "uint256"
        }
      ],
      "name": "mintKatsuraOjisanExtra",
      "outputs": [],
      "stateMutability": "nonpayable",
      "type": "function"
    },
    {
      "inputs": [],
      "name": "name",
      "outputs": [
        {
          "internalType": "string",
          "name": "",
          "type": "string"
        }
      ],
      "stateMutability": "view",
      "type": "function"
    },
    {
      "inputs": [],
      "name": "owner",
      "outputs": [
        {
          "internalType": "address",
          "name": "",
          "type": "address"
        }
      ],
      "stateMutability": "view",
      "type": "function"
    },
    {
      "inputs": [
        {
          "internalType": "uint256",
          "name": "tokenId",
          "type": "uint256"
        }
      ],
      "name": "ownerOf",
      "outputs": [
        {
          "internalType": "address",
          "name": "",
          "type": "address"
        }
      ],
      "stateMutability": "view",
      "type": "function"
    },
    {
      "inputs": [
        {
          "internalType": "uint256",
          "name": "",
          "type": "uint256"
        }
      ],
      "name": "realTokens",
      "outputs": [
        {
          "internalType": "uint256",
          "name": "",
          "type": "uint256"
        }
      ],
      "stateMutability": "view",
      "type": "function"
    },
    {
      "inputs": [],
      "name": "renounceOwnership",
      "outputs": [],
      "stateMutability": "nonpayable",
      "type": "function"
    },
    {
      "inputs": [
        {
          "internalType": "address",
          "name": "from",
          "type": "address"
        },
        {
          "internalType": "address",
          "name": "to",
          "type": "address"
        },
        {
          "internalType": "uint256",
          "name": "tokenId",
          "type": "uint256"
        }
      ],
      "name": "safeTransferFrom",
      "outputs": [],
      "stateMutability": "nonpayable",
      "type": "function"
    },
    {
      "inputs": [
        {
          "internalType": "address",
          "name": "from",
          "type": "address"
        },
        {
          "internalType": "address",
          "name": "to",
          "type": "address"
        },
        {
          "internalType": "uint256",
          "name": "tokenId",
          "type": "uint256"
        },
        {
          "internalType": "bytes",
          "name": "data",
          "type": "bytes"
        }
      ],
      "name": "safeTransferFrom",
      "outputs": [],
      "stateMutability": "nonpayable",
      "type": "function"
    },
    {
      "inputs": [
        {
          "internalType": "address",
          "name": "operator",
          "type": "address"
        },
        {
          "internalType": "bool",
          "name": "approved",
          "type": "bool"
        }
      ],
      "name": "setApprovalForAll",
      "outputs": [],
      "stateMutability": "nonpayable",
      "type": "function"
    },
    {
      "inputs": [
        {
          "internalType": "bytes4",
          "name": "interfaceId",
          "type": "bytes4"
        }
      ],
      "name": "supportsInterface",
      "outputs": [
        {
          "internalType": "bool",
          "name": "",
          "type": "bool"
        }
      ],
      "stateMutability": "view",
      "type": "function"
    },
    {
      "inputs": [],
      "name": "symbol",
      "outputs": [
        {
          "internalType": "string",
          "name": "",
          "type": "string"
        }
      ],
      "stateMutability": "view",
      "type": "function"
    },
    {
      "inputs": [
        {
          "internalType": "uint256",
          "name": "index",
          "type": "uint256"
        }
      ],
      "name": "tokenByIndex",
      "outputs": [
        {
          "internalType": "uint256",
          "name": "",
          "type": "uint256"
        }
      ],
      "stateMutability": "view",
      "type": "function"
    },
    {
      "inputs": [
        {
          "internalType": "address",
          "name": "owner",
          "type": "address"
        },
        {
          "internalType": "uint256",
          "name": "index",
          "type": "uint256"
        }
      ],
      "name": "tokenOfOwnerByIndex",
      "outputs": [
        {
          "internalType": "uint256",
          "name": "",
          "type": "uint256"
        }
      ],
      "stateMutability": "view",
      "type": "function"
    },
    {
      "inputs": [
        {
          "internalType": "uint256",
          "name": "",
          "type": "uint256"
        }
      ],
      "name": "tokenTypes",
      "outputs": [
        {
          "internalType": "uint256",
          "name": "",
          "type": "uint256"
        }
      ],
      "stateMutability": "view",
      "type": "function"
    },
    {
      "inputs": [
        {
          "internalType": "uint256",
          "name": "_tokenId",
          "type": "uint256"
        }
      ],
      "name": "tokenURI",
      "outputs": [
        {
          "internalType": "string",
          "name": "",
          "type": "string"
        }
      ],
      "stateMutability": "view",
      "type": "function"
    },
    {
      "inputs": [],
      "name": "totalSupply",
      "outputs": [
        {
          "internalType": "uint256",
          "name": "",
          "type": "uint256"
        }
      ],
      "stateMutability": "view",
      "type": "function"
    },
    {
      "inputs": [
        {
          "internalType": "address",
          "name": "from",
          "type": "address"
        },
        {
          "internalType": "address",
          "name": "to",
          "type": "address"
        },
        {
          "internalType": "uint256",
          "name": "tokenId",
          "type": "uint256"
        }
      ],
      "name": "transferFrom",
      "outputs": [],
      "stateMutability": "nonpayable",
      "type": "function"
    },
    {
      "inputs": [
        {
          "internalType": "address",
          "name": "newOwner",
          "type": "address"
        }
      ],
      "name": "transferOwnership",
      "outputs": [],
      "stateMutability": "nonpayable",
      "type": "function"
    }
  ],
  "bytecode": "0x60806040526005600f553480156200001657600080fd5b506040518060400160405280601c81526020017f4b617473757261204f6a6973616e204e657720596561722032303233000000008152506040518060400160405280600481526020017f4b4f32330000000000000000000000000000000000000000000000000000000081525081600090805190602001906200009b929190620001ab565b508060019080519060200190620000b4929190620001ab565b505050620000d7620000cb620000dd60201b60201c565b620000e560201b60201c565b620002c0565b600033905090565b6000600a60009054906101000a900473ffffffffffffffffffffffffffffffffffffffff16905081600a60006101000a81548173ffffffffffffffffffffffffffffffffffffffff021916908373ffffffffffffffffffffffffffffffffffffffff1602179055508173ffffffffffffffffffffffffffffffffffffffff168173ffffffffffffffffffffffffffffffffffffffff167f8be0079c531659141344cd1fd0a4f28419497f9722a3daafe3b4186f6b6457e060405160405180910390a35050565b828054620001b9906200025b565b90600052602060002090601f016020900481019282620001dd576000855562000229565b82601f10620001f857805160ff191683800117855562000229565b8280016001018555821562000229579182015b82811115620002285782518255916020019190600101906200020b565b5b5090506200023891906200023c565b5090565b5b80821115620002575760008160009055506001016200023d565b5090565b600060028204905060018216806200027457607f821691505b602082108114156200028b576200028a62000291565b5b50919050565b7f4e487b7100000000000000000000000000000000000000000000000000000000600052602260045260246000fd5b61438880620002d06000396000f3fe608060405234801561001057600080fd5b50600436106101f05760003560e01c806370a082311161010f578063c18de7fc116100a2578063db06942f11610071578063db06942f14610608578063e985e9c514610638578063f2fde38b14610668578063f432f4ce14610684576101f0565b8063c18de7fc14610570578063c61dafbe146105a0578063c7430868146105bc578063c87b56dd146105d8576101f0565b80638ff9b86a116100de5780638ff9b86a146104ea57806395d89b411461051a578063a22cb46514610538578063b88d4fde14610554576101f0565b806370a0823114610462578063715018a6146104925780637697c5121461049c5780638da5cb5b146104cc576101f0565b80631b9c61d01161018757806342842e0e1161015657806342842e0e146103c85780634f6ccce7146103e4578063553f241e146104145780636352211e14610432576101f0565b80631b9c61d01461031c57806323b872dd1461034c5780632f745c591461036857806333f6832a14610398576101f0565b8063095ea7b3116101c3578063095ea7b31461028f5780630b791430146102ab57806310fff722146102e257806318160ddd146102fe576101f0565b806301ffc9a7146101f5578063040a56051461022557806306fdde0314610241578063081812fc1461025f575b600080fd5b61020f600480360381019061020a9190612eb5565b6106a0565b60405161021c9190613640565b60405180910390f35b61023f600480360381019061023a9190612f7c565b61071a565b005b61024961075a565b604051610256919061365b565b60405180910390f35b61027960048036038101906102749190612f0f565b6107ec565b60405161028691906135d9565b60405180910390f35b6102a960048036038101906102a49190612e48565b610832565b005b6102c560048036038101906102c09190612f0f565b61094a565b6040516102d9989796959493929190613918565b60405180910390f35b6102fc60048036038101906102f7919061304f565b610a61565b005b610306610b95565b60405161031391906138fd565b60405180910390f35b61033660048036038101906103319190612f3c565b610ba2565b6040516103439190613640565b60405180910390f35b61036660048036038101906103619190612d32565b610c76565b005b610382600480360381019061037d9190612e48565b610cd6565b60405161038f91906138fd565b60405180910390f35b6103b260048036038101906103ad9190612f0f565b610d7b565b6040516103bf91906138fd565b60405180910390f35b6103e260048036038101906103dd9190612d32565b610d93565b005b6103fe60048036038101906103f99190612f0f565b610db3565b60405161040b91906138fd565b60405180910390f35b61041c610e24565b60405161042991906138fd565b60405180910390f35b61044c60048036038101906104479190612f0f565b610e2a565b60405161045991906135d9565b60405180910390f35b61047c60048036038101906104779190612cc5565b610edc565b60405161048991906138fd565b60405180910390f35b61049a610f94565b005b6104b660048036038101906104b19190612fbc565b610fa8565b6040516104c391906138fd565b60405180910390f35b6104d4610fd9565b6040516104e191906135d9565b60405180910390f35b61050460048036038101906104ff9190612f3c565b611003565b60405161051191906138fd565b60405180910390f35b610522611066565b60405161052f919061365b565b60405180910390f35b610552600480360381019061054d9190612e08565b6110f8565b005b61056e60048036038101906105699190612d85565b61110e565b005b61058a60048036038101906105859190612f0f565b611170565b60405161059791906138fd565b60405180910390f35b6105ba60048036038101906105b59190612f0f565b611188565b005b6105d660048036038101906105d19190612ffc565b6111b2565b005b6105f260048036038101906105ed9190612f0f565b611218565b6040516105ff919061365b565b60405180910390f35b610622600480360381019061061d9190612fbc565b611388565b60405161062f9190613640565b60405180910390f35b610652600480360381019061064d9190612cf2565b611436565b60405161065f9190613640565b60405180910390f35b610682600480360381019061067d9190612cc5565b6114ca565b005b61069e60048036038101906106999190612fbc565b61154e565b005b60007f780e9d63000000000000000000000000000000000000000000000000000000007bffffffffffffffffffffffffffffffffffffffffffffffffffffffff1916827bffffffffffffffffffffffffffffffffffffffffffffffffffffffff1916148061071357506107128261185e565b5b9050919050565b610722611940565b6000600b60008481526020019081526020016000209050818160030160006101000a81548160ff021916908315150217905550505050565b60606000805461076990613bbc565b80601f016020809104026020016040519081016040528092919081815260200182805461079590613bbc565b80156107e25780601f106107b7576101008083540402835291602001916107e2565b820191906000526020600020905b8154815290600101906020018083116107c557829003601f168201915b5050505050905090565b60006107f7826119be565b6004600083815260200190815260200160002060009054906101000a900473ffffffffffffffffffffffffffffffffffffffff169050919050565b600061083d82610e2a565b90508073ffffffffffffffffffffffffffffffffffffffff168373ffffffffffffffffffffffffffffffffffffffff1614156108ae576040517f08c379a00000000000000000000000000000000000000000000000000000000081526004016108a59061385d565b60405180910390fd5b8073ffffffffffffffffffffffffffffffffffffffff166108cd611a09565b73ffffffffffffffffffffffffffffffffffffffff1614806108fc57506108fb816108f6611a09565b611436565b5b61093b576040517f08c379a0000000000000000000000000000000000000000000000000000000008152600401610932906137bd565b60405180910390fd5b6109458383611a11565b505050565b600b6020528060005260406000206000915090508060000154908060010154908060020154908060030160009054906101000a900460ff16908060030160019054906101000a900460ff16908060030160029054906101000a900460ff16908060040180546109b890613bbc565b80601f01602080910402602001604051908101604052809291908181526020018280546109e490613bbc565b8015610a315780601f10610a0657610100808354040283529160200191610a31565b820191906000526020600020905b815481529060010190602001808311610a1457829003601f168201915b5050505050908060050160009054906101000a900473ffffffffffffffffffffffffffffffffffffffff16905088565b610a69611940565b81158015610a745750805b15610ad257600e6000898152602001908152602001600020805490508714610ad1576040517f08c379a0000000000000000000000000000000000000000000000000000000008152600401610ac89061387d565b60405180910390fd5b5b6000600b60008a815260200190815260200160002090508781600001819055508681600201819055508585826004019190610b0e929190612abd565b50838160050160006101000a81548173ffffffffffffffffffffffffffffffffffffffff021916908373ffffffffffffffffffffffffffffffffffffffff160217905550828160030160016101000a81548160ff021916908315150217905550818160030160026101000a81548160ff021916908315150217905550505050505050505050565b6000600880549050905090565b600080600b6000858152602001908152602001600020905060008160050160009054906101000a900473ffffffffffffffffffffffffffffffffffffffff1690508073ffffffffffffffffffffffffffffffffffffffff1663774697fe856040518263ffffffff1660e01b8152600401610c1c91906135d9565b60206040518083038186803b158015610c3457600080fd5b505afa158015610c48573d6000803e3d6000fd5b505050506040513d601f19601f82011682018060405250810190610c6c9190612e88565b9250505092915050565b610c87610c81611a09565b82611aca565b610cc6576040517f08c379a0000000000000000000000000000000000000000000000000000000008152600401610cbd906138dd565b60405180910390fd5b610cd1838383611b5f565b505050565b6000610ce183610edc565b8210610d22576040517f08c379a0000000000000000000000000000000000000000000000000000000008152600401610d199061369d565b60405180910390fd5b600660008473ffffffffffffffffffffffffffffffffffffffff1673ffffffffffffffffffffffffffffffffffffffff168152602001908152602001600020600083815260200190815260200160002054905092915050565b600d6020528060005260406000206000915090505481565b610dae8383836040518060200160405280600081525061110e565b505050565b6000610dbd610b95565b8210610dfe576040517f08c379a0000000000000000000000000000000000000000000000000000000008152600401610df59061389d565b60405180910390fd5b60088281548110610e1257610e11613d83565b5b90600052602060002001549050919050565b600f5481565b6000806002600084815260200190815260200160002060009054906101000a900473ffffffffffffffffffffffffffffffffffffffff169050600073ffffffffffffffffffffffffffffffffffffffff168173ffffffffffffffffffffffffffffffffffffffff161415610ed3576040517f08c379a0000000000000000000000000000000000000000000000000000000008152600401610eca9061383d565b60405180910390fd5b80915050919050565b60008073ffffffffffffffffffffffffffffffffffffffff168273ffffffffffffffffffffffffffffffffffffffff161415610f4d576040517f08c379a0000000000000000000000000000000000000000000000000000000008152600401610f449061379d565b60405180910390fd5b600360008373ffffffffffffffffffffffffffffffffffffffff1673ffffffffffffffffffffffffffffffffffffffff168152602001908152602001600020549050919050565b610f9c611940565b610fa66000611dc6565b565b600e6020528160005260406000208181548110610fc457600080fd5b90600052602060002001600091509150505481565b6000600a60009054906101000a900473ffffffffffffffffffffffffffffffffffffffff16905090565b600080600b600085815260200190815260200160002090508060060160008473ffffffffffffffffffffffffffffffffffffffff1673ffffffffffffffffffffffffffffffffffffffff1681526020019081526020016000205491505092915050565b60606001805461107590613bbc565b80601f01602080910402602001604051908101604052809291908181526020018280546110a190613bbc565b80156110ee5780601f106110c3576101008083540402835291602001916110ee565b820191906000526020600020905b8154815290600101906020018083116110d157829003601f168201915b5050505050905090565b61110a611103611a09565b8383611e8c565b5050565b61111f611119611a09565b83611aca565b61115e576040517f08c379a0000000000000000000000000000000000000000000000000000000008152600401611155906138dd565b60405180910390fd5b61116a84848484611ff9565b50505050565b600c6020528060005260406000206000915090505481565b611190611940565b600e600082815260200190815260200160002060006111af9190612b43565b50565b6111ba611940565b60005b8181101561121257600e6000858152602001908152602001600020839080600181540180825580915050600190039060005260206000200160009091909190915055808061120a90613c1f565b9150506111bd565b50505050565b606061122382612055565b611262576040517f08c379a0000000000000000000000000000000000000000000000000000000008152600401611259906137fd565b60405180910390fd5b6000611280600c6000858152602001908152602001600020546120c1565b90506000600b6000600d600087815260200190815260200160002054815260200190815260200160002090508060030160019054906101000a900460ff1615611359578060040180546112d290613bbc565b80601f01602080910402602001604051908101604052809291908181526020018280546112fe90613bbc565b801561134b5780601f106113205761010080835404028352916020019161134b565b820191906000526020600020905b81548152906001019060200180831161132e57829003601f168201915b505050505092505050611383565b806004018260405160200161136f92919061356d565b604051602081830303815290604052925050505b919050565b600080600b600085815260200190815260200160002090508060030160009054906101000a900460ff1680156113d1575080600001548382600101546113ce9190613a4b565b11155b801561142d57508060020154838260060160003373ffffffffffffffffffffffffffffffffffffffff1673ffffffffffffffffffffffffffffffffffffffff1681526020019081526020016000205461142a9190613a4b565b11155b91505092915050565b6000600560008473ffffffffffffffffffffffffffffffffffffffff1673ffffffffffffffffffffffffffffffffffffffff16815260200190815260200160002060008373ffffffffffffffffffffffffffffffffffffffff1673ffffffffffffffffffffffffffffffffffffffff16815260200190815260200160002060009054906101000a900460ff16905092915050565b6114d2611940565b600073ffffffffffffffffffffffffffffffffffffffff168173ffffffffffffffffffffffffffffffffffffffff161415611542576040517f08c379a0000000000000000000000000000000000000000000000000000000008152600401611539906136dd565b60405180910390fd5b61154b81611dc6565b50565b6000811180156115605750600f548111155b61159f576040517f08c379a00000000000000000000000000000000000000000000000000000000081526004016115969061373d565b60405180910390fd5b6115a98282611388565b6115e8576040517f08c379a00000000000000000000000000000000000000000000000000000000081526004016115df9061367d565b60405180910390fd5b6115f28233610ba2565b611631576040517f08c379a0000000000000000000000000000000000000000000000000000000008152600401611628906138bd565b60405180910390fd5b6000600b600084815260200190815260200160002090506000611652610b95565b90506000600e600086815260200190815260200160002090506000600190505b84811161185657600081846116879190613a4b565b905084600101600081548092919061169e90613c1f565b91905055508460060160003373ffffffffffffffffffffffffffffffffffffffff1673ffffffffffffffffffffffffffffffffffffffff16815260200190815260200160002060008154809291906116f590613c1f565b919050555086600d6000838152602001908152602001600020819055508460030160029054906101000a900460ff161561181b57600083805490504233846040516020016117459392919061359c565b6040516020818303038152906040528051906020012060001c6117689190613c96565b905083818154811061177d5761177c613d83565b5b9060005260206000200154600c60008481526020019081526020016000208190555083600185805490506117b19190613ad2565b815481106117c2576117c1613d83565b5b90600052602060002001548482815481106117e0576117df613d83565b5b9060005260206000200181905550838054806117ff576117fe613d54565b5b6001900381819060005260206000200160009055905550611838565b8460010154600c6000838152602001908152602001600020819055505b6118423382612222565b50808061184e90613c1f565b915050611672565b505050505050565b60007f80ac58cd000000000000000000000000000000000000000000000000000000007bffffffffffffffffffffffffffffffffffffffffffffffffffffffff1916827bffffffffffffffffffffffffffffffffffffffffffffffffffffffff1916148061192957507f5b5e139f000000000000000000000000000000000000000000000000000000007bffffffffffffffffffffffffffffffffffffffffffffffffffffffff1916827bffffffffffffffffffffffffffffffffffffffffffffffffffffffff1916145b80611939575061193882612240565b5b9050919050565b611948611a09565b73ffffffffffffffffffffffffffffffffffffffff16611966610fd9565b73ffffffffffffffffffffffffffffffffffffffff16146119bc576040517f08c379a00000000000000000000000000000000000000000000000000000000081526004016119b39061381d565b60405180910390fd5b565b6119c781612055565b611a06576040517f08c379a00000000000000000000000000000000000000000000000000000000081526004016119fd9061383d565b60405180910390fd5b50565b600033905090565b816004600083815260200190815260200160002060006101000a81548173ffffffffffffffffffffffffffffffffffffffff021916908373ffffffffffffffffffffffffffffffffffffffff160217905550808273ffffffffffffffffffffffffffffffffffffffff16611a8483610e2a565b73ffffffffffffffffffffffffffffffffffffffff167f8c5be1e5ebec7d5bd14f71427d1e84f3dd0314c0f7b2291e5b200ac8c7c3b92560405160405180910390a45050565b600080611ad683610e2a565b90508073ffffffffffffffffffffffffffffffffffffffff168473ffffffffffffffffffffffffffffffffffffffff161480611b185750611b178185611436565b5b80611b5657508373ffffffffffffffffffffffffffffffffffffffff16611b3e846107ec565b73ffffffffffffffffffffffffffffffffffffffff16145b91505092915050565b8273ffffffffffffffffffffffffffffffffffffffff16611b7f82610e2a565b73ffffffffffffffffffffffffffffffffffffffff1614611bd5576040517f08c379a0000000000000000000000000000000000000000000000000000000008152600401611bcc906136fd565b60405180910390fd5b600073ffffffffffffffffffffffffffffffffffffffff168273ffffffffffffffffffffffffffffffffffffffff161415611c45576040517f08c379a0000000000000000000000000000000000000000000000000000000008152600401611c3c9061375d565b60405180910390fd5b611c508383836122aa565b611c5b600082611a11565b6001600360008573ffffffffffffffffffffffffffffffffffffffff1673ffffffffffffffffffffffffffffffffffffffff1681526020019081526020016000206000828254611cab9190613ad2565b925050819055506001600360008473ffffffffffffffffffffffffffffffffffffffff1673ffffffffffffffffffffffffffffffffffffffff1681526020019081526020016000206000828254611d029190613a4b565b92505081905550816002600083815260200190815260200160002060006101000a81548173ffffffffffffffffffffffffffffffffffffffff021916908373ffffffffffffffffffffffffffffffffffffffff160217905550808273ffffffffffffffffffffffffffffffffffffffff168473ffffffffffffffffffffffffffffffffffffffff167fddf252ad1be2c89b69c2b068fc378daa952ba7f163c4a11628f55a4df523b3ef60405160405180910390a4611dc18383836123be565b505050565b6000600a60009054906101000a900473ffffffffffffffffffffffffffffffffffffffff16905081600a60006101000a81548173ffffffffffffffffffffffffffffffffffffffff021916908373ffffffffffffffffffffffffffffffffffffffff1602179055508173ffffffffffffffffffffffffffffffffffffffff168173ffffffffffffffffffffffffffffffffffffffff167f8be0079c531659141344cd1fd0a4f28419497f9722a3daafe3b4186f6b6457e060405160405180910390a35050565b8173ffffffffffffffffffffffffffffffffffffffff168373ffffffffffffffffffffffffffffffffffffffff161415611efb576040517f08c379a0000000000000000000000000000000000000000000000000000000008152600401611ef29061377d565b60405180910390fd5b80600560008573ffffffffffffffffffffffffffffffffffffffff1673ffffffffffffffffffffffffffffffffffffffff16815260200190815260200160002060008473ffffffffffffffffffffffffffffffffffffffff1673ffffffffffffffffffffffffffffffffffffffff16815260200190815260200160002060006101000a81548160ff0219169083151502179055508173ffffffffffffffffffffffffffffffffffffffff168373ffffffffffffffffffffffffffffffffffffffff167f17307eab39ab6107e8899845ad3d59bd9653f200f220920489ca2b5937696c3183604051611fec9190613640565b60405180910390a3505050565b612004848484611b5f565b612010848484846123c3565b61204f576040517f08c379a0000000000000000000000000000000000000000000000000000000008152600401612046906136bd565b60405180910390fd5b50505050565b60008073ffffffffffffffffffffffffffffffffffffffff166002600084815260200190815260200160002060009054906101000a900473ffffffffffffffffffffffffffffffffffffffff1673ffffffffffffffffffffffffffffffffffffffff1614159050919050565b60606000821415612109576040518060400160405280600181526020017f3000000000000000000000000000000000000000000000000000000000000000815250905061221d565b600082905060005b6000821461213b57808061212490613c1f565b915050600a826121349190613aa1565b9150612111565b60008167ffffffffffffffff81111561215757612156613db2565b5b6040519080825280601f01601f1916602001820160405280156121895781602001600182028036833780820191505090505b5090505b60008514612216576001826121a29190613ad2565b9150600a856121b19190613c96565b60306121bd9190613a4b565b60f81b8183815181106121d3576121d2613d83565b5b60200101907effffffffffffffffffffffffffffffffffffffffffffffffffffffffffffff1916908160001a905350600a8561220f9190613aa1565b945061218d565b8093505050505b919050565b61223c82826040518060200160405280600081525061255a565b5050565b60007f01ffc9a7000000000000000000000000000000000000000000000000000000007bffffffffffffffffffffffffffffffffffffffffffffffffffffffff1916827bffffffffffffffffffffffffffffffffffffffffffffffffffffffff1916149050919050565b6122b58383836125b5565b600073ffffffffffffffffffffffffffffffffffffffff168373ffffffffffffffffffffffffffffffffffffffff1614156122f8576122f3816125ba565b612337565b8173ffffffffffffffffffffffffffffffffffffffff168373ffffffffffffffffffffffffffffffffffffffff1614612336576123358382612603565b5b5b600073ffffffffffffffffffffffffffffffffffffffff168273ffffffffffffffffffffffffffffffffffffffff16141561237a5761237581612770565b6123b9565b8273ffffffffffffffffffffffffffffffffffffffff168273ffffffffffffffffffffffffffffffffffffffff16146123b8576123b78282612841565b5b5b505050565b505050565b60006123e48473ffffffffffffffffffffffffffffffffffffffff166128c0565b1561254d578373ffffffffffffffffffffffffffffffffffffffff1663150b7a0261240d611a09565b8786866040518563ffffffff1660e01b815260040161242f94939291906135f4565b602060405180830381600087803b15801561244957600080fd5b505af192505050801561247a57506040513d601f19601f820116820180604052508101906124779190612ee2565b60015b6124fd573d80600081146124aa576040519150601f19603f3d011682016040523d82523d6000602084013e6124af565b606091505b506000815114156124f5576040517f08c379a00000000000000000000000000000000000000000000000000000000081526004016124ec906136bd565b60405180910390fd5b805181602001fd5b63150b7a0260e01b7bffffffffffffffffffffffffffffffffffffffffffffffffffffffff1916817bffffffffffffffffffffffffffffffffffffffffffffffffffffffff191614915050612552565b600190505b949350505050565b61256483836128e3565b61257160008484846123c3565b6125b0576040517f08c379a00000000000000000000000000000000000000000000000000000000081526004016125a7906136bd565b60405180910390fd5b505050565b505050565b6008805490506009600083815260200190815260200160002081905550600881908060018154018082558091505060019003906000526020600020016000909190919091505550565b6000600161261084610edc565b61261a9190613ad2565b90506000600760008481526020019081526020016000205490508181146126ff576000600660008673ffffffffffffffffffffffffffffffffffffffff1673ffffffffffffffffffffffffffffffffffffffff168152602001908152602001600020600084815260200190815260200160002054905080600660008773ffffffffffffffffffffffffffffffffffffffff1673ffffffffffffffffffffffffffffffffffffffff168152602001908152602001600020600084815260200190815260200160002081905550816007600083815260200190815260200160002081905550505b6007600084815260200190815260200160002060009055600660008573ffffffffffffffffffffffffffffffffffffffff1673ffffffffffffffffffffffffffffffffffffffff16815260200190815260200160002060008381526020019081526020016000206000905550505050565b600060016008805490506127849190613ad2565b90506000600960008481526020019081526020016000205490506000600883815481106127b4576127b3613d83565b5b9060005260206000200154905080600883815481106127d6576127d5613d83565b5b90600052602060002001819055508160096000838152602001908152602001600020819055506009600085815260200190815260200160002060009055600880548061282557612824613d54565b5b6001900381819060005260206000200160009055905550505050565b600061284c83610edc565b905081600660008573ffffffffffffffffffffffffffffffffffffffff1673ffffffffffffffffffffffffffffffffffffffff168152602001908152602001600020600083815260200190815260200160002081905550806007600084815260200190815260200160002081905550505050565b6000808273ffffffffffffffffffffffffffffffffffffffff163b119050919050565b600073ffffffffffffffffffffffffffffffffffffffff168273ffffffffffffffffffffffffffffffffffffffff161415612953576040517f08c379a000000000000000000000000000000000000000000000000000000000815260040161294a906137dd565b60405180910390fd5b61295c81612055565b1561299c576040517f08c379a00000000000000000000000000000000000000000000000000000000081526004016129939061371d565b60405180910390fd5b6129a8600083836122aa565b6001600360008473ffffffffffffffffffffffffffffffffffffffff1673ffffffffffffffffffffffffffffffffffffffff16815260200190815260200160002060008282546129f89190613a4b565b92505081905550816002600083815260200190815260200160002060006101000a81548173ffffffffffffffffffffffffffffffffffffffff021916908373ffffffffffffffffffffffffffffffffffffffff160217905550808273ffffffffffffffffffffffffffffffffffffffff16600073ffffffffffffffffffffffffffffffffffffffff167fddf252ad1be2c89b69c2b068fc378daa952ba7f163c4a11628f55a4df523b3ef60405160405180910390a4612ab9600083836123be565b5050565b828054612ac990613bbc565b90600052602060002090601f016020900481019282612aeb5760008555612b32565b82601f10612b0457803560ff1916838001178555612b32565b82800160010185558215612b32579182015b82811115612b31578235825591602001919060010190612b16565b5b509050612b3f9190612b64565b5090565b5080546000825590600052602060002090810190612b619190612b64565b50565b5b80821115612b7d576000816000905550600101612b65565b5090565b6000612b94612b8f846139c2565b61399d565b905082815260208101848484011115612bb057612baf613df0565b5b612bbb848285613b7a565b509392505050565b600081359050612bd2816142f6565b92915050565b600081359050612be78161430d565b92915050565b600081519050612bfc8161430d565b92915050565b600081359050612c1181614324565b92915050565b600081519050612c2681614324565b92915050565b600082601f830112612c4157612c40613de6565b5b8135612c51848260208601612b81565b91505092915050565b60008083601f840112612c7057612c6f613de6565b5b8235905067ffffffffffffffff811115612c8d57612c8c613de1565b5b602083019150836001820283011115612ca957612ca8613deb565b5b9250929050565b600081359050612cbf8161433b565b92915050565b600060208284031215612cdb57612cda613dfa565b5b6000612ce984828501612bc3565b91505092915050565b60008060408385031215612d0957612d08613dfa565b5b6000612d1785828601612bc3565b9250506020612d2885828601612bc3565b9150509250929050565b600080600060608486031215612d4b57612d4a613dfa565b5b6000612d5986828701612bc3565b9350506020612d6a86828701612bc3565b9250506040612d7b86828701612cb0565b9150509250925092565b60008060008060808587031215612d9f57612d9e613dfa565b5b6000612dad87828801612bc3565b9450506020612dbe87828801612bc3565b9350506040612dcf87828801612cb0565b925050606085013567ffffffffffffffff811115612df057612def613df5565b5b612dfc87828801612c2c565b91505092959194509250565b60008060408385031215612e1f57612e1e613dfa565b5b6000612e2d85828601612bc3565b9250506020612e3e85828601612bd8565b9150509250929050565b60008060408385031215612e5f57612e5e613dfa565b5b6000612e6d85828601612bc3565b9250506020612e7e85828601612cb0565b9150509250929050565b600060208284031215612e9e57612e9d613dfa565b5b6000612eac84828501612bed565b91505092915050565b600060208284031215612ecb57612eca613dfa565b5b6000612ed984828501612c02565b91505092915050565b600060208284031215612ef857612ef7613dfa565b5b6000612f0684828501612c17565b91505092915050565b600060208284031215612f2557612f24613dfa565b5b6000612f3384828501612cb0565b91505092915050565b60008060408385031215612f5357612f52613dfa565b5b6000612f6185828601612cb0565b9250506020612f7285828601612bc3565b9150509250929050565b60008060408385031215612f9357612f92613dfa565b5b6000612fa185828601612cb0565b9250506020612fb285828601612bd8565b9150509250929050565b60008060408385031215612fd357612fd2613dfa565b5b6000612fe185828601612cb0565b9250506020612ff285828601612cb0565b9150509250929050565b60008060006060848603121561301557613014613dfa565b5b600061302386828701612cb0565b935050602061303486828701612cb0565b925050604061304586828701612cb0565b9150509250925092565b60008060008060008060008060e0898b03121561306f5761306e613dfa565b5b600061307d8b828c01612cb0565b985050602061308e8b828c01612cb0565b975050604061309f8b828c01612cb0565b965050606089013567ffffffffffffffff8111156130c0576130bf613df5565b5b6130cc8b828c01612c5a565b955095505060806130df8b828c01612bc3565b93505060a06130f08b828c01612bd8565b92505060c06131018b828c01612bd8565b9150509295985092959890939650565b61311a81613b06565b82525050565b61313161312c82613b06565b613c68565b82525050565b61314081613b18565b82525050565b600061315182613a08565b61315b8185613a1e565b935061316b818560208601613b89565b61317481613dff565b840191505092915050565b600061318a82613a13565b6131948185613a2f565b93506131a4818560208601613b89565b6131ad81613dff565b840191505092915050565b60006131c382613a13565b6131cd8185613a40565b93506131dd818560208601613b89565b80840191505092915050565b600081546131f681613bbc565b6132008186613a40565b9450600182166000811461321b576001811461322c5761325f565b60ff1983168652818601935061325f565b613235856139f3565b60005b8381101561325757815481890152600182019150602081019050613238565b838801955050505b50505092915050565b6000613275601283613a2f565b915061328082613e1d565b602082019050919050565b6000613298602b83613a2f565b91506132a382613e46565b604082019050919050565b60006132bb603283613a2f565b91506132c682613e95565b604082019050919050565b60006132de602683613a2f565b91506132e982613ee4565b604082019050919050565b6000613301602583613a2f565b915061330c82613f33565b604082019050919050565b6000613324601c83613a2f565b915061332f82613f82565b602082019050919050565b6000613347600e83613a2f565b915061335282613fab565b602082019050919050565b600061336a602483613a2f565b915061337582613fd4565b604082019050919050565b600061338d601983613a2f565b915061339882614023565b602082019050919050565b60006133b0602983613a2f565b91506133bb8261404c565b604082019050919050565b60006133d3603e83613a2f565b91506133de8261409b565b604082019050919050565b60006133f6602083613a2f565b9150613401826140ea565b602082019050919050565b6000613419601183613a2f565b915061342482614113565b602082019050919050565b600061343c600583613a40565b91506134478261413c565b600582019050919050565b600061345f602083613a2f565b915061346a82614165565b602082019050919050565b6000613482601883613a2f565b915061348d8261418e565b602082019050919050565b60006134a5602183613a2f565b91506134b0826141b7565b604082019050919050565b60006134c8601283613a2f565b91506134d382614206565b602082019050919050565b60006134eb602c83613a2f565b91506134f68261422f565b604082019050919050565b600061350e601683613a2f565b91506135198261427e565b602082019050919050565b6000613531602e83613a2f565b915061353c826142a7565b604082019050919050565b61355081613b70565b82525050565b61356761356282613b70565b613c8c565b82525050565b600061357982856131e9565b915061358582846131b8565b91506135908261342f565b91508190509392505050565b60006135a88286613556565b6020820191506135b88285613120565b6014820191506135c88284613556565b602082019150819050949350505050565b60006020820190506135ee6000830184613111565b92915050565b60006080820190506136096000830187613111565b6136166020830186613111565b6136236040830185613547565b81810360608301526136358184613146565b905095945050505050565b60006020820190506136556000830184613137565b92915050565b60006020820190508181036000830152613675818461317f565b905092915050565b6000602082019050818103600083015261369681613268565b9050919050565b600060208201905081810360008301526136b68161328b565b9050919050565b600060208201905081810360008301526136d6816132ae565b9050919050565b600060208201905081810360008301526136f6816132d1565b9050919050565b60006020820190508181036000830152613716816132f4565b9050919050565b6000602082019050818103600083015261373681613317565b9050919050565b600060208201905081810360008301526137568161333a565b9050919050565b600060208201905081810360008301526137768161335d565b9050919050565b6000602082019050818103600083015261379681613380565b9050919050565b600060208201905081810360008301526137b6816133a3565b9050919050565b600060208201905081810360008301526137d6816133c6565b9050919050565b600060208201905081810360008301526137f6816133e9565b9050919050565b600060208201905081810360008301526138168161340c565b9050919050565b6000602082019050818103600083015261383681613452565b9050919050565b6000602082019050818103600083015261385681613475565b9050919050565b6000602082019050818103600083015261387681613498565b9050919050565b60006020820190508181036000830152613896816134bb565b9050919050565b600060208201905081810360008301526138b6816134de565b9050919050565b600060208201905081810360008301526138d681613501565b9050919050565b600060208201905081810360008301526138f681613524565b9050919050565b60006020820190506139126000830184613547565b92915050565b60006101008201905061392e600083018b613547565b61393b602083018a613547565b6139486040830189613547565b6139556060830188613137565b6139626080830187613137565b61396f60a0830186613137565b81810360c0830152613981818561317f565b905061399060e0830184613111565b9998505050505050505050565b60006139a76139b8565b90506139b38282613bee565b919050565b6000604051905090565b600067ffffffffffffffff8211156139dd576139dc613db2565b5b6139e682613dff565b9050602081019050919050565b60008190508160005260206000209050919050565b600081519050919050565b600081519050919050565b600082825260208201905092915050565b600082825260208201905092915050565b600081905092915050565b6000613a5682613b70565b9150613a6183613b70565b9250827fffffffffffffffffffffffffffffffffffffffffffffffffffffffffffffffff03821115613a9657613a95613cc7565b5b828201905092915050565b6000613aac82613b70565b9150613ab783613b70565b925082613ac757613ac6613cf6565b5b828204905092915050565b6000613add82613b70565b9150613ae883613b70565b925082821015613afb57613afa613cc7565b5b828203905092915050565b6000613b1182613b50565b9050919050565b60008115159050919050565b60007fffffffff0000000000000000000000000000000000000000000000000000000082169050919050565b600073ffffffffffffffffffffffffffffffffffffffff82169050919050565b6000819050919050565b82818337600083830152505050565b60005b83811015613ba7578082015181840152602081019050613b8c565b83811115613bb6576000848401525b50505050565b60006002820490506001821680613bd457607f821691505b60208210811415613be857613be7613d25565b5b50919050565b613bf782613dff565b810181811067ffffffffffffffff82111715613c1657613c15613db2565b5b80604052505050565b6000613c2a82613b70565b91507fffffffffffffffffffffffffffffffffffffffffffffffffffffffffffffffff821415613c5d57613c5c613cc7565b5b600182019050919050565b6000613c7382613c7a565b9050919050565b6000613c8582613e10565b9050919050565b6000819050919050565b6000613ca182613b70565b9150613cac83613b70565b925082613cbc57613cbb613cf6565b5b828206905092915050565b7f4e487b7100000000000000000000000000000000000000000000000000000000600052601160045260246000fd5b7f4e487b7100000000000000000000000000000000000000000000000000000000600052601260045260246000fd5b7f4e487b7100000000000000000000000000000000000000000000000000000000600052602260045260246000fd5b7f4e487b7100000000000000000000000000000000000000000000000000000000600052603160045260246000fd5b7f4e487b7100000000000000000000000000000000000000000000000000000000600052603260045260246000fd5b7f4e487b7100000000000000000000000000000000000000000000000000000000600052604160045260246000fd5b600080fd5b600080fd5b600080fd5b600080fd5b600080fd5b600080fd5b6000601f19601f8301169050919050565b60008160601b9050919050565b7f4576656e7420636865636b206661696c65640000000000000000000000000000600082015250565b7f455243373231456e756d657261626c653a206f776e657220696e646578206f7560008201527f74206f6620626f756e6473000000000000000000000000000000000000000000602082015250565b7f4552433732313a207472616e7366657220746f206e6f6e20455243373231526560008201527f63656976657220696d706c656d656e7465720000000000000000000000000000602082015250565b7f4f776e61626c653a206e6577206f776e657220697320746865207a65726f206160008201527f6464726573730000000000000000000000000000000000000000000000000000602082015250565b7f4552433732313a207472616e736665722066726f6d20696e636f72726563742060008201527f6f776e6572000000000000000000000000000000000000000000000000000000602082015250565b7f4552433732313a20746f6b656e20616c7265616479206d696e74656400000000600082015250565b7f696e76616c696420616d6f756e74000000000000000000000000000000000000600082015250565b7f4552433732313a207472616e7366657220746f20746865207a65726f2061646460008201527f7265737300000000000000000000000000000000000000000000000000000000602082015250565b7f4552433732313a20617070726f766520746f2063616c6c657200000000000000600082015250565b7f4552433732313a2061646472657373207a65726f206973206e6f74206120766160008201527f6c6964206f776e65720000000000000000000000000000000000000000000000602082015250565b7f4552433732313a20617070726f76652063616c6c6572206973206e6f7420746f60008201527f6b656e206f776e6572206e6f7220617070726f76656420666f7220616c6c0000602082015250565b7f4552433732313a206d696e7420746f20746865207a65726f2061646472657373600082015250565b7f6e6f6e6578697374656e7420746f6b656e000000000000000000000000000000600082015250565b7f2e6a736f6e000000000000000000000000000000000000000000000000000000600082015250565b7f4f776e61626c653a2063616c6c6572206973206e6f7420746865206f776e6572600082015250565b7f4552433732313a20696e76616c696420746f6b656e2049440000000000000000600082015250565b7f4552433732313a20617070726f76616c20746f2063757272656e74206f776e6560008201527f7200000000000000000000000000000000000000000000000000000000000000602082015250565b7f6e6f74206d61746368207175616e746974790000000000000000000000000000600082015250565b7f455243373231456e756d657261626c653a20676c6f62616c20696e646578206f60008201527f7574206f6620626f756e64730000000000000000000000000000000000000000602082015250565b7f436f6e646974696f6e20636865636b206661696c656400000000000000000000600082015250565b7f4552433732313a2063616c6c6572206973206e6f7420746f6b656e206f776e6560008201527f72206e6f7220617070726f766564000000000000000000000000000000000000602082015250565b6142ff81613b06565b811461430a57600080fd5b50565b61431681613b18565b811461432157600080fd5b50565b61432d81613b24565b811461433857600080fd5b50565b61434481613b70565b811461434f57600080fd5b5056fea26469706673582212206de38b532c35d7da9a65c17ecf9917b201857d698d5d94e4b0352b883f978d4f64736f6c63430008070033",
  "linkReferences": {},
  "deployedLinkReferences": {}
}